{
  "_format": "hh-sol-artifact-1",
  "contractName": "MockDexRouter",
  "sourceName": "contracts/test/mocks/MockDexRouter.sol",
  "abi": [
    {
      "inputs": [],
      "name": "amountOut",
      "outputs": [
        {
          "internalType": "uint256",
          "name": "",
          "type": "uint256"
        }
      ],
      "stateMutability": "view",
      "type": "function"
    },
    {
      "inputs": [],
      "name": "amountOutValue",
      "outputs": [
        {
          "internalType": "uint256",
          "name": "",
          "type": "uint256"
        }
      ],
      "stateMutability": "view",
      "type": "function"
    },
    {
      "inputs": [
        {
          "internalType": "uint256",
          "name": "amountIn",
          "type": "uint256"
        },
        {
          "internalType": "address[]",
          "name": "",
          "type": "address[]"
        }
      ],
      "name": "getAmountsOut",
      "outputs": [
        {
          "internalType": "uint256[]",
          "name": "amounts",
          "type": "uint256[]"
        }
      ],
      "stateMutability": "view",
      "type": "function"
    },
    {
      "inputs": [
        {
          "internalType": "uint256",
          "name": "_amountOut",
          "type": "uint256"
        }
      ],
      "name": "setAmountOut",
      "outputs": [],
      "stateMutability": "nonpayable",
      "type": "function"
    },
    {
      "inputs": [
        {
          "internalType": "address",
          "name": "_tokenOut",
          "type": "address"
        }
      ],
      "name": "setTokenOut",
      "outputs": [],
      "stateMutability": "nonpayable",
      "type": "function"
    },
    {
      "inputs": [
        {
          "internalType": "uint256",
          "name": "amountIn",
          "type": "uint256"
        },
        {
          "internalType": "uint256",
          "name": "",
          "type": "uint256"
        },
        {
          "internalType": "address[]",
          "name": "path",
          "type": "address[]"
        },
        {
          "internalType": "address",
          "name": "to",
          "type": "address"
        },
        {
          "internalType": "uint256",
          "name": "",
          "type": "uint256"
        }
      ],
      "name": "swapExactTokensForTokens",
      "outputs": [
        {
          "internalType": "uint256[]",
          "name": "amounts",
          "type": "uint256[]"
        }
      ],
      "stateMutability": "nonpayable",
      "type": "function"
    },
    {
      "inputs": [],
      "name": "tokenOut",
      "outputs": [
        {
          "internalType": "address",
          "name": "",
          "type": "address"
        }
      ],
      "stateMutability": "view",
      "type": "function"
    }
  ],
  "bytecode": "0x6080604052348015600f57600080fd5b50610ace8061001f6000396000f3fe608060405234801561001057600080fd5b506004361061007d5760003560e01c8063d0202d3b1161005b578063d0202d3b146100ec578063d06ca61f1461010a578063e21a56021461013a578063e868332b146101565761007d565b806338ed17391461008257806346ee8d00146100b2578063c158910d146100d0575b600080fd5b61009c60048036038101906100979190610604565b610174565b6040516100a9919061075c565b60405180910390f35b6100ba6103e8565b6040516100c7919061078d565b60405180910390f35b6100ea60048036038101906100e591906107a8565b6103ee565b005b6100f4610432565b60405161010191906107e4565b60405180910390f35b610124600480360381019061011f91906107ff565b610458565b604051610131919061075c565b60405180910390f35b610154600480360381019061014f919061085f565b6104f1565b005b61015e6104fb565b60405161016b919061078d565b60405180910390f35b60608484600081811061018a5761018961088c565b5b905060200201602081019061019f91906107a8565b73ffffffffffffffffffffffffffffffffffffffff166323b872dd33308a6040518463ffffffff1660e01b81526004016101db939291906108bb565b6020604051808303816000875af11580156101fa573d6000803e3d6000fd5b505050506040513d601f19601f8201168201806040525081019061021e919061092a565b61025d576040517f08c379a0000000000000000000000000000000000000000000000000000000008152600401610254906109b4565b60405180910390fd5b60006001549050858560018181106102785761027761088c565b5b905060200201602081019061028d91906107a8565b73ffffffffffffffffffffffffffffffffffffffff1663a9059cbb85836040518363ffffffff1660e01b81526004016102c79291906109d4565b6020604051808303816000875af11580156102e6573d6000803e3d6000fd5b505050506040513d601f19601f8201168201806040525081019061030a919061092a565b610349576040517f08c379a000000000000000000000000000000000000000000000000000000000815260040161034090610a49565b60405180910390fd5b6000600267ffffffffffffffff81111561036657610365610a69565b5b6040519080825280602002602001820160405280156103945781602001602082028036833780820191505090505b50905088816000815181106103ac576103ab61088c565b5b60200260200101818152505081816001815181106103cd576103cc61088c565b5b60200260200101818152505080925050509695505050505050565b60005481565b80600260006101000a81548173ffffffffffffffffffffffffffffffffffffffff021916908373ffffffffffffffffffffffffffffffffffffffff16021790555050565b600260009054906101000a900473ffffffffffffffffffffffffffffffffffffffff1681565b6060600267ffffffffffffffff81111561047557610474610a69565b5b6040519080825280602002602001820160405280156104a35781602001602082028036833780820191505090505b50905083816000815181106104bb576104ba61088c565b5b602002602001018181525050600054816001815181106104de576104dd61088c565b5b6020026020010181815250509392505050565b8060008190555050565b60015481565b600080fd5b600080fd5b6000819050919050565b61051e8161050b565b811461052957600080fd5b50565b60008135905061053b81610515565b92915050565b600080fd5b600080fd5b600080fd5b60008083601f84011261056657610565610541565b5b8235905067ffffffffffffffff81111561058357610582610546565b5b60208301915083602082028301111561059f5761059e61054b565b5b9250929050565b600073ffffffffffffffffffffffffffffffffffffffff82169050919050565b60006105d1826105a6565b9050919050565b6105e1816105c6565b81146105ec57600080fd5b50565b6000813590506105fe816105d8565b92915050565b60008060008060008060a0878903121561062157610620610501565b5b600061062f89828a0161052c565b965050602061064089828a0161052c565b955050604087013567ffffffffffffffff81111561066157610660610506565b5b61066d89828a01610550565b9450945050606061068089828a016105ef565b925050608061069189828a0161052c565b9150509295509295509295565b600081519050919050565b600082825260208201905092915050565b6000819050602082019050919050565b6106d38161050b565b82525050565b60006106e583836106ca565b60208301905092915050565b6000602082019050919050565b60006107098261069e565b61071381856106a9565b935061071e836106ba565b8060005b8381101561074f57815161073688826106d9565b9750610741836106f1565b925050600181019050610722565b5085935050505092915050565b6000602082019050818103600083015261077681846106fe565b905092915050565b6107878161050b565b82525050565b60006020820190506107a2600083018461077e565b92915050565b6000602082840312156107be576107bd610501565b5b60006107cc848285016105ef565b91505092915050565b6107de816105c6565b82525050565b60006020820190506107f960008301846107d5565b92915050565b60008060006040848603121561081857610817610501565b5b60006108268682870161052c565b935050602084013567ffffffffffffffff81111561084757610846610506565b5b61085386828701610550565b92509250509250925092565b60006020828403121561087557610874610501565b5b60006108838482850161052c565b91505092915050565b7f4e487b7100000000000000000000000000000000000000000000000000000000600052603260045260246000fd5b60006060820190506108d060008301866107d5565b6108dd60208301856107d5565b6108ea604083018461077e565b949350505050565b60008115159050919050565b610907816108f2565b811461091257600080fd5b50565b600081519050610924816108fe565b92915050565b6000602082840312156109405761093f610501565b5b600061094e84828501610915565b91505092915050565b600082825260208201905092915050565b7f496e707574207472616e73666572206661696c65640000000000000000000000600082015250565b600061099e601583610957565b91506109a982610968565b602082019050919050565b600060208201905081810360008301526109cd81610991565b9050919050565b60006040820190506109e960008301856107d5565b6109f6602083018461077e565b9392505050565b7f4f7574707574207472616e73666572206661696c656400000000000000000000600082015250565b6000610a33601683610957565b9150610a3e826109fd565b602082019050919050565b60006020820190508181036000830152610a6281610a26565b9050919050565b7f4e487b7100000000000000000000000000000000000000000000000000000000600052604160045260246000fdfea264697066735822122010ff80be5c2dca4d9f21fc133c90eed855106d8e19f240a39779afccdfecf48d64736f6c634300081c0033",
  "linkReferences": {},
  "deployedLinkReferences": {}
}