{
    "_format": "hh-sol-artifact-1",
    "contractName": "AaveArbitrageV1",
    "sourceName": "contracts/AaveArbitrageV1.sol",
    "abi": [
        {
            "inputs": [
                {
                    "internalType": "address",
                    "name": "_aaveProvider",
                    "type": "address"
                },
                {
                    "internalType": "uint256",
                    "name": "_minProfit",
                    "type": "uint256"
                },
                {
                    "internalType": "uint256",
                    "name": "_minSpread",
                    "type": "uint256"
                }
            ],
            "stateMutability": "payable",
            "type": "constructor"
        },
        {
            "inputs": [
                {
                    "internalType": "address",
                    "name": "owner",
                    "type": "address"
                }
            ],
            "name": "OwnableInvalidOwner",
            "type": "error"
        },
        {
            "inputs": [
                {
                    "internalType": "address",
                    "name": "account",
                    "type": "address"
                }
            ],
            "name": "OwnableUnauthorizedAccount",
            "type": "error"
        },
        {
            "inputs": [],
            "name": "ReentrancyGuardReentrantCall",
            "type": "error"
        },
        {
            "anonymous": false,
            "inputs": [
                {
                    "indexed": true,
                    "internalType": "address",
                    "name": "token",
                    "type": "address"
                },
                {
                    "indexed": false,
                    "internalType": "uint256",
                    "name": "amount",
                    "type": "uint256"
                },
                {
                    "indexed": false,
                    "internalType": "uint256",
                    "name": "profit",
                    "type": "uint256"
                },
                {
                    "indexed": false,
                    "internalType": "uint256",
                    "name": "timestamp",
                    "type": "uint256"
                }
            ],
            "name": "ArbitrageExecuted",
            "type": "event"
        },
        {
            "anonymous": false,
            "inputs": [
                {
                    "indexed": true,
                    "internalType": "string",
                    "name": "dex",
                    "type": "string"
                },
                {
                    "indexed": false,
                    "internalType": "address",
                    "name": "router",
                    "type": "address"
                }
            ],
            "name": "DexRouterUpdated",
            "type": "event"
        },
        {
            "anonymous": false,
            "inputs": [
                {
                    "indexed": false,
                    "internalType": "uint256",
                    "name": "percentage",
                    "type": "uint256"
                }
            ],
            "name": "FeesUpdated",
            "type": "event"
        },
        {
            "anonymous": false,
            "inputs": [
                {
                    "indexed": false,
                    "internalType": "string",
                    "name": "reason",
                    "type": "string"
                }
            ],
            "name": "OperationFailed",
            "type": "event"
        },
        {
            "anonymous": false,
            "inputs": [
                {
                    "indexed": true,
                    "internalType": "address",
                    "name": "previousOwner",
                    "type": "address"
                },
                {
                    "indexed": true,
                    "internalType": "address",
                    "name": "newOwner",
                    "type": "address"
                }
            ],
            "name": "OwnershipTransferred",
            "type": "event"
        },
        {
            "anonymous": false,
            "inputs": [
                {
                    "indexed": false,
                    "internalType": "uint256",
                    "name": "newThreshold",
                    "type": "uint256"
                }
            ],
            "name": "ProfitThresholdUpdated",
            "type": "event"
        },
        {
            "anonymous": false,
            "inputs": [
                {
                    "indexed": true,
                    "internalType": "address",
                    "name": "token",
                    "type": "address"
                },
                {
                    "indexed": false,
                    "internalType": "uint256",
                    "name": "amount",
                    "type": "uint256"
                }
            ],
            "name": "TokensRescued",
            "type": "event"
        },
        {
            "inputs": [],
            "name": "ADDRESSES_PROVIDER",
            "outputs": [
                {
                    "internalType": "contract IPoolAddressesProvider",
                    "name": "",
                    "type": "address"
                }
            ],
            "stateMutability": "view",
            "type": "function"
        },
        {
            "inputs": [],
            "name": "POOL",
            "outputs": [
                {
                    "internalType": "contract IPool",
                    "name": "",
                    "type": "address"
                }
            ],
            "stateMutability": "view",
            "type": "function"
        },
        {
            "inputs": [
                {
                    "internalType": "string",
                    "name": "sourceDex",
                    "type": "string"
                },
                {
                    "internalType": "string",
                    "name": "targetDex",
                    "type": "string"
                },
                {
                    "internalType": "address[]",
                    "name": "path",
                    "type": "address[]"
                },
                {
                    "internalType": "uint256",
                    "name": "amount",
                    "type": "uint256"
                },
                {
                    "internalType": "uint256",
                    "name": "minReturn",
                    "type": "uint256"
                }
            ],
            "name": "_executeWithTryCatch",
            "outputs": [],
            "stateMutability": "nonpayable",
            "type": "function"
        },
        {
            "inputs": [
                {
                    "internalType": "string",
                    "name": "_dexName",
                    "type": "string"
                },
                {
                    "internalType": "address",
                    "name": "_router",
                    "type": "address"
                }
            ],
            "name": "configureDex",
            "outputs": [],
            "stateMutability": "nonpayable",
            "type": "function"
        },
        {
            "inputs": [
                {
                    "internalType": "string",
                    "name": "",
                    "type": "string"
                }
            ],
            "name": "dexRouters",
            "outputs": [
                {
                    "internalType": "address",
                    "name": "",
                    "type": "address"
                }
            ],
            "stateMutability": "view",
            "type": "function"
        },
        {
            "inputs": [
                {
                    "internalType": "address",
                    "name": "_token",
                    "type": "address"
                },
                {
                    "internalType": "uint256",
                    "name": "_amount",
                    "type": "uint256"
                },
                {
                    "internalType": "string",
                    "name": "_sourceDex",
                    "type": "string"
                },
                {
                    "internalType": "string",
                    "name": "_targetDex",
                    "type": "string"
                },
                {
                    "internalType": "address[]",
                    "name": "_path",
                    "type": "address[]"
                },
                {
                    "internalType": "uint256",
                    "name": "_minReturn",
                    "type": "uint256"
                }
            ],
            "name": "executeArbitrage",
            "outputs": [],
            "stateMutability": "nonpayable",
            "type": "function"
        },
        {
            "inputs": [
                {
                    "internalType": "address",
                    "name": "_token",
                    "type": "address"
                },
                {
                    "internalType": "uint256",
                    "name": "_amount",
                    "type": "uint256"
                },
                {
                    "internalType": "uint256",
                    "name": "_premium",
                    "type": "uint256"
                },
                {
                    "internalType": "address",
                    "name": "_initiator",
                    "type": "address"
                },
                {
                    "internalType": "bytes",
                    "name": "_params",
                    "type": "bytes"
                }
            ],
            "name": "executeOperation",
            "outputs": [
                {
                    "internalType": "bool",
                    "name": "",
                    "type": "bool"
                }
            ],
            "stateMutability": "nonpayable",
            "type": "function"
        },
        {
            "inputs": [
                {
                    "internalType": "address",
                    "name": "_tokenAddress",
                    "type": "address"
                }
            ],
            "name": "getBalance",
            "outputs": [
                {
                    "internalType": "uint256",
                    "name": "",
                    "type": "uint256"
                }
            ],
            "stateMutability": "view",
            "type": "function"
        },
        {
            "inputs": [],
            "name": "isPaused",
            "outputs": [
                {
                    "internalType": "bool",
                    "name": "",
                    "type": "bool"
                }
            ],
            "stateMutability": "view",
            "type": "function"
        },
        {
            "inputs": [],
            "name": "minProfitThreshold",
            "outputs": [
                {
                    "internalType": "uint256",
                    "name": "",
                    "type": "uint256"
                }
            ],
            "stateMutability": "view",
            "type": "function"
        },
        {
            "inputs": [],
            "name": "minSpreadThreshold",
            "outputs": [
                {
                    "internalType": "uint256",
                    "name": "",
                    "type": "uint256"
                }
            ],
            "stateMutability": "view",
            "type": "function"
        },
        {
            "inputs": [],
            "name": "owner",
            "outputs": [
                {
                    "internalType": "address",
                    "name": "",
                    "type": "address"
                }
            ],
            "stateMutability": "view",
            "type": "function"
        },
        {
            "inputs": [],
            "name": "renounceOwnership",
            "outputs": [],
            "stateMutability": "nonpayable",
            "type": "function"
        },
        {
            "inputs": [
                {
                    "internalType": "address",
                    "name": "_token",
                    "type": "address"
                },
                {
                    "internalType": "uint256",
                    "name": "amount",
                    "type": "uint256"
                }
            ],
            "name": "rescueTokens",
            "outputs": [],
            "stateMutability": "nonpayable",
            "type": "function"
        },
        {
            "inputs": [
                {
                    "internalType": "uint256",
                    "name": "_profit",
                    "type": "uint256"
                },
                {
                    "internalType": "uint256",
                    "name": "_spread",
                    "type": "uint256"
                }
            ],
            "name": "setProfitThresholds",
            "outputs": [],
            "stateMutability": "nonpayable",
            "type": "function"
        },
        {
            "inputs": [
                {
                    "internalType": "address",
                    "name": "_token",
                    "type": "address"
                },
                {
                    "internalType": "uint256",
                    "name": "_amount",
                    "type": "uint256"
                },
                {
                    "internalType": "string",
                    "name": "_sourceDex",
                    "type": "string"
                },
                {
                    "internalType": "string",
                    "name": "_targetDex",
                    "type": "string"
                },
                {
                    "internalType": "address[]",
                    "name": "_path",
                    "type": "address[]"
                }
            ],
            "name": "simulateArbitrage",
            "outputs": [
                {
                    "internalType": "bool",
                    "name": "profitable",
                    "type": "bool"
                },
                {
                    "internalType": "uint256",
                    "name": "potentialProfit",
                    "type": "uint256"
                },
                {
                    "internalType": "uint256",
                    "name": "spreadBP",
                    "type": "uint256"
                }
            ],
            "stateMutability": "view",
            "type": "function"
        },
        {
            "inputs": [],
            "name": "togglePause",
            "outputs": [],
            "stateMutability": "nonpayable",
            "type": "function"
        },
        {
            "inputs": [
                {
                    "internalType": "address",
                    "name": "newOwner",
                    "type": "address"
                }
            ],
            "name": "transferOwnership",
            "outputs": [],
            "stateMutability": "nonpayable",
            "type": "function"
        },
        {
            "stateMutability": "payable",
            "type": "receive"
        }
    ],
    "bytecode": "0x60c06040526040516138d83803806138d8833981810160405281019061002591906102fa565b33838073ffffffffffffffffffffffffffffffffffffffff1660808173ffffffffffffffffffffffffffffffffffffffff16815250508073ffffffffffffffffffffffffffffffffffffffff1663026b1d5f6040518163ffffffff1660e01b8152600401602060405180830381865afa1580156100a6573d6000803e3d6000fd5b505050506040513d601f19601f820116820180604052508101906100ca919061034d565b73ffffffffffffffffffffffffffffffffffffffff1660a08173ffffffffffffffffffffffffffffffffffffffff168152505050600073ffffffffffffffffffffffffffffffffffffffff168173ffffffffffffffffffffffffffffffffffffffff16036101705760006040517f1e4fbdf70000000000000000000000000000000000000000000000000000000081526004016101679190610389565b60405180910390fd5b61017f8161019d60201b60201c565b506001808190555081600381905550806004819055505050506103a4565b60008060009054906101000a900473ffffffffffffffffffffffffffffffffffffffff169050816000806101000a81548173ffffffffffffffffffffffffffffffffffffffff021916908373ffffffffffffffffffffffffffffffffffffffff1602179055508173ffffffffffffffffffffffffffffffffffffffff168173ffffffffffffffffffffffffffffffffffffffff167f8be0079c531659141344cd1fd0a4f28419497f9722a3daafe3b4186f6b6457e060405160405180910390a35050565b600080fd5b600073ffffffffffffffffffffffffffffffffffffffff82169050919050565b600061029182610266565b9050919050565b6102a181610286565b81146102ac57600080fd5b50565b6000815190506102be81610298565b92915050565b6000819050919050565b6102d7816102c4565b81146102e257600080fd5b50565b6000815190506102f4816102ce565b92915050565b60008060006060848603121561031357610312610261565b5b6000610321868287016102af565b9350506020610332868287016102e5565b9250506040610343868287016102e5565b9150509250925092565b60006020828403121561036357610362610261565b5b6000610371848285016102af565b91505092915050565b61038381610286565b82525050565b600060208201905061039e600083018461037a565b92915050565b60805160a0516134fa6103de6000396000818161045d0152818161084401528181610b3d0152610fec0152600061043701526134fa6000f3fe60806040526004361061010d5760003560e01c80637341ab8c11610095578063b187bd2611610064578063b187bd2614610364578063c4ae31681461038f578063d26f0cd0146103a6578063f2fde38b146103cf578063f8b2cb4f146103f857610114565b80637341ab8c146102ba5780637535d246146102e55780638da5cb5b146103105780639e537bea1461033b57610114565b80633bc26c21116100dc5780633bc26c21146101eb578063573761981461021457806358c9ea7f1461023d5780635e7ffa6714610266578063715018a6146102a357610114565b80630542975c146101195780631b11d0ff146101445780631ce57d7214610181578063329af636146101c057610114565b3661011457005b600080fd5b34801561012557600080fd5b5061012e610435565b60405161013b9190611c15565b60405180910390f35b34801561015057600080fd5b5061016b60048036038101906101669190611d1d565b610459565b6040516101789190611dd2565b60405180910390f35b34801561018d57600080fd5b506101a860048036038101906101a39190611e99565b610644565b6040516101b793929190611f84565b60405180910390f35b3480156101cc57600080fd5b506101d56107ce565b6040516101e29190611fbb565b60405180910390f35b3480156101f757600080fd5b50610212600480360381019061020d9190611fd6565b6107d4565b005b34801561022057600080fd5b5061023b600480360381019061023691906120c5565b610914565b005b34801561024957600080fd5b50610264600480360381019061025f9190612105565b610a87565b005b34801561027257600080fd5b5061028d60048036038101906102889190612286565b610ad8565b60405161029a91906122de565b60405180910390f35b3480156102af57600080fd5b506102b8610b21565b005b3480156102c657600080fd5b506102cf610b35565b6040516102dc9190611fbb565b60405180910390f35b3480156102f157600080fd5b506102fa610b3b565b604051610307919061231a565b60405180910390f35b34801561031c57600080fd5b50610325610b5f565b60405161033291906122de565b60405180910390f35b34801561034757600080fd5b50610362600480360381019061035d91906123f8565b610b88565b005b34801561037057600080fd5b50610379610c0a565b6040516103869190611dd2565b60405180910390f35b34801561039b57600080fd5b506103a4610c1d565b005b3480156103b257600080fd5b506103cd60048036038101906103c891906124c7565b610c51565b005b3480156103db57600080fd5b506103f660048036038101906103f19190612527565b610d7b565b005b34801561040457600080fd5b5061041f600480360381019061041a9190612527565b610e01565b60405161042c9190611fbb565b60405180910390f35b7f000000000000000000000000000000000000000000000000000000000000000081565b60007f000000000000000000000000000000000000000000000000000000000000000073ffffffffffffffffffffffffffffffffffffffff163373ffffffffffffffffffffffffffffffffffffffff16146104e9576040517f08c379a00000000000000000000000000000000000000000000000000000000081526004016104e0906125b1565b60405180910390fd5b60008060008086868101906104fe91906125d1565b93509350935093503073ffffffffffffffffffffffffffffffffffffffff16639e537bea8585858e866040518663ffffffff1660e01b81526004016105479594939291906127b8565b600060405180830381600087803b15801561056157600080fd5b505af1925050508015610572575060015b6106265761057e61282d565b806308c379a0036105e2575061059261284f565b8061059d57506105e4565b7f30024b247c7fb2eb5c560ad78987e1319ca2813e167ae8483d4a6f60517bd899816040516105cc91906128df565b60405180910390a160009550505050505061063a565b505b7f30024b247c7fb2eb5c560ad78987e1319ca2813e167ae8483d4a6f60517bd8996040516106119061294d565b60405180910390a1600094505050505061063a565b6106318b8b8b610e84565b60019450505050505b9695505050505050565b600080600061065785858b8b8b8b61115f565b8a73ffffffffffffffffffffffffffffffffffffffff16858560008181106106825761068161296d565b5b90506020020160208101906106979190612527565b73ffffffffffffffffffffffffffffffffffffffff16146106ed576040517f08c379a00000000000000000000000000000000000000000000000000000000081526004016106e490612a0e565b60405180910390fd5b60006106f88b61130b565b8b6107039190612a5d565b905060006107548b8b8e8a8a80806020026020016040519081016040528093929190818152602001838360200280828437600081840152601f19601f8201169050808301925050505050505061132e565b90506107ab8989836107a68b8b80806020026020016040519081016040528093929190818152602001838360200280828437600081840152601f19601f82011690508083019250505050505050611496565b61132e565b90506107b881838e611589565b9450945094505050985098509895505050505050565b60045481565b6107dc6115fb565b600260009054906101000a900460ff161561082c576040517f08c379a000000000000000000000000000000000000000000000000000000000815260040161082390612add565b60405180910390fd5b610834611682565b61084283838989898961115f565b7f000000000000000000000000000000000000000000000000000000000000000073ffffffffffffffffffffffffffffffffffffffff166342b0b77c308b8b8b8b8b8b8b8b8b60405160200161089e9796959493929190612bb5565b60405160208183030381529060405260006040518663ffffffff1660e01b81526004016108cf959493929190612cb3565b600060405180830381600087803b1580156108e957600080fd5b505af11580156108fd573d6000803e3d6000fd5b505050506109096116c8565b505050505050505050565b61091c6115fb565b60008273ffffffffffffffffffffffffffffffffffffffff166370a08231306040518263ffffffff1660e01b815260040161095791906122de565b602060405180830381865afa158015610974573d6000803e3d6000fd5b505050506040513d601f19601f820116820180604052508101906109989190612d22565b905060008183116109a957826109ab565b815b90508373ffffffffffffffffffffffffffffffffffffffff1663a9059cbb6109d1610b5f565b836040518363ffffffff1660e01b81526004016109ef929190612d4f565b6020604051808303816000875af1158015610a0e573d6000803e3d6000fd5b505050506040513d601f19601f82011682018060405250810190610a329190612da4565b508373ffffffffffffffffffffffffffffffffffffffff167f68f67de89e96b13a3ea058af5fd44cc125efceb528482d539c7b43db2faa066e82604051610a799190611fbb565b60405180910390a250505050565b610a8f6115fb565b81600381905550806004819055507fc5023cc86199e71ca52157b0b124ddbda596c9fb8bab5bb7028d162fa3ed554582604051610acc9190611fbb565b60405180910390a15050565b6005818051602081018201805184825260208301602085012081835280955050505050506000915054906101000a900473ffffffffffffffffffffffffffffffffffffffff1681565b610b296115fb565b610b3360006116d1565b565b60035481565b7f000000000000000000000000000000000000000000000000000000000000000081565b60008060009054906101000a900473ffffffffffffffffffffffffffffffffffffffff16905090565b3073ffffffffffffffffffffffffffffffffffffffff163373ffffffffffffffffffffffffffffffffffffffff1614610bf6576040517f08c379a0000000000000000000000000000000000000000000000000000000008152600401610bed90612e1d565b60405180910390fd5b610c038585858585611795565b5050505050565b600260009054906101000a900460ff1681565b610c256115fb565b600260009054906101000a900460ff1615600260006101000a81548160ff021916908315150217905550565b610c596115fb565b600073ffffffffffffffffffffffffffffffffffffffff168173ffffffffffffffffffffffffffffffffffffffff1603610cc8576040517f08c379a0000000000000000000000000000000000000000000000000000000008152600401610cbf90612e89565b60405180910390fd5b8060058484604051610cdb929190612ed9565b908152602001604051809103902060006101000a81548173ffffffffffffffffffffffffffffffffffffffff021916908373ffffffffffffffffffffffffffffffffffffffff1602179055508282604051610d37929190612ed9565b60405180910390207fcd9eb1d8eaef2a7a704d54b38f07db521cfe05cff25c1a73f862370c47a2f4e482604051610d6e91906122de565b60405180910390a2505050565b610d836115fb565b600073ffffffffffffffffffffffffffffffffffffffff168173ffffffffffffffffffffffffffffffffffffffff1603610df55760006040517f1e4fbdf7000000000000000000000000000000000000000000000000000000008152600401610dec91906122de565b60405180910390fd5b610dfe816116d1565b50565b60008173ffffffffffffffffffffffffffffffffffffffff166370a08231306040518263ffffffff1660e01b8152600401610e3c91906122de565b602060405180830381865afa158015610e59573d6000803e3d6000fd5b505050506040513d601f19601f82011682018060405250810190610e7d9190612d22565b9050919050565b610ec26040518060400160405280601a81526020017f0a3d3d3d2050726f63657373696e672050726f666974203d3d3d0000000000008152506118df565b610f016040518060400160405280601081526020017f426f72726f77656420616d6f756e743a0000000000000000000000000000000081525083611978565b610f406040518060400160405280600f81526020017f5072656d69756d20616d6f756e743a000000000000000000000000000000000081525082611978565b60008373ffffffffffffffffffffffffffffffffffffffff166370a08231306040518263ffffffff1660e01b8152600401610f7b91906122de565b602060405180830381865afa158015610f98573d6000803e3d6000fd5b505050506040513d601f19601f82011682018060405250810190610fbc9190612d22565b905060008284610fcc9190612a5d565b90508473ffffffffffffffffffffffffffffffffffffffff1663095ea7b37f0000000000000000000000000000000000000000000000000000000000000000836040518363ffffffff1660e01b8152600401611029929190612d4f565b6020604051808303816000875af1158015611048573d6000803e3d6000fd5b505050506040513d601f19601f8201168201806040525081019061106c9190612da4565b50808210156110b0576040517f08c379a00000000000000000000000000000000000000000000000000000000081526004016110a790612f3e565b60405180910390fd5b600081836110be9190612f5e565b9050600354811015611105576040517f08c379a00000000000000000000000000000000000000000000000000000000081526004016110fc90612fde565b60405180910390fd5b8573ffffffffffffffffffffffffffffffffffffffff167fac5e73d65c7df1a72a57e0d680767c7e764095957ee44ec036b761799b56afd286834260405161114f93929190612ffe565b60405180910390a2505050505050565b600286869050146111a5576040517f08c379a000000000000000000000000000000000000000000000000000000000815260040161119c90613081565b60405180910390fd5b600073ffffffffffffffffffffffffffffffffffffffff16600585856040516111cf929190612ed9565b908152602001604051809103902060009054906101000a900473ffffffffffffffffffffffffffffffffffffffff1673ffffffffffffffffffffffffffffffffffffffff1603611254576040517f08c379a000000000000000000000000000000000000000000000000000000000815260040161124b906130ed565b60405180910390fd5b600073ffffffffffffffffffffffffffffffffffffffff166005838360405161127e929190612ed9565b908152602001604051809103902060009054906101000a900473ffffffffffffffffffffffffffffffffffffffff1673ffffffffffffffffffffffffffffffffffffffff1603611303576040517f08c379a00000000000000000000000000000000000000000000000000000000081526004016112fa90613159565b60405180910390fd5b505050505050565b600061271060098361131d9190613179565b61132791906131ea565b9050919050565b60008060058686604051611343929190612ed9565b908152602001604051809103902060009054906101000a900473ffffffffffffffffffffffffffffffffffffffff169050600073ffffffffffffffffffffffffffffffffffffffff168173ffffffffffffffffffffffffffffffffffffffff16036113e3576040517f08c379a00000000000000000000000000000000000000000000000000000000081526004016113da90613267565b60405180910390fd5b8073ffffffffffffffffffffffffffffffffffffffff1663d06ca61f85856040518363ffffffff1660e01b815260040161141e929190613287565b600060405180830381865afa15801561143b573d6000803e3d6000fd5b505050506040513d6000823e3d601f19601f82011682018060405250810190611464919061337a565b600184516114729190612f5e565b815181106114835761148261296d565b5b6020026020010151915050949350505050565b60606000825167ffffffffffffffff8111156114b5576114b461215b565b5b6040519080825280602002602001820160405280156114e35781602001602082028036833780820191505090505b50905060005b835181101561157f578381600186516115029190612f5e565b61150c9190612f5e565b8151811061151d5761151c61296d565b5b60200260200101518282815181106115385761153761296d565b5b602002602001019073ffffffffffffffffffffffffffffffffffffffff16908173ffffffffffffffffffffffffffffffffffffffff168152505080806001019150506114e9565b5080915050919050565b60008060008085871161159d5760006115aa565b85876115a99190612f5e565b5b9050600085612710888a6115be9190612f5e565b6115c89190613179565b6115d291906131ea565b905060035482101580156115e857506004548110155b8282945094509450505093509350939050565b611603611a14565b73ffffffffffffffffffffffffffffffffffffffff16611621610b5f565b73ffffffffffffffffffffffffffffffffffffffff161461168057611644611a14565b6040517f118cdaa700000000000000000000000000000000000000000000000000000000815260040161167791906122de565b60405180910390fd5b565b6002600154036116be576040517f3ee5aeb500000000000000000000000000000000000000000000000000000000815260040160405180910390fd5b6002600181905550565b60018081905550565b60008060009054906101000a900473ffffffffffffffffffffffffffffffffffffffff169050816000806101000a81548173ffffffffffffffffffffffffffffffffffffffff021916908373ffffffffffffffffffffffffffffffffffffffff1602179055508173ffffffffffffffffffffffffffffffffffffffff168173ffffffffffffffffffffffffffffffffffffffff167f8be0079c531659141344cd1fd0a4f28419497f9722a3daafe3b4186f6b6457e060405160405180910390a35050565b60006005866040516117a791906133f4565b908152602001604051809103902060009054906101000a900473ffffffffffffffffffffffffffffffffffffffff16905060006005866040516117ea91906133f4565b908152602001604051809103902060009054906101000a900473ffffffffffffffffffffffffffffffffffffffff1690506118288286866000611a1c565b60008560018151811061183e5761183d61296d565b5b602002602001015173ffffffffffffffffffffffffffffffffffffffff166370a08231306040518263ffffffff1660e01b815260040161187e91906122de565b602060405180830381865afa15801561189b573d6000803e3d6000fd5b505050506040513d601f19601f820116820180604052508101906118bf9190612d22565b90506118d5826118ce88611496565b8387611a1c565b5050505050505050565b611975816040516024016118f391906128df565b6040516020818303038152906040527f41304fac000000000000000000000000000000000000000000000000000000007bffffffffffffffffffffffffffffffffffffffffffffffffffffffff19166020820180517bffffffffffffffffffffffffffffffffffffffffffffffffffffffff8381831617835250505050611b46565b50565b611a10828260405160240161198e92919061340b565b6040516020818303038152906040527fb60e72cc000000000000000000000000000000000000000000000000000000007bffffffffffffffffffffffffffffffffffffffffffffffffffffffff19166020820180517bffffffffffffffffffffffffffffffffffffffffffffffffffffffff8381831617835250505050611b46565b5050565b600033905090565b82600081518110611a3057611a2f61296d565b5b602002602001015173ffffffffffffffffffffffffffffffffffffffff1663095ea7b385846040518363ffffffff1660e01b8152600401611a72929190612d4f565b6020604051808303816000875af1158015611a91573d6000803e3d6000fd5b505050506040513d601f19601f82011682018060405250810190611ab59190612da4565b508373ffffffffffffffffffffffffffffffffffffffff166338ed173983838630426040518663ffffffff1660e01b8152600401611af795949392919061343b565b6000604051808303816000875af1158015611b16573d6000803e3d6000fd5b505050506040513d6000823e3d601f19601f82011682018060405250810190611b3f919061337a565b5050505050565b611b5d81611b55611b60611b81565b63ffffffff16565b50565b60006a636f6e736f6c652e6c6f679050600080835160208501845afa505050565b611b8c819050919050565b611b94613495565b565b600073ffffffffffffffffffffffffffffffffffffffff82169050919050565b6000819050919050565b6000611bdb611bd6611bd184611b96565b611bb6565b611b96565b9050919050565b6000611bed82611bc0565b9050919050565b6000611bff82611be2565b9050919050565b611c0f81611bf4565b82525050565b6000602082019050611c2a6000830184611c06565b92915050565b6000604051905090565b600080fd5b600080fd5b6000611c4f82611b96565b9050919050565b611c5f81611c44565b8114611c6a57600080fd5b50565b600081359050611c7c81611c56565b92915050565b6000819050919050565b611c9581611c82565b8114611ca057600080fd5b50565b600081359050611cb281611c8c565b92915050565b600080fd5b600080fd5b600080fd5b60008083601f840112611cdd57611cdc611cb8565b5b8235905067ffffffffffffffff811115611cfa57611cf9611cbd565b5b602083019150836001820283011115611d1657611d15611cc2565b5b9250929050565b60008060008060008060a08789031215611d3a57611d39611c3a565b5b6000611d4889828a01611c6d565b9650506020611d5989828a01611ca3565b9550506040611d6a89828a01611ca3565b9450506060611d7b89828a01611c6d565b935050608087013567ffffffffffffffff811115611d9c57611d9b611c3f565b5b611da889828a01611cc7565b92509250509295509295509295565b60008115159050919050565b611dcc81611db7565b82525050565b6000602082019050611de76000830184611dc3565b92915050565b60008083601f840112611e0357611e02611cb8565b5b8235905067ffffffffffffffff811115611e2057611e1f611cbd565b5b602083019150836001820283011115611e3c57611e3b611cc2565b5b9250929050565b60008083601f840112611e5957611e58611cb8565b5b8235905067ffffffffffffffff811115611e7657611e75611cbd565b5b602083019150836020820283011115611e9257611e91611cc2565b5b9250929050565b60008060008060008060008060a0898b031215611eb957611eb8611c3a565b5b6000611ec78b828c01611c6d565b9850506020611ed88b828c01611ca3565b975050604089013567ffffffffffffffff811115611ef957611ef8611c3f565b5b611f058b828c01611ded565b9650965050606089013567ffffffffffffffff811115611f2857611f27611c3f565b5b611f348b828c01611ded565b9450945050608089013567ffffffffffffffff811115611f5757611f56611c3f565b5b611f638b828c01611e43565b92509250509295985092959890939650565b611f7e81611c82565b82525050565b6000606082019050611f996000830186611dc3565b611fa66020830185611f75565b611fb36040830184611f75565b949350505050565b6000602082019050611fd06000830184611f75565b92915050565b600080600080600080600080600060c08a8c031215611ff857611ff7611c3a565b5b60006120068c828d01611c6d565b99505060206120178c828d01611ca3565b98505060408a013567ffffffffffffffff81111561203857612037611c3f565b5b6120448c828d01611ded565b975097505060608a013567ffffffffffffffff81111561206757612066611c3f565b5b6120738c828d01611ded565b955095505060808a013567ffffffffffffffff81111561209657612095611c3f565b5b6120a28c828d01611e43565b935093505060a06120b58c828d01611ca3565b9150509295985092959850929598565b600080604083850312156120dc576120db611c3a565b5b60006120ea85828601611c6d565b92505060206120fb85828601611ca3565b9150509250929050565b6000806040838503121561211c5761211b611c3a565b5b600061212a85828601611ca3565b925050602061213b85828601611ca3565b9150509250929050565b600080fd5b6000601f19601f8301169050919050565b7f4e487b7100000000000000000000000000000000000000000000000000000000600052604160045260246000fd5b6121938261214a565b810181811067ffffffffffffffff821117156121b2576121b161215b565b5b80604052505050565b60006121c5611c30565b90506121d1828261218a565b919050565b600067ffffffffffffffff8211156121f1576121f061215b565b5b6121fa8261214a565b9050602081019050919050565b82818337600083830152505050565b6000612229612224846121d6565b6121bb565b90508281526020810184848401111561224557612244612145565b5b612250848285612207565b509392505050565b600082601f83011261226d5761226c611cb8565b5b813561227d848260208601612216565b91505092915050565b60006020828403121561229c5761229b611c3a565b5b600082013567ffffffffffffffff8111156122ba576122b9611c3f565b5b6122c684828501612258565b91505092915050565b6122d881611c44565b82525050565b60006020820190506122f360008301846122cf565b92915050565b600061230482611be2565b9050919050565b612314816122f9565b82525050565b600060208201905061232f600083018461230b565b92915050565b600067ffffffffffffffff8211156123505761234f61215b565b5b602082029050602081019050919050565b600061237461236f84612335565b6121bb565b9050808382526020820190506020840283018581111561239757612396611cc2565b5b835b818110156123c057806123ac8882611c6d565b845260208401935050602081019050612399565b5050509392505050565b600082601f8301126123df576123de611cb8565b5b81356123ef848260208601612361565b91505092915050565b600080600080600060a0868803121561241457612413611c3a565b5b600086013567ffffffffffffffff81111561243257612431611c3f565b5b61243e88828901612258565b955050602086013567ffffffffffffffff81111561245f5761245e611c3f565b5b61246b88828901612258565b945050604086013567ffffffffffffffff81111561248c5761248b611c3f565b5b612498888289016123ca565b93505060606124a988828901611ca3565b92505060806124ba88828901611ca3565b9150509295509295909350565b6000806000604084860312156124e0576124df611c3a565b5b600084013567ffffffffffffffff8111156124fe576124fd611c3f565b5b61250a86828701611ded565b9350935050602061251d86828701611c6d565b9150509250925092565b60006020828403121561253d5761253c611c3a565b5b600061254b84828501611c6d565b91505092915050565b600082825260208201905092915050565b7f556e617574686f72697a65642063616c6c657200000000000000000000000000600082015250565b600061259b601383612554565b91506125a682612565565b602082019050919050565b600060208201905081810360008301526125ca8161258e565b9050919050565b600080600080608085870312156125eb576125ea611c3a565b5b600085013567ffffffffffffffff81111561260957612608611c3f565b5b61261587828801612258565b945050602085013567ffffffffffffffff81111561263657612635611c3f565b5b61264287828801612258565b935050604085013567ffffffffffffffff81111561266357612662611c3f565b5b61266f878288016123ca565b925050606061268087828801611ca3565b91505092959194509250565b600081519050919050565b60005b838110156126b557808201518184015260208101905061269a565b60008484015250505050565b60006126cc8261268c565b6126d68185612554565b93506126e6818560208601612697565b6126ef8161214a565b840191505092915050565b600081519050919050565b600082825260208201905092915050565b6000819050602082019050919050565b61272f81611c44565b82525050565b60006127418383612726565b60208301905092915050565b6000602082019050919050565b6000612765826126fa565b61276f8185612705565b935061277a83612716565b8060005b838110156127ab5781516127928882612735565b975061279d8361274d565b92505060018101905061277e565b5085935050505092915050565b600060a08201905081810360008301526127d281886126c1565b905081810360208301526127e681876126c1565b905081810360408301526127fa818661275a565b90506128096060830185611f75565b6128166080830184611f75565b9695505050505050565b60008160e01c9050919050565b600060033d111561284c5760046000803e612849600051612820565b90505b90565b600060443d106128dc57612861611c30565b60043d036004823e80513d602482011167ffffffffffffffff821117156128895750506128dc565b808201805167ffffffffffffffff8111156128a757505050506128dc565b80602083010160043d0385018111156128c45750505050506128dc565b6128d38260200185018661218a565b82955050505050505b90565b600060208201905081810360008301526128f981846126c1565b905092915050565b7f556e6b6e6f776e206572726f7200000000000000000000000000000000000000600082015250565b6000612937600d83612554565b915061294282612901565b602082019050919050565b600060208201905081810360008301526129668161292a565b9050919050565b7f4e487b7100000000000000000000000000000000000000000000000000000000600052603260045260246000fd5b7f466972737420746f6b656e206d75737420626520626f72726f77656420746f6b60008201527f656e000000000000000000000000000000000000000000000000000000000000602082015250565b60006129f8602283612554565b9150612a038261299c565b604082019050919050565b60006020820190508181036000830152612a27816129eb565b9050919050565b7f4e487b7100000000000000000000000000000000000000000000000000000000600052601160045260246000fd5b6000612a6882611c82565b9150612a7383611c82565b9250828201905080821115612a8b57612a8a612a2e565b5b92915050565b7f436f6e7472616374207061757365640000000000000000000000000000000000600082015250565b6000612ac7600f83612554565b9150612ad282612a91565b602082019050919050565b60006020820190508181036000830152612af681612aba565b9050919050565b6000612b098385612554565b9350612b16838584612207565b612b1f8361214a565b840190509392505050565b6000819050919050565b6000612b436020840184611c6d565b905092915050565b6000602082019050919050565b6000612b648385612705565b9350612b6f82612b2a565b8060005b85811015612ba857612b858284612b34565b612b8f8882612735565b9750612b9a83612b4b565b925050600181019050612b73565b5085925050509392505050565b60006080820190508181036000830152612bd081898b612afd565b90508181036020830152612be5818789612afd565b90508181036040830152612bfa818587612b58565b9050612c096060830184611f75565b98975050505050505050565b600081519050919050565b600082825260208201905092915050565b6000612c3c82612c15565b612c468185612c20565b9350612c56818560208601612697565b612c5f8161214a565b840191505092915050565b6000819050919050565b600061ffff82169050919050565b6000612c9d612c98612c9384612c6a565b611bb6565b612c74565b9050919050565b612cad81612c82565b82525050565b600060a082019050612cc860008301886122cf565b612cd560208301876122cf565b612ce26040830186611f75565b8181036060830152612cf48185612c31565b9050612d036080830184612ca4565b9695505050505050565b600081519050612d1c81611c8c565b92915050565b600060208284031215612d3857612d37611c3a565b5b6000612d4684828501612d0d565b91505092915050565b6000604082019050612d6460008301856122cf565b612d716020830184611f75565b9392505050565b612d8181611db7565b8114612d8c57600080fd5b50565b600081519050612d9e81612d78565b92915050565b600060208284031215612dba57612db9611c3a565b5b6000612dc884828501612d8f565b91505092915050565b7f496e7465726e616c2063616c6c206f6e6c790000000000000000000000000000600082015250565b6000612e07601283612554565b9150612e1282612dd1565b602082019050919050565b60006020820190508181036000830152612e3681612dfa565b9050919050565b7f496e76616c696420726f75746572206164647265737300000000000000000000600082015250565b6000612e73601683612554565b9150612e7e82612e3d565b602082019050919050565b60006020820190508181036000830152612ea281612e66565b9050919050565b600081905092915050565b6000612ec08385612ea9565b9350612ecd838584612207565b82840190509392505050565b6000612ee6828486612eb4565b91508190509392505050565b7f496e73756666696369656e742072657061796d656e7400000000000000000000600082015250565b6000612f28601683612554565b9150612f3382612ef2565b602082019050919050565b60006020820190508181036000830152612f5781612f1b565b9050919050565b6000612f6982611c82565b9150612f7483611c82565b9250828203905081811115612f8c57612f8b612a2e565b5b92915050565b7f50726f6669742062656c6f77206d696e696d756d000000000000000000000000600082015250565b6000612fc8601483612554565b9150612fd382612f92565b602082019050919050565b60006020820190508181036000830152612ff781612fbb565b9050919050565b60006060820190506130136000830186611f75565b6130206020830185611f75565b61302d6040830184611f75565b949350505050565b7f53696d706c65206172626974726167652070617468206f6e6c79000000000000600082015250565b600061306b601a83612554565b915061307682613035565b602082019050919050565b6000602082019050818103600083015261309a8161305e565b9050919050565b7f536f7572636520444558206e6f7420636f6e6669677572656400000000000000600082015250565b60006130d7601983612554565b91506130e2826130a1565b602082019050919050565b60006020820190508181036000830152613106816130ca565b9050919050565b7f54617267657420444558206e6f7420636f6e6669677572656400000000000000600082015250565b6000613143601983612554565b915061314e8261310d565b602082019050919050565b6000602082019050818103600083015261317281613136565b9050919050565b600061318482611c82565b915061318f83611c82565b925082820261319d81611c82565b915082820484148315176131b4576131b3612a2e565b5b5092915050565b7f4e487b7100000000000000000000000000000000000000000000000000000000600052601260045260246000fd5b60006131f582611c82565b915061320083611c82565b9250826132105761320f6131bb565b5b828204905092915050565b7f444558206e6f7420636f6e666967757265640000000000000000000000000000600082015250565b6000613251601283612554565b915061325c8261321b565b602082019050919050565b6000602082019050818103600083015261328081613244565b9050919050565b600060408201905061329c6000830185611f75565b81810360208301526132ae818461275a565b90509392505050565b600067ffffffffffffffff8211156132d2576132d161215b565b5b602082029050602081019050919050565b60006132f66132f1846132b7565b6121bb565b9050808382526020820190506020840283018581111561331957613318611cc2565b5b835b81811015613342578061332e8882612d0d565b84526020840193505060208101905061331b565b5050509392505050565b600082601f83011261336157613360611cb8565b5b81516133718482602086016132e3565b91505092915050565b6000602082840312156133905761338f611c3a565b5b600082015167ffffffffffffffff8111156133ae576133ad611c3f565b5b6133ba8482850161334c565b91505092915050565b60006133ce8261268c565b6133d88185612ea9565b93506133e8818560208601612697565b80840191505092915050565b600061340082846133c3565b915081905092915050565b6000604082019050818103600083015261342581856126c1565b90506134346020830184611f75565b9392505050565b600060a0820190506134506000830188611f75565b61345d6020830187611f75565b818103604083015261346f818661275a565b905061347e60608301856122cf565b61348b6080830184611f75565b9695505050505050565b7f4e487b7100000000000000000000000000000000000000000000000000000000600052605160045260246000fdfea2646970667358221220520af14227ef7e6399cec57e2f15db603df5625676612e665a814a10f3d73db364736f6c634300081c0033",
    "linkReferences": {},
    "deployedLinkReferences": {}
}