{
  "_format": "hh-sol-artifact-1",
  "contractName": "AaveArbitrageV1",
  "sourceName": "contracts/AaveArbitrageV1.sol",
  "abi": [
    {
      "inputs": [
        {
          "internalType": "address",
          "name": "_aaveProvider",
          "type": "address"
        },
        {
          "internalType": "uint256",
          "name": "_feePercentage",
          "type": "uint256"
        },
        {
          "internalType": "uint256",
          "name": "_minProfit",
          "type": "uint256"
        },
        {
          "internalType": "uint256",
          "name": "_minSpread",
          "type": "uint256"
        }
      ],
      "stateMutability": "payable",
      "type": "constructor"
    },
    {
      "inputs": [
        {
          "internalType": "address",
          "name": "owner",
          "type": "address"
        }
      ],
      "name": "OwnableInvalidOwner",
      "type": "error"
    },
    {
      "inputs": [
        {
          "internalType": "address",
          "name": "account",
          "type": "address"
        }
      ],
      "name": "OwnableUnauthorizedAccount",
      "type": "error"
    },
    {
      "inputs": [],
      "name": "ReentrancyGuardReentrantCall",
      "type": "error"
    },
    {
      "anonymous": false,
      "inputs": [
        {
          "indexed": true,
          "internalType": "address",
          "name": "token",
          "type": "address"
        },
        {
          "indexed": false,
          "internalType": "uint256",
          "name": "amount",
          "type": "uint256"
        },
        {
          "indexed": false,
          "internalType": "uint256",
          "name": "profit",
          "type": "uint256"
        },
        {
          "indexed": false,
          "internalType": "uint256",
          "name": "timestamp",
          "type": "uint256"
        }
      ],
      "name": "ArbitrageExecuted",
      "type": "event"
    },
    {
      "anonymous": false,
      "inputs": [
        {
          "indexed": true,
          "internalType": "string",
          "name": "dex",
          "type": "string"
        },
        {
          "indexed": false,
          "internalType": "address",
          "name": "router",
          "type": "address"
        }
      ],
      "name": "DexRouterUpdated",
      "type": "event"
    },
    {
      "anonymous": false,
      "inputs": [
        {
          "indexed": false,
          "internalType": "uint256",
          "name": "percentage",
          "type": "uint256"
        }
      ],
      "name": "FeesUpdated",
      "type": "event"
    },
    {
      "anonymous": false,
      "inputs": [
        {
          "indexed": false,
          "internalType": "string",
          "name": "reason",
          "type": "string"
        }
      ],
      "name": "OperationFailed",
      "type": "event"
    },
    {
      "anonymous": false,
      "inputs": [
        {
          "indexed": true,
          "internalType": "address",
          "name": "previousOwner",
          "type": "address"
        },
        {
          "indexed": true,
          "internalType": "address",
          "name": "newOwner",
          "type": "address"
        }
      ],
      "name": "OwnershipTransferred",
      "type": "event"
    },
    {
      "anonymous": false,
      "inputs": [
        {
          "indexed": false,
          "internalType": "uint256",
          "name": "newThreshold",
          "type": "uint256"
        }
      ],
      "name": "ProfitThresholdUpdated",
      "type": "event"
    },
    {
      "inputs": [],
      "name": "ADDRESSES_PROVIDER",
      "outputs": [
        {
          "internalType": "contract IPoolAddressesProvider",
          "name": "",
          "type": "address"
        }
      ],
      "stateMutability": "view",
      "type": "function"
    },
    {
      "inputs": [],
      "name": "POOL",
      "outputs": [
        {
          "internalType": "contract IPool",
          "name": "",
          "type": "address"
        }
      ],
      "stateMutability": "view",
      "type": "function"
    },
    {
      "inputs": [
        {
          "internalType": "string",
          "name": "sourceDex",
          "type": "string"
        },
        {
          "internalType": "string",
          "name": "targetDex",
          "type": "string"
        },
        {
          "internalType": "address[]",
          "name": "path",
          "type": "address[]"
        },
        {
          "internalType": "uint256",
          "name": "amount",
          "type": "uint256"
        },
        {
          "internalType": "uint256",
          "name": "minReturn",
          "type": "uint256"
        }
      ],
      "name": "_executeWithTryCatch",
      "outputs": [],
      "stateMutability": "nonpayable",
      "type": "function"
    },
    {
      "inputs": [
        {
          "internalType": "string",
          "name": "_dexName",
          "type": "string"
        },
        {
          "internalType": "address",
          "name": "_router",
          "type": "address"
        }
      ],
      "name": "configureDex",
      "outputs": [],
      "stateMutability": "nonpayable",
      "type": "function"
    },
    {
      "inputs": [
        {
          "internalType": "string",
          "name": "",
          "type": "string"
        }
      ],
      "name": "dexRouters",
      "outputs": [
        {
          "internalType": "address",
          "name": "",
          "type": "address"
        }
      ],
      "stateMutability": "view",
      "type": "function"
    },
    {
      "inputs": [
        {
          "internalType": "address",
          "name": "_token",
          "type": "address"
        },
        {
          "internalType": "uint256",
          "name": "_amount",
          "type": "uint256"
        },
        {
          "internalType": "string",
          "name": "_sourceDex",
          "type": "string"
        },
        {
          "internalType": "string",
          "name": "_targetDex",
          "type": "string"
        },
        {
          "internalType": "address[]",
          "name": "_path",
          "type": "address[]"
        },
        {
          "internalType": "uint256",
          "name": "_minReturn",
          "type": "uint256"
        }
      ],
      "name": "executeArbitrage",
      "outputs": [],
      "stateMutability": "nonpayable",
      "type": "function"
    },
    {
      "inputs": [
        {
          "internalType": "address",
          "name": "_token",
          "type": "address"
        },
        {
          "internalType": "uint256",
          "name": "_amount",
          "type": "uint256"
        },
        {
          "internalType": "uint256",
          "name": "_premium",
          "type": "uint256"
        },
        {
          "internalType": "address",
          "name": "_initiator",
          "type": "address"
        },
        {
          "internalType": "bytes",
          "name": "_params",
          "type": "bytes"
        }
      ],
      "name": "executeOperation",
      "outputs": [
        {
          "internalType": "bool",
          "name": "",
          "type": "bool"
        }
      ],
      "stateMutability": "nonpayable",
      "type": "function"
    },
    {
      "inputs": [],
      "name": "feePercentage",
      "outputs": [
        {
          "internalType": "uint256",
          "name": "",
          "type": "uint256"
        }
      ],
      "stateMutability": "view",
      "type": "function"
    },
    {
      "inputs": [
        {
          "internalType": "address",
          "name": "_tokenAddress",
          "type": "address"
        }
      ],
      "name": "getBalance",
      "outputs": [
        {
          "internalType": "uint256",
          "name": "",
          "type": "uint256"
        }
      ],
      "stateMutability": "view",
      "type": "function"
    },
    {
      "inputs": [],
      "name": "isPaused",
      "outputs": [
        {
          "internalType": "bool",
          "name": "",
          "type": "bool"
        }
      ],
      "stateMutability": "view",
      "type": "function"
    },
    {
      "inputs": [],
      "name": "minProfitThreshold",
      "outputs": [
        {
          "internalType": "uint256",
          "name": "",
          "type": "uint256"
        }
      ],
      "stateMutability": "view",
      "type": "function"
    },
    {
      "inputs": [],
      "name": "minSpreadThreshold",
      "outputs": [
        {
          "internalType": "uint256",
          "name": "",
          "type": "uint256"
        }
      ],
      "stateMutability": "view",
      "type": "function"
    },
    {
      "inputs": [],
      "name": "owner",
      "outputs": [
        {
          "internalType": "address",
          "name": "",
          "type": "address"
        }
      ],
      "stateMutability": "view",
      "type": "function"
    },
    {
      "inputs": [],
      "name": "renounceOwnership",
      "outputs": [],
      "stateMutability": "nonpayable",
      "type": "function"
    },
    {
      "inputs": [
        {
          "internalType": "address",
          "name": "_token",
          "type": "address"
        }
      ],
      "name": "rescueTokens",
      "outputs": [],
      "stateMutability": "nonpayable",
      "type": "function"
    },
    {
      "inputs": [
        {
          "internalType": "uint256",
          "name": "_profit",
          "type": "uint256"
        },
        {
          "internalType": "uint256",
          "name": "_spread",
          "type": "uint256"
        }
      ],
      "name": "setProfitThresholds",
      "outputs": [],
      "stateMutability": "nonpayable",
      "type": "function"
    },
    {
      "inputs": [
        {
          "internalType": "address",
          "name": "_token",
          "type": "address"
        },
        {
          "internalType": "uint256",
          "name": "_amount",
          "type": "uint256"
        },
        {
          "internalType": "string",
          "name": "_sourceDex",
          "type": "string"
        },
        {
          "internalType": "string",
          "name": "_targetDex",
          "type": "string"
        },
        {
          "internalType": "address[]",
          "name": "_path",
          "type": "address[]"
        }
      ],
      "name": "simulateArbitrage",
      "outputs": [
        {
          "internalType": "bool",
          "name": "profitable",
          "type": "bool"
        },
        {
          "internalType": "uint256",
          "name": "potentialProfit",
          "type": "uint256"
        },
        {
          "internalType": "uint256",
          "name": "spreadBP",
          "type": "uint256"
        }
      ],
      "stateMutability": "view",
      "type": "function"
    },
    {
      "inputs": [],
      "name": "togglePause",
      "outputs": [],
      "stateMutability": "nonpayable",
      "type": "function"
    },
    {
      "inputs": [
        {
          "internalType": "address",
          "name": "newOwner",
          "type": "address"
        }
      ],
      "name": "transferOwnership",
      "outputs": [],
      "stateMutability": "nonpayable",
      "type": "function"
    },
    {
      "stateMutability": "payable",
      "type": "receive"
    }
  ],
  "bytecode": "0x60c060405260405161372638038061372683398181016040528101906100259190610302565b33848073ffffffffffffffffffffffffffffffffffffffff1660808173ffffffffffffffffffffffffffffffffffffffff16815250508073ffffffffffffffffffffffffffffffffffffffff1663026b1d5f6040518163ffffffff1660e01b8152600401602060405180830381865afa1580156100a6573d6000803e3d6000fd5b505050506040513d601f19601f820116820180604052508101906100ca9190610369565b73ffffffffffffffffffffffffffffffffffffffff1660a08173ffffffffffffffffffffffffffffffffffffffff168152505050600073ffffffffffffffffffffffffffffffffffffffff168173ffffffffffffffffffffffffffffffffffffffff16036101705760006040517f1e4fbdf700000000000000000000000000000000000000000000000000000000815260040161016791906103a5565b60405180910390fd5b61017f816101a560201b60201c565b5060018081905550826005819055508160038190555080600481905550505050506103c0565b60008060009054906101000a900473ffffffffffffffffffffffffffffffffffffffff169050816000806101000a81548173ffffffffffffffffffffffffffffffffffffffff021916908373ffffffffffffffffffffffffffffffffffffffff1602179055508173ffffffffffffffffffffffffffffffffffffffff168173ffffffffffffffffffffffffffffffffffffffff167f8be0079c531659141344cd1fd0a4f28419497f9722a3daafe3b4186f6b6457e060405160405180910390a35050565b600080fd5b600073ffffffffffffffffffffffffffffffffffffffff82169050919050565b60006102998261026e565b9050919050565b6102a98161028e565b81146102b457600080fd5b50565b6000815190506102c6816102a0565b92915050565b6000819050919050565b6102df816102cc565b81146102ea57600080fd5b50565b6000815190506102fc816102d6565b92915050565b6000806000806080858703121561031c5761031b610269565b5b600061032a878288016102b7565b945050602061033b878288016102ed565b935050604061034c878288016102ed565b925050606061035d878288016102ed565b91505092959194509250565b60006020828403121561037f5761037e610269565b5b600061038d848285016102b7565b91505092915050565b61039f8161028e565b82525050565b60006020820190506103ba6000830184610396565b92915050565b60805160a051613325610401600039600081816105a20152818161082501528181610abb01528181610c4101526110c10152600061057c01526133256000f3fe6080604052600436106101175760003560e01c80637341ab8c116100a0578063b187bd2611610064578063b187bd2614610399578063c4ae3168146103c4578063d26f0cd0146103db578063f2fde38b14610404578063f8b2cb4f1461042d5761011e565b80637341ab8c146102c45780637535d246146102ef5780638da5cb5b1461031a5780639e537bea14610345578063a001ecdd1461036e5761011e565b8063329af636116100e7578063329af636146101f35780633bc26c211461021e57806358c9ea7f146102475780635e7ffa6714610270578063715018a6146102ad5761011e565b8062ae3bf8146101235780630542975c1461014c5780631b11d0ff146101775780631ce57d72146101b45761011e565b3661011e57005b600080fd5b34801561012f57600080fd5b5061014a60048036038101906101459190611ad2565b61046a565b005b34801561015857600080fd5b5061016161057a565b60405161016e9190611b5e565b60405180910390f35b34801561018357600080fd5b5061019e60048036038101906101999190611c14565b61059e565b6040516101ab9190611cc9565b60405180910390f35b3480156101c057600080fd5b506101db60048036038101906101d69190611d90565b6108bb565b6040516101ea93929190611e7b565b60405180910390f35b3480156101ff57600080fd5b50610208610a45565b6040516102159190611eb2565b60405180910390f35b34801561022a57600080fd5b5061024560048036038101906102409190611ecd565b610a4b565b005b34801561025357600080fd5b5061026e60048036038101906102699190611fbc565b610b8b565b005b34801561027c57600080fd5b506102976004803603810190610292919061213d565b610bdc565b6040516102a49190612195565b60405180910390f35b3480156102b957600080fd5b506102c2610c25565b005b3480156102d057600080fd5b506102d9610c39565b6040516102e69190611eb2565b60405180910390f35b3480156102fb57600080fd5b50610304610c3f565b60405161031191906121d1565b60405180910390f35b34801561032657600080fd5b5061032f610c63565b60405161033c9190612195565b60405180910390f35b34801561035157600080fd5b5061036c600480360381019061036791906122af565b610c8c565b005b34801561037a57600080fd5b50610383610d0e565b6040516103909190611eb2565b60405180910390f35b3480156103a557600080fd5b506103ae610d14565b6040516103bb9190611cc9565b60405180910390f35b3480156103d057600080fd5b506103d9610d27565b005b3480156103e757600080fd5b5061040260048036038101906103fd919061237e565b610d5b565b005b34801561041057600080fd5b5061042b60048036038101906104269190611ad2565b610e85565b005b34801561043957600080fd5b50610454600480360381019061044f9190611ad2565b610f0b565b6040516104619190611eb2565b60405180910390f35b610472610f8e565b60008173ffffffffffffffffffffffffffffffffffffffff166370a08231306040518263ffffffff1660e01b81526004016104ad9190612195565b602060405180830381865afa1580156104ca573d6000803e3d6000fd5b505050506040513d601f19601f820116820180604052508101906104ee91906123f3565b90508173ffffffffffffffffffffffffffffffffffffffff1663a9059cbb610514610c63565b836040518363ffffffff1660e01b8152600401610532929190612420565b6020604051808303816000875af1158015610551573d6000803e3d6000fd5b505050506040513d601f19601f820116820180604052508101906105759190612475565b505050565b7f000000000000000000000000000000000000000000000000000000000000000081565b60007f000000000000000000000000000000000000000000000000000000000000000073ffffffffffffffffffffffffffffffffffffffff163373ffffffffffffffffffffffffffffffffffffffff161461062e576040517f08c379a0000000000000000000000000000000000000000000000000000000008152600401610625906124ff565b60405180910390fd5b60008773ffffffffffffffffffffffffffffffffffffffff166370a08231306040518263ffffffff1660e01b81526004016106699190612195565b602060405180830381865afa158015610686573d6000803e3d6000fd5b505050506040513d601f19601f820116820180604052508101906106aa91906123f3565b905060008060008087878101906106c1919061251f565b93509350935093503073ffffffffffffffffffffffffffffffffffffffff16639e537bea8585858f866040518663ffffffff1660e01b815260040161070a959493929190612706565b600060405180830381600087803b15801561072457600080fd5b505af1925050508015610735575060015b6107eb5761074161277b565b806308c379a0036107a6575061075561279d565b8061076057506107a8565b7f30024b247c7fb2eb5c560ad78987e1319ca2813e167ae8483d4a6f60517bd8998160405161078f919061282d565b60405180910390a1600096505050505050506108b1565b505b7f30024b247c7fb2eb5c560ad78987e1319ca2813e167ae8483d4a6f60517bd8996040516107d59061289b565b60405180910390a16000955050505050506108b1565b6107f78c8c8c88611015565b60008a8c61080591906128ea565b90508c73ffffffffffffffffffffffffffffffffffffffff1663095ea7b37f0000000000000000000000000000000000000000000000000000000000000000836040518363ffffffff1660e01b8152600401610862929190612420565b6020604051808303816000875af1158015610881573d6000803e3d6000fd5b505050506040513d601f19601f820116820180604052508101906108a59190612475565b50600196505050505050505b9695505050505050565b60008060006108ce85858b8b8b8b611235565b8a73ffffffffffffffffffffffffffffffffffffffff16858560008181106108f9576108f861291e565b5b905060200201602081019061090e9190611ad2565b73ffffffffffffffffffffffffffffffffffffffff1614610964576040517f08c379a000000000000000000000000000000000000000000000000000000000815260040161095b906129bf565b60405180910390fd5b600061096f8b6113e1565b8b61097a91906128ea565b905060006109cb8b8b8e8a8a80806020026020016040519081016040528093929190818152602001838360200280828437600081840152601f19601f82011690508083019250505050505050611404565b9050610a22898983610a1d8b8b80806020026020016040519081016040528093929190818152602001838360200280828437600081840152601f19601f8201169050808301925050505050505061156c565b611404565b9050610a2f81838e61165f565b9450945094505050985098509895505050505050565b60045481565b610a53610f8e565b600260009054906101000a900460ff1615610aa3576040517f08c379a0000000000000000000000000000000000000000000000000000000008152600401610a9a90612a2b565b60405180910390fd5b610aab6116d1565b610ab9838389898989611235565b7f000000000000000000000000000000000000000000000000000000000000000073ffffffffffffffffffffffffffffffffffffffff166342b0b77c308b8b8b8b8b8b8b8b8b604051602001610b159796959493929190612b03565b60405160208183030381529060405260006040518663ffffffff1660e01b8152600401610b46959493929190612c01565b600060405180830381600087803b158015610b6057600080fd5b505af1158015610b74573d6000803e3d6000fd5b50505050610b80611717565b505050505050505050565b610b93610f8e565b81600381905550806004819055507fc5023cc86199e71ca52157b0b124ddbda596c9fb8bab5bb7028d162fa3ed554582604051610bd09190611eb2565b60405180910390a15050565b6006818051602081018201805184825260208301602085012081835280955050505050506000915054906101000a900473ffffffffffffffffffffffffffffffffffffffff1681565b610c2d610f8e565b610c376000611720565b565b60035481565b7f000000000000000000000000000000000000000000000000000000000000000081565b60008060009054906101000a900473ffffffffffffffffffffffffffffffffffffffff16905090565b3073ffffffffffffffffffffffffffffffffffffffff163373ffffffffffffffffffffffffffffffffffffffff1614610cfa576040517f08c379a0000000000000000000000000000000000000000000000000000000008152600401610cf190612ca7565b60405180910390fd5b610d0785858585856117e4565b5050505050565b60055481565b600260009054906101000a900460ff1681565b610d2f610f8e565b600260009054906101000a900460ff1615600260006101000a81548160ff021916908315150217905550565b610d63610f8e565b600073ffffffffffffffffffffffffffffffffffffffff168173ffffffffffffffffffffffffffffffffffffffff1603610dd2576040517f08c379a0000000000000000000000000000000000000000000000000000000008152600401610dc990612d13565b60405180910390fd5b8060068484604051610de5929190612d63565b908152602001604051809103902060006101000a81548173ffffffffffffffffffffffffffffffffffffffff021916908373ffffffffffffffffffffffffffffffffffffffff1602179055508282604051610e41929190612d63565b60405180910390207fcd9eb1d8eaef2a7a704d54b38f07db521cfe05cff25c1a73f862370c47a2f4e482604051610e789190612195565b60405180910390a2505050565b610e8d610f8e565b600073ffffffffffffffffffffffffffffffffffffffff168173ffffffffffffffffffffffffffffffffffffffff1603610eff5760006040517f1e4fbdf7000000000000000000000000000000000000000000000000000000008152600401610ef69190612195565b60405180910390fd5b610f0881611720565b50565b60008173ffffffffffffffffffffffffffffffffffffffff166370a08231306040518263ffffffff1660e01b8152600401610f469190612195565b602060405180830381865afa158015610f63573d6000803e3d6000fd5b505050506040513d601f19601f82011682018060405250810190610f8791906123f3565b9050919050565b610f9661192e565b73ffffffffffffffffffffffffffffffffffffffff16610fb4610c63565b73ffffffffffffffffffffffffffffffffffffffff161461101357610fd761192e565b6040517f118cdaa700000000000000000000000000000000000000000000000000000000815260040161100a9190612195565b60405180910390fd5b565b60008473ffffffffffffffffffffffffffffffffffffffff166370a08231306040518263ffffffff1660e01b81526004016110509190612195565b602060405180830381865afa15801561106d573d6000803e3d6000fd5b505050506040513d601f19601f8201168201806040525081019061109191906123f3565b9050600083856110a191906128ea565b90508573ffffffffffffffffffffffffffffffffffffffff1663095ea7b37f0000000000000000000000000000000000000000000000000000000000000000836040518363ffffffff1660e01b81526004016110fe929190612420565b6020604051808303816000875af115801561111d573d6000803e3d6000fd5b505050506040513d601f19601f820116820180604052508101906111419190612475565b5080821015611185576040517f08c379a000000000000000000000000000000000000000000000000000000000815260040161117c90612dc8565b60405180910390fd5b600081836111939190612de8565b90506003548110156111da576040517f08c379a00000000000000000000000000000000000000000000000000000000081526004016111d190612e68565b60405180910390fd5b8673ffffffffffffffffffffffffffffffffffffffff167fac5e73d65c7df1a72a57e0d680767c7e764095957ee44ec036b761799b56afd287834260405161122493929190612e88565b60405180910390a250505050505050565b6002868690501461127b576040517f08c379a000000000000000000000000000000000000000000000000000000000815260040161127290612f0b565b60405180910390fd5b600073ffffffffffffffffffffffffffffffffffffffff16600685856040516112a5929190612d63565b908152602001604051809103902060009054906101000a900473ffffffffffffffffffffffffffffffffffffffff1673ffffffffffffffffffffffffffffffffffffffff160361132a576040517f08c379a000000000000000000000000000000000000000000000000000000000815260040161132190612f77565b60405180910390fd5b600073ffffffffffffffffffffffffffffffffffffffff1660068383604051611354929190612d63565b908152602001604051809103902060009054906101000a900473ffffffffffffffffffffffffffffffffffffffff1673ffffffffffffffffffffffffffffffffffffffff16036113d9576040517f08c379a00000000000000000000000000000000000000000000000000000000081526004016113d090612fe3565b60405180910390fd5b505050505050565b60006127106009836113f39190613003565b6113fd9190613074565b9050919050565b60008060068686604051611419929190612d63565b908152602001604051809103902060009054906101000a900473ffffffffffffffffffffffffffffffffffffffff169050600073ffffffffffffffffffffffffffffffffffffffff168173ffffffffffffffffffffffffffffffffffffffff16036114b9576040517f08c379a00000000000000000000000000000000000000000000000000000000081526004016114b0906130f1565b60405180910390fd5b8073ffffffffffffffffffffffffffffffffffffffff1663d06ca61f85856040518363ffffffff1660e01b81526004016114f4929190613111565b600060405180830381865afa158015611511573d6000803e3d6000fd5b505050506040513d6000823e3d601f19601f8201168201806040525081019061153a9190613204565b600184516115489190612de8565b815181106115595761155861291e565b5b6020026020010151915050949350505050565b60606000825167ffffffffffffffff81111561158b5761158a612012565b5b6040519080825280602002602001820160405280156115b95781602001602082028036833780820191505090505b50905060005b8351811015611655578381600186516115d89190612de8565b6115e29190612de8565b815181106115f3576115f261291e565b5b602002602001015182828151811061160e5761160d61291e565b5b602002602001019073ffffffffffffffffffffffffffffffffffffffff16908173ffffffffffffffffffffffffffffffffffffffff168152505080806001019150506115bf565b5080915050919050565b600080600080858711611673576000611680565b858761167f9190612de8565b5b9050600085612710888a6116949190612de8565b61169e9190613003565b6116a89190613074565b905060035482101580156116be57506004548110155b8282945094509450505093509350939050565b60026001540361170d576040517f3ee5aeb500000000000000000000000000000000000000000000000000000000815260040160405180910390fd5b6002600181905550565b60018081905550565b60008060009054906101000a900473ffffffffffffffffffffffffffffffffffffffff169050816000806101000a81548173ffffffffffffffffffffffffffffffffffffffff021916908373ffffffffffffffffffffffffffffffffffffffff1602179055508173ffffffffffffffffffffffffffffffffffffffff168173ffffffffffffffffffffffffffffffffffffffff167f8be0079c531659141344cd1fd0a4f28419497f9722a3daafe3b4186f6b6457e060405160405180910390a35050565b60006006866040516117f6919061327e565b908152602001604051809103902060009054906101000a900473ffffffffffffffffffffffffffffffffffffffff1690506000600686604051611839919061327e565b908152602001604051809103902060009054906101000a900473ffffffffffffffffffffffffffffffffffffffff1690506118778286866000611936565b60008560018151811061188d5761188c61291e565b5b602002602001015173ffffffffffffffffffffffffffffffffffffffff166370a08231306040518263ffffffff1660e01b81526004016118cd9190612195565b602060405180830381865afa1580156118ea573d6000803e3d6000fd5b505050506040513d601f19601f8201168201806040525081019061190e91906123f3565b90506119248261191d8861156c565b8387611936565b5050505050505050565b600033905090565b8260008151811061194a5761194961291e565b5b602002602001015173ffffffffffffffffffffffffffffffffffffffff1663095ea7b385846040518363ffffffff1660e01b815260040161198c929190612420565b6020604051808303816000875af11580156119ab573d6000803e3d6000fd5b505050506040513d601f19601f820116820180604052508101906119cf9190612475565b508373ffffffffffffffffffffffffffffffffffffffff166338ed173983838630426040518663ffffffff1660e01b8152600401611a11959493929190613295565b6000604051808303816000875af1158015611a30573d6000803e3d6000fd5b505050506040513d6000823e3d601f19601f82011682018060405250810190611a599190613204565b5050505050565b6000604051905090565b600080fd5b600080fd5b600073ffffffffffffffffffffffffffffffffffffffff82169050919050565b6000611a9f82611a74565b9050919050565b611aaf81611a94565b8114611aba57600080fd5b50565b600081359050611acc81611aa6565b92915050565b600060208284031215611ae857611ae7611a6a565b5b6000611af684828501611abd565b91505092915050565b6000819050919050565b6000611b24611b1f611b1a84611a74565b611aff565b611a74565b9050919050565b6000611b3682611b09565b9050919050565b6000611b4882611b2b565b9050919050565b611b5881611b3d565b82525050565b6000602082019050611b736000830184611b4f565b92915050565b6000819050919050565b611b8c81611b79565b8114611b9757600080fd5b50565b600081359050611ba981611b83565b92915050565b600080fd5b600080fd5b600080fd5b60008083601f840112611bd457611bd3611baf565b5b8235905067ffffffffffffffff811115611bf157611bf0611bb4565b5b602083019150836001820283011115611c0d57611c0c611bb9565b5b9250929050565b60008060008060008060a08789031215611c3157611c30611a6a565b5b6000611c3f89828a01611abd565b9650506020611c5089828a01611b9a565b9550506040611c6189828a01611b9a565b9450506060611c7289828a01611abd565b935050608087013567ffffffffffffffff811115611c9357611c92611a6f565b5b611c9f89828a01611bbe565b92509250509295509295509295565b60008115159050919050565b611cc381611cae565b82525050565b6000602082019050611cde6000830184611cba565b92915050565b60008083601f840112611cfa57611cf9611baf565b5b8235905067ffffffffffffffff811115611d1757611d16611bb4565b5b602083019150836001820283011115611d3357611d32611bb9565b5b9250929050565b60008083601f840112611d5057611d4f611baf565b5b8235905067ffffffffffffffff811115611d6d57611d6c611bb4565b5b602083019150836020820283011115611d8957611d88611bb9565b5b9250929050565b60008060008060008060008060a0898b031215611db057611daf611a6a565b5b6000611dbe8b828c01611abd565b9850506020611dcf8b828c01611b9a565b975050604089013567ffffffffffffffff811115611df057611def611a6f565b5b611dfc8b828c01611ce4565b9650965050606089013567ffffffffffffffff811115611e1f57611e1e611a6f565b5b611e2b8b828c01611ce4565b9450945050608089013567ffffffffffffffff811115611e4e57611e4d611a6f565b5b611e5a8b828c01611d3a565b92509250509295985092959890939650565b611e7581611b79565b82525050565b6000606082019050611e906000830186611cba565b611e9d6020830185611e6c565b611eaa6040830184611e6c565b949350505050565b6000602082019050611ec76000830184611e6c565b92915050565b600080600080600080600080600060c08a8c031215611eef57611eee611a6a565b5b6000611efd8c828d01611abd565b9950506020611f0e8c828d01611b9a565b98505060408a013567ffffffffffffffff811115611f2f57611f2e611a6f565b5b611f3b8c828d01611ce4565b975097505060608a013567ffffffffffffffff811115611f5e57611f5d611a6f565b5b611f6a8c828d01611ce4565b955095505060808a013567ffffffffffffffff811115611f8d57611f8c611a6f565b5b611f998c828d01611d3a565b935093505060a0611fac8c828d01611b9a565b9150509295985092959850929598565b60008060408385031215611fd357611fd2611a6a565b5b6000611fe185828601611b9a565b9250506020611ff285828601611b9a565b9150509250929050565b600080fd5b6000601f19601f8301169050919050565b7f4e487b7100000000000000000000000000000000000000000000000000000000600052604160045260246000fd5b61204a82612001565b810181811067ffffffffffffffff8211171561206957612068612012565b5b80604052505050565b600061207c611a60565b90506120888282612041565b919050565b600067ffffffffffffffff8211156120a8576120a7612012565b5b6120b182612001565b9050602081019050919050565b82818337600083830152505050565b60006120e06120db8461208d565b612072565b9050828152602081018484840111156120fc576120fb611ffc565b5b6121078482856120be565b509392505050565b600082601f83011261212457612123611baf565b5b81356121348482602086016120cd565b91505092915050565b60006020828403121561215357612152611a6a565b5b600082013567ffffffffffffffff81111561217157612170611a6f565b5b61217d8482850161210f565b91505092915050565b61218f81611a94565b82525050565b60006020820190506121aa6000830184612186565b92915050565b60006121bb82611b2b565b9050919050565b6121cb816121b0565b82525050565b60006020820190506121e660008301846121c2565b92915050565b600067ffffffffffffffff82111561220757612206612012565b5b602082029050602081019050919050565b600061222b612226846121ec565b612072565b9050808382526020820190506020840283018581111561224e5761224d611bb9565b5b835b8181101561227757806122638882611abd565b845260208401935050602081019050612250565b5050509392505050565b600082601f83011261229657612295611baf565b5b81356122a6848260208601612218565b91505092915050565b600080600080600060a086880312156122cb576122ca611a6a565b5b600086013567ffffffffffffffff8111156122e9576122e8611a6f565b5b6122f58882890161210f565b955050602086013567ffffffffffffffff81111561231657612315611a6f565b5b6123228882890161210f565b945050604086013567ffffffffffffffff81111561234357612342611a6f565b5b61234f88828901612281565b935050606061236088828901611b9a565b925050608061237188828901611b9a565b9150509295509295909350565b60008060006040848603121561239757612396611a6a565b5b600084013567ffffffffffffffff8111156123b5576123b4611a6f565b5b6123c186828701611ce4565b935093505060206123d486828701611abd565b9150509250925092565b6000815190506123ed81611b83565b92915050565b60006020828403121561240957612408611a6a565b5b6000612417848285016123de565b91505092915050565b60006040820190506124356000830185612186565b6124426020830184611e6c565b9392505050565b61245281611cae565b811461245d57600080fd5b50565b60008151905061246f81612449565b92915050565b60006020828403121561248b5761248a611a6a565b5b600061249984828501612460565b91505092915050565b600082825260208201905092915050565b7f556e617574686f72697a65642063616c6c657200000000000000000000000000600082015250565b60006124e96013836124a2565b91506124f4826124b3565b602082019050919050565b60006020820190508181036000830152612518816124dc565b9050919050565b6000806000806080858703121561253957612538611a6a565b5b600085013567ffffffffffffffff81111561255757612556611a6f565b5b6125638782880161210f565b945050602085013567ffffffffffffffff81111561258457612583611a6f565b5b6125908782880161210f565b935050604085013567ffffffffffffffff8111156125b1576125b0611a6f565b5b6125bd87828801612281565b92505060606125ce87828801611b9a565b91505092959194509250565b600081519050919050565b60005b838110156126035780820151818401526020810190506125e8565b60008484015250505050565b600061261a826125da565b61262481856124a2565b93506126348185602086016125e5565b61263d81612001565b840191505092915050565b600081519050919050565b600082825260208201905092915050565b6000819050602082019050919050565b61267d81611a94565b82525050565b600061268f8383612674565b60208301905092915050565b6000602082019050919050565b60006126b382612648565b6126bd8185612653565b93506126c883612664565b8060005b838110156126f95781516126e08882612683565b97506126eb8361269b565b9250506001810190506126cc565b5085935050505092915050565b600060a0820190508181036000830152612720818861260f565b90508181036020830152612734818761260f565b9050818103604083015261274881866126a8565b90506127576060830185611e6c565b6127646080830184611e6c565b9695505050505050565b60008160e01c9050919050565b600060033d111561279a5760046000803e61279760005161276e565b90505b90565b600060443d1061282a576127af611a60565b60043d036004823e80513d602482011167ffffffffffffffff821117156127d757505061282a565b808201805167ffffffffffffffff8111156127f5575050505061282a565b80602083010160043d03850181111561281257505050505061282a565b61282182602001850186612041565b82955050505050505b90565b60006020820190508181036000830152612847818461260f565b905092915050565b7f556e6b6e6f776e206572726f7200000000000000000000000000000000000000600082015250565b6000612885600d836124a2565b91506128908261284f565b602082019050919050565b600060208201905081810360008301526128b481612878565b9050919050565b7f4e487b7100000000000000000000000000000000000000000000000000000000600052601160045260246000fd5b60006128f582611b79565b915061290083611b79565b9250828201905080821115612918576129176128bb565b5b92915050565b7f4e487b7100000000000000000000000000000000000000000000000000000000600052603260045260246000fd5b7f466972737420746f6b656e206d75737420626520626f72726f77656420746f6b60008201527f656e000000000000000000000000000000000000000000000000000000000000602082015250565b60006129a96022836124a2565b91506129b48261294d565b604082019050919050565b600060208201905081810360008301526129d88161299c565b9050919050565b7f436f6e7472616374207061757365640000000000000000000000000000000000600082015250565b6000612a15600f836124a2565b9150612a20826129df565b602082019050919050565b60006020820190508181036000830152612a4481612a08565b9050919050565b6000612a5783856124a2565b9350612a648385846120be565b612a6d83612001565b840190509392505050565b6000819050919050565b6000612a916020840184611abd565b905092915050565b6000602082019050919050565b6000612ab28385612653565b9350612abd82612a78565b8060005b85811015612af657612ad38284612a82565b612add8882612683565b9750612ae883612a99565b925050600181019050612ac1565b5085925050509392505050565b60006080820190508181036000830152612b1e81898b612a4b565b90508181036020830152612b33818789612a4b565b90508181036040830152612b48818587612aa6565b9050612b576060830184611e6c565b98975050505050505050565b600081519050919050565b600082825260208201905092915050565b6000612b8a82612b63565b612b948185612b6e565b9350612ba48185602086016125e5565b612bad81612001565b840191505092915050565b6000819050919050565b600061ffff82169050919050565b6000612beb612be6612be184612bb8565b611aff565b612bc2565b9050919050565b612bfb81612bd0565b82525050565b600060a082019050612c166000830188612186565b612c236020830187612186565b612c306040830186611e6c565b8181036060830152612c428185612b7f565b9050612c516080830184612bf2565b9695505050505050565b7f496e7465726e616c2063616c6c206f6e6c790000000000000000000000000000600082015250565b6000612c916012836124a2565b9150612c9c82612c5b565b602082019050919050565b60006020820190508181036000830152612cc081612c84565b9050919050565b7f496e76616c696420726f75746572206164647265737300000000000000000000600082015250565b6000612cfd6016836124a2565b9150612d0882612cc7565b602082019050919050565b60006020820190508181036000830152612d2c81612cf0565b9050919050565b600081905092915050565b6000612d4a8385612d33565b9350612d578385846120be565b82840190509392505050565b6000612d70828486612d3e565b91508190509392505050565b7f496e73756666696369656e742072657061796d656e7400000000000000000000600082015250565b6000612db26016836124a2565b9150612dbd82612d7c565b602082019050919050565b60006020820190508181036000830152612de181612da5565b9050919050565b6000612df382611b79565b9150612dfe83611b79565b9250828203905081811115612e1657612e156128bb565b5b92915050565b7f50726f6669742062656c6f77206d696e696d756d000000000000000000000000600082015250565b6000612e526014836124a2565b9150612e5d82612e1c565b602082019050919050565b60006020820190508181036000830152612e8181612e45565b9050919050565b6000606082019050612e9d6000830186611e6c565b612eaa6020830185611e6c565b612eb76040830184611e6c565b949350505050565b7f53696d706c65206172626974726167652070617468206f6e6c79000000000000600082015250565b6000612ef5601a836124a2565b9150612f0082612ebf565b602082019050919050565b60006020820190508181036000830152612f2481612ee8565b9050919050565b7f536f7572636520444558206e6f7420636f6e6669677572656400000000000000600082015250565b6000612f616019836124a2565b9150612f6c82612f2b565b602082019050919050565b60006020820190508181036000830152612f9081612f54565b9050919050565b7f54617267657420444558206e6f7420636f6e6669677572656400000000000000600082015250565b6000612fcd6019836124a2565b9150612fd882612f97565b602082019050919050565b60006020820190508181036000830152612ffc81612fc0565b9050919050565b600061300e82611b79565b915061301983611b79565b925082820261302781611b79565b9150828204841483151761303e5761303d6128bb565b5b5092915050565b7f4e487b7100000000000000000000000000000000000000000000000000000000600052601260045260246000fd5b600061307f82611b79565b915061308a83611b79565b92508261309a57613099613045565b5b828204905092915050565b7f444558206e6f7420636f6e666967757265640000000000000000000000000000600082015250565b60006130db6012836124a2565b91506130e6826130a5565b602082019050919050565b6000602082019050818103600083015261310a816130ce565b9050919050565b60006040820190506131266000830185611e6c565b818103602083015261313881846126a8565b90509392505050565b600067ffffffffffffffff82111561315c5761315b612012565b5b602082029050602081019050919050565b600061318061317b84613141565b612072565b905080838252602082019050602084028301858111156131a3576131a2611bb9565b5b835b818110156131cc57806131b888826123de565b8452602084019350506020810190506131a5565b5050509392505050565b600082601f8301126131eb576131ea611baf565b5b81516131fb84826020860161316d565b91505092915050565b60006020828403121561321a57613219611a6a565b5b600082015167ffffffffffffffff81111561323857613237611a6f565b5b613244848285016131d6565b91505092915050565b6000613258826125da565b6132628185612d33565b93506132728185602086016125e5565b80840191505092915050565b600061328a828461324d565b915081905092915050565b600060a0820190506132aa6000830188611e6c565b6132b76020830187611e6c565b81810360408301526132c981866126a8565b90506132d86060830185612186565b6132e56080830184611e6c565b969550505050505056fea26469706673582212202f9053b04c59d3a4939db6b92bc77d872f934e6614f06171336e5b913ccfbcae64736f6c634300081c0033",
  "linkReferences": {},
  "deployedLinkReferences": {}
}