{"contracts/AaveArbitrageV1.sol":{"AaveArbitrageV1":{"abi":[{"inputs":[{"internalType":"address","name":"_aaveProvider","type":"address"},{"internalType":"address","name":"_feeCollector","type":"address"},{"internalType":"uint256","name":"_feePercentage","type":"uint256"},{"internalType":"uint256","name":"_minProfit","type":"uint256"},{"internalType":"uint256","name":"_minSpread","type":"uint256"}],"stateMutability":"payable","type":"constructor"},{"inputs":[{"internalType":"address","name":"owner","type":"address"}],"name":"OwnableInvalidOwner","type":"error"},{"inputs":[{"internalType":"address","name":"account","type":"address"}],"name":"OwnableUnauthorizedAccount","type":"error"},{"inputs":[],"name":"ReentrancyGuardReentrantCall","type":"error"},{"anonymous":false,"inputs":[{"indexed":true,"internalType":"address","name":"token","type":"address"},{"indexed":false,"internalType":"uint256","name":"amount","type":"uint256"},{"indexed":false,"internalType":"uint256","name":"profit","type":"uint256"},{"indexed":false,"internalType":"uint256","name":"timestamp","type":"uint256"}],"name":"ArbitrageExecuted","type":"event"},{"anonymous":false,"inputs":[{"indexed":true,"internalType":"string","name":"dex","type":"string"},{"indexed":false,"internalType":"address","name":"router","type":"address"}],"name":"DexRouterUpdated","type":"event"},{"anonymous":false,"inputs":[{"indexed":false,"internalType":"address","name":"collector","type":"address"},{"indexed":false,"internalType":"uint256","name":"percentage","type":"uint256"}],"name":"FeesUpdated","type":"event"},{"anonymous":false,"inputs":[{"indexed":false,"internalType":"string","name":"reason","type":"string"}],"name":"OperationFailed","type":"event"},{"anonymous":false,"inputs":[{"indexed":true,"internalType":"address","name":"previousOwner","type":"address"},{"indexed":true,"internalType":"address","name":"newOwner","type":"address"}],"name":"OwnershipTransferred","type":"event"},{"anonymous":false,"inputs":[{"indexed":false,"internalType":"uint256","name":"newThreshold","type":"uint256"}],"name":"ProfitThresholdUpdated","type":"event"},{"inputs":[],"name":"ADDRESSES_PROVIDER","outputs":[{"internalType":"contract IPoolAddressesProvider","name":"","type":"address"}],"stateMutability":"view","type":"function"},{"inputs":[],"name":"POOL","outputs":[{"internalType":"contract IPool","name":"","type":"address"}],"stateMutability":"view","type":"function"},{"inputs":[{"internalType":"string","name":"sourceDex","type":"string"},{"internalType":"string","name":"targetDex","type":"string"},{"internalType":"address[]","name":"path","type":"address[]"},{"internalType":"uint256","name":"amount","type":"uint256"},{"internalType":"uint256","name":"minReturn","type":"uint256"}],"name":"_executeWithTryCatch","outputs":[],"stateMutability":"nonpayable","type":"function"},{"inputs":[{"internalType":"string","name":"_dexName","type":"string"},{"internalType":"address","name":"_router","type":"address"}],"name":"configureDex","outputs":[],"stateMutability":"nonpayable","type":"function"},{"inputs":[{"internalType":"string","name":"","type":"string"}],"name":"dexRouters","outputs":[{"internalType":"address","name":"","type":"address"}],"stateMutability":"view","type":"function"},{"inputs":[{"internalType":"address","name":"_token","type":"address"},{"internalType":"uint256","name":"_amount","type":"uint256"},{"internalType":"string","name":"_sourceDex","type":"string"},{"internalType":"string","name":"_targetDex","type":"string"},{"internalType":"address[]","name":"_path","type":"address[]"},{"internalType":"uint256","name":"_minReturn","type":"uint256"}],"name":"executeArbitrage","outputs":[],"stateMutability":"nonpayable","type":"function"},{"inputs":[{"internalType":"address","name":"_token","type":"address"},{"internalType":"uint256","name":"_amount","type":"uint256"},{"internalType":"uint256","name":"_premium","type":"uint256"},{"internalType":"address","name":"_initiator","type":"address"},{"internalType":"bytes","name":"_params","type":"bytes"}],"name":"executeOperation","outputs":[{"internalType":"bool","name":"","type":"bool"}],"stateMutability":"nonpayable","type":"function"},{"inputs":[],"name":"feeCollector","outputs":[{"internalType":"address","name":"","type":"address"}],"stateMutability":"view","type":"function"},{"inputs":[],"name":"feePercentage","outputs":[{"internalType":"uint256","name":"","type":"uint256"}],"stateMutability":"view","type":"function"},{"inputs":[{"internalType":"address","name":"_tokenAddress","type":"address"}],"name":"getBalance","outputs":[{"internalType":"uint256","name":"","type":"uint256"}],"stateMutability":"view","type":"function"},{"inputs":[],"name":"isPaused","outputs":[{"internalType":"bool","name":"","type":"bool"}],"stateMutability":"view","type":"function"},{"inputs":[],"name":"minProfitThreshold","outputs":[{"internalType":"uint256","name":"","type":"uint256"}],"stateMutability":"view","type":"function"},{"inputs":[],"name":"minSpreadThreshold","outputs":[{"internalType":"uint256","name":"","type":"uint256"}],"stateMutability":"view","type":"function"},{"inputs":[],"name":"owner","outputs":[{"internalType":"address","name":"","type":"address"}],"stateMutability":"view","type":"function"},{"inputs":[],"name":"renounceOwnership","outputs":[],"stateMutability":"nonpayable","type":"function"},{"inputs":[{"internalType":"address","name":"_token","type":"address"}],"name":"rescueTokens","outputs":[],"stateMutability":"nonpayable","type":"function"},{"inputs":[{"internalType":"uint256","name":"_profit","type":"uint256"},{"internalType":"uint256","name":"_spread","type":"uint256"}],"name":"setProfitThresholds","outputs":[],"stateMutability":"nonpayable","type":"function"},{"inputs":[{"internalType":"address","name":"_token","type":"address"},{"internalType":"uint256","name":"_amount","type":"uint256"},{"internalType":"string","name":"_sourceDex","type":"string"},{"internalType":"string","name":"_targetDex","type":"string"},{"internalType":"address[]","name":"_path","type":"address[]"}],"name":"simulateArbitrage","outputs":[{"internalType":"bool","name":"profitable","type":"bool"},{"internalType":"uint256","name":"potentialProfit","type":"uint256"},{"internalType":"uint256","name":"spreadBP","type":"uint256"}],"stateMutability":"view","type":"function"},{"inputs":[],"name":"togglePause","outputs":[],"stateMutability":"nonpayable","type":"function"},{"inputs":[{"internalType":"address","name":"newOwner","type":"address"}],"name":"transferOwnership","outputs":[],"stateMutability":"nonpayable","type":"function"},{"inputs":[{"internalType":"address","name":"_collector","type":"address"},{"internalType":"uint256","name":"_percentage","type":"uint256"}],"name":"updateFeeStructure","outputs":[],"stateMutability":"nonpayable","type":"function"},{"stateMutability":"payable","type":"receive"}],"evm":{"bytecode":{"linkReferences":{},"object":"60c06040526040516140c93803806140c983398181016040528101906100259190610344565b33858073ffffffffffffffffffffffffffffffffffffffff1660808173ffffffffffffffffffffffffffffffffffffffff16815250508073ffffffffffffffffffffffffffffffffffffffff1663026b1d5f6040518163ffffffff1660e01b8152600401602060405180830381865afa1580156100a6573d6000803e3d6000fd5b505050506040513d601f19601f820116820180604052508101906100ca91906103bf565b73ffffffffffffffffffffffffffffffffffffffff1660a08173ffffffffffffffffffffffffffffffffffffffff168152505050600073ffffffffffffffffffffffffffffffffffffffff168173ffffffffffffffffffffffffffffffffffffffff16036101705760006040517f1e4fbdf700000000000000000000000000000000000000000000000000000000815260040161016791906103fb565b60405180910390fd5b61017f816101e760201b60201c565b506001808190555083600560006101000a81548173ffffffffffffffffffffffffffffffffffffffff021916908373ffffffffffffffffffffffffffffffffffffffff1602179055508260068190555081600381905550806004819055505050505050610416565b60008060009054906101000a900473ffffffffffffffffffffffffffffffffffffffff169050816000806101000a81548173ffffffffffffffffffffffffffffffffffffffff021916908373ffffffffffffffffffffffffffffffffffffffff1602179055508173ffffffffffffffffffffffffffffffffffffffff168173ffffffffffffffffffffffffffffffffffffffff167f8be0079c531659141344cd1fd0a4f28419497f9722a3daafe3b4186f6b6457e060405160405180910390a35050565b600080fd5b600073ffffffffffffffffffffffffffffffffffffffff82169050919050565b60006102db826102b0565b9050919050565b6102eb816102d0565b81146102f657600080fd5b50565b600081519050610308816102e2565b92915050565b6000819050919050565b6103218161030e565b811461032c57600080fd5b50565b60008151905061033e81610318565b92915050565b600080600080600060a086880312156103605761035f6102ab565b5b600061036e888289016102f9565b955050602061037f888289016102f9565b94505060406103908882890161032f565b93505060606103a18882890161032f565b92505060806103b28882890161032f565b9150509295509295909350565b6000602082840312156103d5576103d46102ab565b5b60006103e3848285016102f9565b91505092915050565b6103f5816102d0565b82525050565b600060208201905061041060008301846103ec565b92915050565b60805160a051613c6b61045e6000396000818161060c015281816108ce015281816109a701528181610d1001528181610e9601526114d2015260006105e60152613c6b6000f3fe60806040526004361061012d5760003560e01c80637341ab8c116100ab578063b187bd261161006f578063b187bd26146103d8578063c415b95c14610403578063c4ae31681461042e578063d26f0cd014610445578063f2fde38b1461046e578063f8b2cb4f1461049757610134565b80637341ab8c146103035780637535d2461461032e5780638da5cb5b146103595780639e537bea14610384578063a001ecdd146103ad57610134565b8063329af636116100f2578063329af636146102325780633bc26c211461025d57806358c9ea7f146102865780635e7ffa67146102af578063715018a6146102ec57610134565b8062ae3bf8146101395780630542975c146101625780631b11d0ff1461018d5780631ce57d72146101ca5780632d715cad1461020957610134565b3661013457005b600080fd5b34801561014557600080fd5b50610160600480360381019061015b919061229b565b6104d4565b005b34801561016e57600080fd5b506101776105e4565b6040516101849190612327565b60405180910390f35b34801561019957600080fd5b506101b460048036038101906101af91906123dd565b610608565b6040516101c19190612492565b60405180910390f35b3480156101d657600080fd5b506101f160048036038101906101ec9190612559565b610a3e565b60405161020093929190612644565b60405180910390f35b34801561021557600080fd5b50610230600480360381019061022b919061267b565b610bc8565b005b34801561023e57600080fd5b50610247610c9a565b60405161025491906126bb565b60405180910390f35b34801561026957600080fd5b50610284600480360381019061027f91906126d6565b610ca0565b005b34801561029257600080fd5b506102ad60048036038101906102a891906127c5565b610de0565b005b3480156102bb57600080fd5b506102d660048036038101906102d19190612946565b610e31565b6040516102e3919061299e565b60405180910390f35b3480156102f857600080fd5b50610301610e7a565b005b34801561030f57600080fd5b50610318610e8e565b60405161032591906126bb565b60405180910390f35b34801561033a57600080fd5b50610343610e94565b60405161035091906129da565b60405180910390f35b34801561036557600080fd5b5061036e610eb8565b60405161037b919061299e565b60405180910390f35b34801561039057600080fd5b506103ab60048036038101906103a69190612ab8565b610ee1565b005b3480156103b957600080fd5b506103c2610f63565b6040516103cf91906126bb565b60405180910390f35b3480156103e457600080fd5b506103ed610f69565b6040516103fa9190612492565b60405180910390f35b34801561040f57600080fd5b50610418610f7c565b604051610425919061299e565b60405180910390f35b34801561043a57600080fd5b50610443610fa2565b005b34801561045157600080fd5b5061046c60048036038101906104679190612b87565b610fd6565b005b34801561047a57600080fd5b506104956004803603810190610490919061229b565b611100565b005b3480156104a357600080fd5b506104be60048036038101906104b9919061229b565b611186565b6040516104cb91906126bb565b60405180910390f35b6104dc611209565b60008173ffffffffffffffffffffffffffffffffffffffff166370a08231306040518263ffffffff1660e01b8152600401610517919061299e565b602060405180830381865afa158015610534573d6000803e3d6000fd5b505050506040513d601f19601f820116820180604052508101906105589190612bfc565b90508173ffffffffffffffffffffffffffffffffffffffff1663a9059cbb61057e610eb8565b836040518363ffffffff1660e01b815260040161059c929190612c29565b6020604051808303816000875af11580156105bb573d6000803e3d6000fd5b505050506040513d601f19601f820116820180604052508101906105df9190612c7e565b505050565b7f000000000000000000000000000000000000000000000000000000000000000081565b60007f000000000000000000000000000000000000000000000000000000000000000073ffffffffffffffffffffffffffffffffffffffff163373ffffffffffffffffffffffffffffffffffffffff1614610698576040517f08c379a000000000000000000000000000000000000000000000000000000000815260040161068f90612d08565b60405180910390fd5b60008773ffffffffffffffffffffffffffffffffffffffff166370a08231306040518263ffffffff1660e01b81526004016106d3919061299e565b602060405180830381865afa1580156106f0573d6000803e3d6000fd5b505050506040513d601f19601f820116820180604052508101906107149190612bfc565b90506107556040518060400160405280600e81526020017f46697273742042616c616e63653a00000000000000000000000000000000000081525082611290565b600080600080878781019061076a9190612d28565b93509350935093503073ffffffffffffffffffffffffffffffffffffffff16639e537bea8585858f866040518663ffffffff1660e01b81526004016107b3959493929190612f0f565b600060405180830381600087803b1580156107cd57600080fd5b505af19250505080156107de575060015b610894576107ea612f84565b806308c379a00361084f57506107fe612fa6565b806108095750610851565b7f30024b247c7fb2eb5c560ad78987e1319ca2813e167ae8483d4a6f60517bd899816040516108389190613036565b60405180910390a160009650505050505050610a34565b505b7f30024b247c7fb2eb5c560ad78987e1319ca2813e167ae8483d4a6f60517bd89960405161087e906130a4565b60405180910390a1600095505050505050610a34565b6108a08c8c8c8861132c565b60008a8c6108ae91906130f3565b90508c73ffffffffffffffffffffffffffffffffffffffff1663095ea7b37f0000000000000000000000000000000000000000000000000000000000000000836040518363ffffffff1660e01b815260040161090b929190612c29565b6020604051808303816000875af115801561092a573d6000803e3d6000fd5b505050506040513d601f19601f8201168201806040525081019061094e9190612c7e565b50610a296040518060400160405280601081526020017f46696e616c20616c6c6f77616e63653a000000000000000000000000000000008152508e73ffffffffffffffffffffffffffffffffffffffff1663dd62ed3e307f00000000000000000000000000000000000000000000000000000000000000006040518363ffffffff1660e01b81526004016109e3929190613127565b602060405180830381865afa158015610a00573d6000803e3d6000fd5b505050506040513d601f19601f82011682018060405250810190610a249190612bfc565b611290565b600196505050505050505b9695505050505050565b6000806000610a5185858b8b8b8b611915565b8a73ffffffffffffffffffffffffffffffffffffffff1685856000818110610a7c57610a7b613150565b5b9050602002016020810190610a91919061229b565b73ffffffffffffffffffffffffffffffffffffffff1614610ae7576040517f08c379a0000000000000000000000000000000000000000000000000000000008152600401610ade906131f1565b60405180910390fd5b6000610af28b611ac1565b8b610afd91906130f3565b90506000610b4e8b8b8e8a8a80806020026020016040519081016040528093929190818152602001838360200280828437600081840152601f19601f82011690508083019250505050505050611ae4565b9050610ba5898983610ba08b8b80806020026020016040519081016040528093929190818152602001838360200280828437600081840152601f19601f82011690508083019250505050505050611c4c565b611ae4565b9050610bb281838e611d3f565b9450945094505050985098509895505050505050565b610bd0611209565b6109c4811115610c15576040517f08c379a0000000000000000000000000000000000000000000000000000000008152600401610c0c9061325d565b60405180910390fd5b81600560006101000a81548173ffffffffffffffffffffffffffffffffffffffff021916908373ffffffffffffffffffffffffffffffffffffffff160217905550806006819055507fd75fe2e803472030f7e82cfec86833e15fcc49687c50c2d1d4f1e8df8a8f832f8282604051610c8e929190612c29565b60405180910390a15050565b60045481565b610ca8611209565b600260009054906101000a900460ff1615610cf8576040517f08c379a0000000000000000000000000000000000000000000000000000000008152600401610cef906132c9565b60405180910390fd5b610d00611db1565b610d0e838389898989611915565b7f000000000000000000000000000000000000000000000000000000000000000073ffffffffffffffffffffffffffffffffffffffff166342b0b77c308b8b8b8b8b8b8b8b8b604051602001610d6a97969594939291906133a1565b60405160208183030381529060405260006040518663ffffffff1660e01b8152600401610d9b95949392919061349f565b600060405180830381600087803b158015610db557600080fd5b505af1158015610dc9573d6000803e3d6000fd5b50505050610dd5611df7565b505050505050505050565b610de8611209565b81600381905550806004819055507fc5023cc86199e71ca52157b0b124ddbda596c9fb8bab5bb7028d162fa3ed554582604051610e2591906126bb565b60405180910390a15050565b6007818051602081018201805184825260208301602085012081835280955050505050506000915054906101000a900473ffffffffffffffffffffffffffffffffffffffff1681565b610e82611209565b610e8c6000611e00565b565b60035481565b7f000000000000000000000000000000000000000000000000000000000000000081565b60008060009054906101000a900473ffffffffffffffffffffffffffffffffffffffff16905090565b3073ffffffffffffffffffffffffffffffffffffffff163373ffffffffffffffffffffffffffffffffffffffff1614610f4f576040517f08c379a0000000000000000000000000000000000000000000000000000000008152600401610f4690613545565b60405180910390fd5b610f5c8585858585611ec4565b5050505050565b60065481565b600260009054906101000a900460ff1681565b600560009054906101000a900473ffffffffffffffffffffffffffffffffffffffff1681565b610faa611209565b600260009054906101000a900460ff1615600260006101000a81548160ff021916908315150217905550565b610fde611209565b600073ffffffffffffffffffffffffffffffffffffffff168173ffffffffffffffffffffffffffffffffffffffff160361104d576040517f08c379a0000000000000000000000000000000000000000000000000000000008152600401611044906135b1565b60405180910390fd5b8060078484604051611060929190613601565b908152602001604051809103902060006101000a81548173ffffffffffffffffffffffffffffffffffffffff021916908373ffffffffffffffffffffffffffffffffffffffff16021790555082826040516110bc929190613601565b60405180910390207fcd9eb1d8eaef2a7a704d54b38f07db521cfe05cff25c1a73f862370c47a2f4e4826040516110f3919061299e565b60405180910390a2505050565b611108611209565b600073ffffffffffffffffffffffffffffffffffffffff168173ffffffffffffffffffffffffffffffffffffffff160361117a5760006040517f1e4fbdf7000000000000000000000000000000000000000000000000000000008152600401611171919061299e565b60405180910390fd5b61118381611e00565b50565b60008173ffffffffffffffffffffffffffffffffffffffff166370a08231306040518263ffffffff1660e01b81526004016111c1919061299e565b602060405180830381865afa1580156111de573d6000803e3d6000fd5b505050506040513d601f19601f820116820180604052508101906112029190612bfc565b9050919050565b61121161200e565b73ffffffffffffffffffffffffffffffffffffffff1661122f610eb8565b73ffffffffffffffffffffffffffffffffffffffff161461128e5761125261200e565b6040517f118cdaa7000000000000000000000000000000000000000000000000000000008152600401611285919061299e565b60405180910390fd5b565b61132882826040516024016112a692919061361a565b6040516020818303038152906040527fb60e72cc000000000000000000000000000000000000000000000000000000007bffffffffffffffffffffffffffffffffffffffffffffffffffffffff19166020820180517bffffffffffffffffffffffffffffffffffffffffffffffffffffffff8381831617835250505050612016565b5050565b61136a6040518060400160405280601a81526020017f0a3d3d3d2050726f63657373696e672050726f666974203d3d3d000000000000815250612030565b60008473ffffffffffffffffffffffffffffffffffffffff166370a08231306040518263ffffffff1660e01b81526004016113a5919061299e565b602060405180830381865afa1580156113c2573d6000803e3d6000fd5b505050506040513d601f19601f820116820180604052508101906113e69190612bfc565b90506114276040518060400160405280600e81526020017f46696e616c2062616c616e63653a00000000000000000000000000000000000081525082611290565b6000838561143591906130f3565b90506114766040518060400160405280600b81526020017f546f74616c206f7765643a00000000000000000000000000000000000000000081525082611290565b6114b46040518060400160405280601681526020017f417070726f76696e672072657061796d656e742e2e2e00000000000000000000815250612030565b8573ffffffffffffffffffffffffffffffffffffffff1663095ea7b37f0000000000000000000000000000000000000000000000000000000000000000836040518363ffffffff1660e01b815260040161150f929190612c29565b6020604051808303816000875af115801561152e573d6000803e3d6000fd5b505050506040513d601f19601f820116820180604052508101906115529190612c7e565b5080821015611596576040517f08c379a000000000000000000000000000000000000000000000000000000000815260040161158d90613696565b60405180910390fd5b600081836115a491906136b6565b90506115e56040518060400160405280600d81526020017f47726f73732070726f6669743a0000000000000000000000000000000000000081525082611290565b60035481101561162a576040517f08c379a000000000000000000000000000000000000000000000000000000000815260040161162190613736565b60405180910390fd5b60006127106006548361163d9190613756565b61164791906137c7565b90506116886040518060400160405280600b81526020017f46656520616d6f756e743a00000000000000000000000000000000000000000081525082611290565b60008111156118695761172c604051806060016040528060258152602001613bed602591398973ffffffffffffffffffffffffffffffffffffffff166370a08231306040518263ffffffff1660e01b81526004016116e6919061299e565b602060405180830381865afa158015611703573d6000803e3d6000fd5b505050506040513d601f19601f820116820180604052508101906117279190612bfc565b611290565b8773ffffffffffffffffffffffffffffffffffffffff1663a9059cbb600560009054906101000a900473ffffffffffffffffffffffffffffffffffffffff16836040518363ffffffff1660e01b8152600401611789929190612c29565b6020604051808303816000875af11580156117a8573d6000803e3d6000fd5b505050506040513d601f19601f820116820180604052508101906117cc9190612c7e565b50611868604051806060016040528060248152602001613c12602491398973ffffffffffffffffffffffffffffffffffffffff166370a08231306040518263ffffffff1660e01b8152600401611822919061299e565b602060405180830381865afa15801561183f573d6000803e3d6000fd5b505050506040513d601f19601f820116820180604052508101906118639190612bfc565b611290565b5b6000818361187791906136b6565b90506118b86040518060400160405280601481526020017f4e65742070726f6669742072657461696e65643a00000000000000000000000081525082611290565b8873ffffffffffffffffffffffffffffffffffffffff167fac5e73d65c7df1a72a57e0d680767c7e764095957ee44ec036b761799b56afd2898342604051611902939291906137f8565b60405180910390a2505050505050505050565b6002868690501461195b576040517f08c379a00000000000000000000000000000000000000000000000000000000081526004016119529061387b565b60405180910390fd5b600073ffffffffffffffffffffffffffffffffffffffff1660078585604051611985929190613601565b908152602001604051809103902060009054906101000a900473ffffffffffffffffffffffffffffffffffffffff1673ffffffffffffffffffffffffffffffffffffffff1603611a0a576040517f08c379a0000000000000000000000000000000000000000000000000000000008152600401611a01906138e7565b60405180910390fd5b600073ffffffffffffffffffffffffffffffffffffffff1660078383604051611a34929190613601565b908152602001604051809103902060009054906101000a900473ffffffffffffffffffffffffffffffffffffffff1673ffffffffffffffffffffffffffffffffffffffff1603611ab9576040517f08c379a0000000000000000000000000000000000000000000000000000000008152600401611ab090613953565b60405180910390fd5b505050505050565b6000612710600983611ad39190613756565b611add91906137c7565b9050919050565b60008060078686604051611af9929190613601565b908152602001604051809103902060009054906101000a900473ffffffffffffffffffffffffffffffffffffffff169050600073ffffffffffffffffffffffffffffffffffffffff168173ffffffffffffffffffffffffffffffffffffffff1603611b99576040517f08c379a0000000000000000000000000000000000000000000000000000000008152600401611b90906139bf565b60405180910390fd5b8073ffffffffffffffffffffffffffffffffffffffff1663d06ca61f85856040518363ffffffff1660e01b8152600401611bd49291906139df565b600060405180830381865afa158015611bf1573d6000803e3d6000fd5b505050506040513d6000823e3d601f19601f82011682018060405250810190611c1a9190613ad2565b60018451611c2891906136b6565b81518110611c3957611c38613150565b5b6020026020010151915050949350505050565b60606000825167ffffffffffffffff811115611c6b57611c6a61281b565b5b604051908082528060200260200182016040528015611c995781602001602082028036833780820191505090505b50905060005b8351811015611d3557838160018651611cb891906136b6565b611cc291906136b6565b81518110611cd357611cd2613150565b5b6020026020010151828281518110611cee57611ced613150565b5b602002602001019073ffffffffffffffffffffffffffffffffffffffff16908173ffffffffffffffffffffffffffffffffffffffff16815250508080600101915050611c9f565b5080915050919050565b600080600080858711611d53576000611d60565b8587611d5f91906136b6565b5b9050600085612710888a611d7491906136b6565b611d7e9190613756565b611d8891906137c7565b90506003548210158015611d9e57506004548110155b8282945094509450505093509350939050565b600260015403611ded576040517f3ee5aeb500000000000000000000000000000000000000000000000000000000815260040160405180910390fd5b6002600181905550565b60018081905550565b60008060009054906101000a900473ffffffffffffffffffffffffffffffffffffffff169050816000806101000a81548173ffffffffffffffffffffffffffffffffffffffff021916908373ffffffffffffffffffffffffffffffffffffffff1602179055508173ffffffffffffffffffffffffffffffffffffffff168173ffffffffffffffffffffffffffffffffffffffff167f8be0079c531659141344cd1fd0a4f28419497f9722a3daafe3b4186f6b6457e060405160405180910390a35050565b6000600786604051611ed69190613b4c565b908152602001604051809103902060009054906101000a900473ffffffffffffffffffffffffffffffffffffffff1690506000600786604051611f199190613b4c565b908152602001604051809103902060009054906101000a900473ffffffffffffffffffffffffffffffffffffffff169050611f5782868660006120c9565b600085600181518110611f6d57611f6c613150565b5b602002602001015173ffffffffffffffffffffffffffffffffffffffff166370a08231306040518263ffffffff1660e01b8152600401611fad919061299e565b602060405180830381865afa158015611fca573d6000803e3d6000fd5b505050506040513d601f19601f82011682018060405250810190611fee9190612bfc565b905061200482611ffd88611c4c565b83876120c9565b5050505050505050565b600033905090565b61202d816120256121f3612214565b63ffffffff16565b50565b6120c6816040516024016120449190613036565b6040516020818303038152906040527f41304fac000000000000000000000000000000000000000000000000000000007bffffffffffffffffffffffffffffffffffffffffffffffffffffffff19166020820180517bffffffffffffffffffffffffffffffffffffffffffffffffffffffff8381831617835250505050612016565b50565b826000815181106120dd576120dc613150565b5b602002602001015173ffffffffffffffffffffffffffffffffffffffff1663095ea7b385846040518363ffffffff1660e01b815260040161211f929190612c29565b6020604051808303816000875af115801561213e573d6000803e3d6000fd5b505050506040513d601f19601f820116820180604052508101906121629190612c7e565b508373ffffffffffffffffffffffffffffffffffffffff166338ed173983838630426040518663ffffffff1660e01b81526004016121a4959493929190613b63565b6000604051808303816000875af11580156121c3573d6000803e3d6000fd5b505050506040513d6000823e3d601f19601f820116820180604052508101906121ec9190613ad2565b5050505050565b60006a636f6e736f6c652e6c6f679050600080835160208501845afa505050565b61221f819050919050565b612227613bbd565b565b6000604051905090565b600080fd5b600080fd5b600073ffffffffffffffffffffffffffffffffffffffff82169050919050565b60006122688261223d565b9050919050565b6122788161225d565b811461228357600080fd5b50565b6000813590506122958161226f565b92915050565b6000602082840312156122b1576122b0612233565b5b60006122bf84828501612286565b91505092915050565b6000819050919050565b60006122ed6122e86122e38461223d565b6122c8565b61223d565b9050919050565b60006122ff826122d2565b9050919050565b6000612311826122f4565b9050919050565b61232181612306565b82525050565b600060208201905061233c6000830184612318565b92915050565b6000819050919050565b61235581612342565b811461236057600080fd5b50565b6000813590506123728161234c565b92915050565b600080fd5b600080fd5b600080fd5b60008083601f84011261239d5761239c612378565b5b8235905067ffffffffffffffff8111156123ba576123b961237d565b5b6020830191508360018202830111156123d6576123d5612382565b5b9250929050565b60008060008060008060a087890312156123fa576123f9612233565b5b600061240889828a01612286565b965050602061241989828a01612363565b955050604061242a89828a01612363565b945050606061243b89828a01612286565b935050608087013567ffffffffffffffff81111561245c5761245b612238565b5b61246889828a01612387565b92509250509295509295509295565b60008115159050919050565b61248c81612477565b82525050565b60006020820190506124a76000830184612483565b92915050565b60008083601f8401126124c3576124c2612378565b5b8235905067ffffffffffffffff8111156124e0576124df61237d565b5b6020830191508360018202830111156124fc576124fb612382565b5b9250929050565b60008083601f84011261251957612518612378565b5b8235905067ffffffffffffffff8111156125365761253561237d565b5b60208301915083602082028301111561255257612551612382565b5b9250929050565b60008060008060008060008060a0898b03121561257957612578612233565b5b60006125878b828c01612286565b98505060206125988b828c01612363565b975050604089013567ffffffffffffffff8111156125b9576125b8612238565b5b6125c58b828c016124ad565b9650965050606089013567ffffffffffffffff8111156125e8576125e7612238565b5b6125f48b828c016124ad565b9450945050608089013567ffffffffffffffff81111561261757612616612238565b5b6126238b828c01612503565b92509250509295985092959890939650565b61263e81612342565b82525050565b60006060820190506126596000830186612483565b6126666020830185612635565b6126736040830184612635565b949350505050565b6000806040838503121561269257612691612233565b5b60006126a085828601612286565b92505060206126b185828601612363565b9150509250929050565b60006020820190506126d06000830184612635565b92915050565b600080600080600080600080600060c08a8c0312156126f8576126f7612233565b5b60006127068c828d01612286565b99505060206127178c828d01612363565b98505060408a013567ffffffffffffffff81111561273857612737612238565b5b6127448c828d016124ad565b975097505060608a013567ffffffffffffffff81111561276757612766612238565b5b6127738c828d016124ad565b955095505060808a013567ffffffffffffffff81111561279657612795612238565b5b6127a28c828d01612503565b935093505060a06127b58c828d01612363565b9150509295985092959850929598565b600080604083850312156127dc576127db612233565b5b60006127ea85828601612363565b92505060206127fb85828601612363565b9150509250929050565b600080fd5b6000601f19601f8301169050919050565b7f4e487b7100000000000000000000000000000000000000000000000000000000600052604160045260246000fd5b6128538261280a565b810181811067ffffffffffffffff821117156128725761287161281b565b5b80604052505050565b6000612885612229565b9050612891828261284a565b919050565b600067ffffffffffffffff8211156128b1576128b061281b565b5b6128ba8261280a565b9050602081019050919050565b82818337600083830152505050565b60006128e96128e484612896565b61287b565b90508281526020810184848401111561290557612904612805565b5b6129108482856128c7565b509392505050565b600082601f83011261292d5761292c612378565b5b813561293d8482602086016128d6565b91505092915050565b60006020828403121561295c5761295b612233565b5b600082013567ffffffffffffffff81111561297a57612979612238565b5b61298684828501612918565b91505092915050565b6129988161225d565b82525050565b60006020820190506129b3600083018461298f565b92915050565b60006129c4826122f4565b9050919050565b6129d4816129b9565b82525050565b60006020820190506129ef60008301846129cb565b92915050565b600067ffffffffffffffff821115612a1057612a0f61281b565b5b602082029050602081019050919050565b6000612a34612a2f846129f5565b61287b565b90508083825260208201905060208402830185811115612a5757612a56612382565b5b835b81811015612a805780612a6c8882612286565b845260208401935050602081019050612a59565b5050509392505050565b600082601f830112612a9f57612a9e612378565b5b8135612aaf848260208601612a21565b91505092915050565b600080600080600060a08688031215612ad457612ad3612233565b5b600086013567ffffffffffffffff811115612af257612af1612238565b5b612afe88828901612918565b955050602086013567ffffffffffffffff811115612b1f57612b1e612238565b5b612b2b88828901612918565b945050604086013567ffffffffffffffff811115612b4c57612b4b612238565b5b612b5888828901612a8a565b9350506060612b6988828901612363565b9250506080612b7a88828901612363565b9150509295509295909350565b600080600060408486031215612ba057612b9f612233565b5b600084013567ffffffffffffffff811115612bbe57612bbd612238565b5b612bca868287016124ad565b93509350506020612bdd86828701612286565b9150509250925092565b600081519050612bf68161234c565b92915050565b600060208284031215612c1257612c11612233565b5b6000612c2084828501612be7565b91505092915050565b6000604082019050612c3e600083018561298f565b612c4b6020830184612635565b9392505050565b612c5b81612477565b8114612c6657600080fd5b50565b600081519050612c7881612c52565b92915050565b600060208284031215612c9457612c93612233565b5b6000612ca284828501612c69565b91505092915050565b600082825260208201905092915050565b7f556e617574686f72697a65642063616c6c657200000000000000000000000000600082015250565b6000612cf2601383612cab565b9150612cfd82612cbc565b602082019050919050565b60006020820190508181036000830152612d2181612ce5565b9050919050565b60008060008060808587031215612d4257612d41612233565b5b600085013567ffffffffffffffff811115612d6057612d5f612238565b5b612d6c87828801612918565b945050602085013567ffffffffffffffff811115612d8d57612d8c612238565b5b612d9987828801612918565b935050604085013567ffffffffffffffff811115612dba57612db9612238565b5b612dc687828801612a8a565b9250506060612dd787828801612363565b91505092959194509250565b600081519050919050565b60005b83811015612e0c578082015181840152602081019050612df1565b60008484015250505050565b6000612e2382612de3565b612e2d8185612cab565b9350612e3d818560208601612dee565b612e468161280a565b840191505092915050565b600081519050919050565b600082825260208201905092915050565b6000819050602082019050919050565b612e868161225d565b82525050565b6000612e988383612e7d565b60208301905092915050565b6000602082019050919050565b6000612ebc82612e51565b612ec68185612e5c565b9350612ed183612e6d565b8060005b83811015612f02578151612ee98882612e8c565b9750612ef483612ea4565b925050600181019050612ed5565b5085935050505092915050565b600060a0820190508181036000830152612f298188612e18565b90508181036020830152612f3d8187612e18565b90508181036040830152612f518186612eb1565b9050612f606060830185612635565b612f6d6080830184612635565b9695505050505050565b60008160e01c9050919050565b600060033d1115612fa35760046000803e612fa0600051612f77565b90505b90565b600060443d1061303357612fb8612229565b60043d036004823e80513d602482011167ffffffffffffffff82111715612fe0575050613033565b808201805167ffffffffffffffff811115612ffe5750505050613033565b80602083010160043d03850181111561301b575050505050613033565b61302a8260200185018661284a565b82955050505050505b90565b600060208201905081810360008301526130508184612e18565b905092915050565b7f556e6b6e6f776e206572726f7200000000000000000000000000000000000000600082015250565b600061308e600d83612cab565b915061309982613058565b602082019050919050565b600060208201905081810360008301526130bd81613081565b9050919050565b7f4e487b7100000000000000000000000000000000000000000000000000000000600052601160045260246000fd5b60006130fe82612342565b915061310983612342565b9250828201905080821115613121576131206130c4565b5b92915050565b600060408201905061313c600083018561298f565b613149602083018461298f565b9392505050565b7f4e487b7100000000000000000000000000000000000000000000000000000000600052603260045260246000fd5b7f466972737420746f6b656e206d75737420626520626f72726f77656420746f6b60008201527f656e000000000000000000000000000000000000000000000000000000000000602082015250565b60006131db602283612cab565b91506131e68261317f565b604082019050919050565b6000602082019050818103600083015261320a816131ce565b9050919050565b7f4665652065786365656473203235252063617000000000000000000000000000600082015250565b6000613247601383612cab565b915061325282613211565b602082019050919050565b600060208201905081810360008301526132768161323a565b9050919050565b7f436f6e7472616374207061757365640000000000000000000000000000000000600082015250565b60006132b3600f83612cab565b91506132be8261327d565b602082019050919050565b600060208201905081810360008301526132e2816132a6565b9050919050565b60006132f58385612cab565b93506133028385846128c7565b61330b8361280a565b840190509392505050565b6000819050919050565b600061332f6020840184612286565b905092915050565b6000602082019050919050565b60006133508385612e5c565b935061335b82613316565b8060005b85811015613394576133718284613320565b61337b8882612e8c565b975061338683613337565b92505060018101905061335f565b5085925050509392505050565b600060808201905081810360008301526133bc81898b6132e9565b905081810360208301526133d18187896132e9565b905081810360408301526133e6818587613344565b90506133f56060830184612635565b98975050505050505050565b600081519050919050565b600082825260208201905092915050565b600061342882613401565b613432818561340c565b9350613442818560208601612dee565b61344b8161280a565b840191505092915050565b6000819050919050565b600061ffff82169050919050565b600061348961348461347f84613456565b6122c8565b613460565b9050919050565b6134998161346e565b82525050565b600060a0820190506134b4600083018861298f565b6134c1602083018761298f565b6134ce6040830186612635565b81810360608301526134e0818561341d565b90506134ef6080830184613490565b9695505050505050565b7f496e7465726e616c2063616c6c206f6e6c790000000000000000000000000000600082015250565b600061352f601283612cab565b915061353a826134f9565b602082019050919050565b6000602082019050818103600083015261355e81613522565b9050919050565b7f496e76616c696420726f75746572206164647265737300000000000000000000600082015250565b600061359b601683612cab565b91506135a682613565565b602082019050919050565b600060208201905081810360008301526135ca8161358e565b9050919050565b600081905092915050565b60006135e883856135d1565b93506135f58385846128c7565b82840190509392505050565b600061360e8284866135dc565b91508190509392505050565b600060408201905081810360008301526136348185612e18565b90506136436020830184612635565b9392505050565b7f496e73756666696369656e742072657061796d656e7400000000000000000000600082015250565b6000613680601683612cab565b915061368b8261364a565b602082019050919050565b600060208201905081810360008301526136af81613673565b9050919050565b60006136c182612342565b91506136cc83612342565b92508282039050818111156136e4576136e36130c4565b5b92915050565b7f50726f6669742062656c6f77206d696e696d756d000000000000000000000000600082015250565b6000613720601483612cab565b915061372b826136ea565b602082019050919050565b6000602082019050818103600083015261374f81613713565b9050919050565b600061376182612342565b915061376c83612342565b925082820261377a81612342565b91508282048414831517613791576137906130c4565b5b5092915050565b7f4e487b7100000000000000000000000000000000000000000000000000000000600052601260045260246000fd5b60006137d282612342565b91506137dd83612342565b9250826137ed576137ec613798565b5b828204905092915050565b600060608201905061380d6000830186612635565b61381a6020830185612635565b6138276040830184612635565b949350505050565b7f53696d706c65206172626974726167652070617468206f6e6c79000000000000600082015250565b6000613865601a83612cab565b91506138708261382f565b602082019050919050565b6000602082019050818103600083015261389481613858565b9050919050565b7f536f7572636520444558206e6f7420636f6e6669677572656400000000000000600082015250565b60006138d1601983612cab565b91506138dc8261389b565b602082019050919050565b60006020820190508181036000830152613900816138c4565b9050919050565b7f54617267657420444558206e6f7420636f6e6669677572656400000000000000600082015250565b600061393d601983612cab565b915061394882613907565b602082019050919050565b6000602082019050818103600083015261396c81613930565b9050919050565b7f444558206e6f7420636f6e666967757265640000000000000000000000000000600082015250565b60006139a9601283612cab565b91506139b482613973565b602082019050919050565b600060208201905081810360008301526139d88161399c565b9050919050565b60006040820190506139f46000830185612635565b8181036020830152613a068184612eb1565b90509392505050565b600067ffffffffffffffff821115613a2a57613a2961281b565b5b602082029050602081019050919050565b6000613a4e613a4984613a0f565b61287b565b90508083825260208201905060208402830185811115613a7157613a70612382565b5b835b81811015613a9a5780613a868882612be7565b845260208401935050602081019050613a73565b5050509392505050565b600082601f830112613ab957613ab8612378565b5b8151613ac9848260208601613a3b565b91505092915050565b600060208284031215613ae857613ae7612233565b5b600082015167ffffffffffffffff811115613b0657613b05612238565b5b613b1284828501613aa4565b91505092915050565b6000613b2682612de3565b613b3081856135d1565b9350613b40818560208601612dee565b80840191505092915050565b6000613b588284613b1b565b915081905092915050565b600060a082019050613b786000830188612635565b613b856020830187612635565b8181036040830152613b978186612eb1565b9050613ba6606083018561298f565b613bb36080830184612635565b9695505050505050565b7f4e487b7100000000000000000000000000000000000000000000000000000000600052605160045260246000fdfe436f6e74726163742062616c616e6365206265666f726520666565207472616e736665723a436f6e74726163742062616c616e636520616674657220666565207472616e736665723aa2646970667358221220e547f9290c22de47aa13ad0f509eff28b261702d77fbd6c91817e102639ba10f64736f6c634300081c0033","opcodes":"PUSH1 0xC0 PUSH1 0x40 MSTORE PUSH1 0x40 MLOAD PUSH2 0x40C9 CODESIZE SUB DUP1 PUSH2 0x40C9 DUP4 CODECOPY DUP2 DUP2 ADD PUSH1 0x40 MSTORE DUP2 ADD SWAP1 PUSH2 0x25 SWAP2 SWAP1 PUSH2 0x344 JUMP JUMPDEST CALLER DUP6 DUP1 PUSH20 0xFFFFFFFFFFFFFFFFFFFFFFFFFFFFFFFFFFFFFFFF AND PUSH1 0x80 DUP2 PUSH20 0xFFFFFFFFFFFFFFFFFFFFFFFFFFFFFFFFFFFFFFFF AND DUP2 MSTORE POP POP DUP1 PUSH20 0xFFFFFFFFFFFFFFFFFFFFFFFFFFFFFFFFFFFFFFFF AND PUSH4 0x26B1D5F PUSH1 0x40 MLOAD DUP2 PUSH4 0xFFFFFFFF AND PUSH1 0xE0 SHL DUP2 MSTORE PUSH1 0x4 ADD PUSH1 0x20 PUSH1 0x40 MLOAD DUP1 DUP4 SUB DUP2 DUP7 GAS STATICCALL ISZERO DUP1 ISZERO PUSH2 0xA6 JUMPI RETURNDATASIZE PUSH1 0x0 DUP1 RETURNDATACOPY RETURNDATASIZE PUSH1 0x0 REVERT JUMPDEST POP POP POP POP PUSH1 0x40 MLOAD RETURNDATASIZE PUSH1 0x1F NOT PUSH1 0x1F DUP3 ADD AND DUP3 ADD DUP1 PUSH1 0x40 MSTORE POP DUP2 ADD SWAP1 PUSH2 0xCA SWAP2 SWAP1 PUSH2 0x3BF JUMP JUMPDEST PUSH20 0xFFFFFFFFFFFFFFFFFFFFFFFFFFFFFFFFFFFFFFFF AND PUSH1 0xA0 DUP2 PUSH20 0xFFFFFFFFFFFFFFFFFFFFFFFFFFFFFFFFFFFFFFFF AND DUP2 MSTORE POP POP POP PUSH1 0x0 PUSH20 0xFFFFFFFFFFFFFFFFFFFFFFFFFFFFFFFFFFFFFFFF AND DUP2 PUSH20 0xFFFFFFFFFFFFFFFFFFFFFFFFFFFFFFFFFFFFFFFF AND SUB PUSH2 0x170 JUMPI PUSH1 0x0 PUSH1 0x40 MLOAD PUSH32 0x1E4FBDF700000000000000000000000000000000000000000000000000000000 DUP2 MSTORE PUSH1 0x4 ADD PUSH2 0x167 SWAP2 SWAP1 PUSH2 0x3FB JUMP JUMPDEST PUSH1 0x40 MLOAD DUP1 SWAP2 SUB SWAP1 REVERT JUMPDEST PUSH2 0x17F DUP2 PUSH2 0x1E7 PUSH1 0x20 SHL PUSH1 0x20 SHR JUMP JUMPDEST POP PUSH1 0x1 DUP1 DUP2 SWAP1 SSTORE POP DUP4 PUSH1 0x5 PUSH1 0x0 PUSH2 0x100 EXP DUP2 SLOAD DUP2 PUSH20 0xFFFFFFFFFFFFFFFFFFFFFFFFFFFFFFFFFFFFFFFF MUL NOT AND SWAP1 DUP4 PUSH20 0xFFFFFFFFFFFFFFFFFFFFFFFFFFFFFFFFFFFFFFFF AND MUL OR SWAP1 SSTORE POP DUP3 PUSH1 0x6 DUP2 SWAP1 SSTORE POP DUP2 PUSH1 0x3 DUP2 SWAP1 SSTORE POP DUP1 PUSH1 0x4 DUP2 SWAP1 SSTORE POP POP POP POP POP POP PUSH2 0x416 JUMP JUMPDEST PUSH1 0x0 DUP1 PUSH1 0x0 SWAP1 SLOAD SWAP1 PUSH2 0x100 EXP SWAP1 DIV PUSH20 0xFFFFFFFFFFFFFFFFFFFFFFFFFFFFFFFFFFFFFFFF AND SWAP1 POP DUP2 PUSH1 0x0 DUP1 PUSH2 0x100 EXP DUP2 SLOAD DUP2 PUSH20 0xFFFFFFFFFFFFFFFFFFFFFFFFFFFFFFFFFFFFFFFF MUL NOT AND SWAP1 DUP4 PUSH20 0xFFFFFFFFFFFFFFFFFFFFFFFFFFFFFFFFFFFFFFFF AND MUL OR SWAP1 SSTORE POP DUP2 PUSH20 0xFFFFFFFFFFFFFFFFFFFFFFFFFFFFFFFFFFFFFFFF AND DUP2 PUSH20 0xFFFFFFFFFFFFFFFFFFFFFFFFFFFFFFFFFFFFFFFF AND PUSH32 0x8BE0079C531659141344CD1FD0A4F28419497F9722A3DAAFE3B4186F6B6457E0 PUSH1 0x40 MLOAD PUSH1 0x40 MLOAD DUP1 SWAP2 SUB SWAP1 LOG3 POP POP JUMP JUMPDEST PUSH1 0x0 DUP1 REVERT JUMPDEST PUSH1 0x0 PUSH20 0xFFFFFFFFFFFFFFFFFFFFFFFFFFFFFFFFFFFFFFFF DUP3 AND SWAP1 POP SWAP2 SWAP1 POP JUMP JUMPDEST PUSH1 0x0 PUSH2 0x2DB DUP3 PUSH2 0x2B0 JUMP JUMPDEST SWAP1 POP SWAP2 SWAP1 POP JUMP JUMPDEST PUSH2 0x2EB DUP2 PUSH2 0x2D0 JUMP JUMPDEST DUP2 EQ PUSH2 0x2F6 JUMPI PUSH1 0x0 DUP1 REVERT JUMPDEST POP JUMP JUMPDEST PUSH1 0x0 DUP2 MLOAD SWAP1 POP PUSH2 0x308 DUP2 PUSH2 0x2E2 JUMP JUMPDEST SWAP3 SWAP2 POP POP JUMP JUMPDEST PUSH1 0x0 DUP2 SWAP1 POP SWAP2 SWAP1 POP JUMP JUMPDEST PUSH2 0x321 DUP2 PUSH2 0x30E JUMP JUMPDEST DUP2 EQ PUSH2 0x32C JUMPI PUSH1 0x0 DUP1 REVERT JUMPDEST POP JUMP JUMPDEST PUSH1 0x0 DUP2 MLOAD SWAP1 POP PUSH2 0x33E DUP2 PUSH2 0x318 JUMP JUMPDEST SWAP3 SWAP2 POP POP JUMP JUMPDEST PUSH1 0x0 DUP1 PUSH1 0x0 DUP1 PUSH1 0x0 PUSH1 0xA0 DUP7 DUP9 SUB SLT ISZERO PUSH2 0x360 JUMPI PUSH2 0x35F PUSH2 0x2AB JUMP JUMPDEST JUMPDEST PUSH1 0x0 PUSH2 0x36E DUP9 DUP3 DUP10 ADD PUSH2 0x2F9 JUMP JUMPDEST SWAP6 POP POP PUSH1 0x20 PUSH2 0x37F DUP9 DUP3 DUP10 ADD PUSH2 0x2F9 JUMP JUMPDEST SWAP5 POP POP PUSH1 0x40 PUSH2 0x390 DUP9 DUP3 DUP10 ADD PUSH2 0x32F JUMP JUMPDEST SWAP4 POP POP PUSH1 0x60 PUSH2 0x3A1 DUP9 DUP3 DUP10 ADD PUSH2 0x32F JUMP JUMPDEST SWAP3 POP POP PUSH1 0x80 PUSH2 0x3B2 DUP9 DUP3 DUP10 ADD PUSH2 0x32F JUMP JUMPDEST SWAP2 POP POP SWAP3 SWAP6 POP SWAP3 SWAP6 SWAP1 SWAP4 POP JUMP JUMPDEST PUSH1 0x0 PUSH1 0x20 DUP3 DUP5 SUB SLT ISZERO PUSH2 0x3D5 JUMPI PUSH2 0x3D4 PUSH2 0x2AB JUMP JUMPDEST JUMPDEST PUSH1 0x0 PUSH2 0x3E3 DUP5 DUP3 DUP6 ADD PUSH2 0x2F9 JUMP JUMPDEST SWAP2 POP POP SWAP3 SWAP2 POP POP JUMP JUMPDEST PUSH2 0x3F5 DUP2 PUSH2 0x2D0 JUMP JUMPDEST DUP3 MSTORE POP POP JUMP JUMPDEST PUSH1 0x0 PUSH1 0x20 DUP3 ADD SWAP1 POP PUSH2 0x410 PUSH1 0x0 DUP4 ADD DUP5 PUSH2 0x3EC JUMP JUMPDEST SWAP3 SWAP2 POP POP JUMP JUMPDEST PUSH1 0x80 MLOAD PUSH1 0xA0 MLOAD PUSH2 0x3C6B PUSH2 0x45E PUSH1 0x0 CODECOPY PUSH1 0x0 DUP2 DUP2 PUSH2 0x60C ADD MSTORE DUP2 DUP2 PUSH2 0x8CE ADD MSTORE DUP2 DUP2 PUSH2 0x9A7 ADD MSTORE DUP2 DUP2 PUSH2 0xD10 ADD MSTORE DUP2 DUP2 PUSH2 0xE96 ADD MSTORE PUSH2 0x14D2 ADD MSTORE PUSH1 0x0 PUSH2 0x5E6 ADD MSTORE PUSH2 0x3C6B PUSH1 0x0 RETURN INVALID PUSH1 0x80 PUSH1 0x40 MSTORE PUSH1 0x4 CALLDATASIZE LT PUSH2 0x12D JUMPI PUSH1 0x0 CALLDATALOAD PUSH1 0xE0 SHR DUP1 PUSH4 0x7341AB8C GT PUSH2 0xAB JUMPI DUP1 PUSH4 0xB187BD26 GT PUSH2 0x6F JUMPI DUP1 PUSH4 0xB187BD26 EQ PUSH2 0x3D8 JUMPI DUP1 PUSH4 0xC415B95C EQ PUSH2 0x403 JUMPI DUP1 PUSH4 0xC4AE3168 EQ PUSH2 0x42E JUMPI DUP1 PUSH4 0xD26F0CD0 EQ PUSH2 0x445 JUMPI DUP1 PUSH4 0xF2FDE38B EQ PUSH2 0x46E JUMPI DUP1 PUSH4 0xF8B2CB4F EQ PUSH2 0x497 JUMPI PUSH2 0x134 JUMP JUMPDEST DUP1 PUSH4 0x7341AB8C EQ PUSH2 0x303 JUMPI DUP1 PUSH4 0x7535D246 EQ PUSH2 0x32E JUMPI DUP1 PUSH4 0x8DA5CB5B EQ PUSH2 0x359 JUMPI DUP1 PUSH4 0x9E537BEA EQ PUSH2 0x384 JUMPI DUP1 PUSH4 0xA001ECDD EQ PUSH2 0x3AD JUMPI PUSH2 0x134 JUMP JUMPDEST DUP1 PUSH4 0x329AF636 GT PUSH2 0xF2 JUMPI DUP1 PUSH4 0x329AF636 EQ PUSH2 0x232 JUMPI DUP1 PUSH4 0x3BC26C21 EQ PUSH2 0x25D JUMPI DUP1 PUSH4 0x58C9EA7F EQ PUSH2 0x286 JUMPI DUP1 PUSH4 0x5E7FFA67 EQ PUSH2 0x2AF JUMPI DUP1 PUSH4 0x715018A6 EQ PUSH2 0x2EC JUMPI PUSH2 0x134 JUMP JUMPDEST DUP1 PUSH3 0xAE3BF8 EQ PUSH2 0x139 JUMPI DUP1 PUSH4 0x542975C EQ PUSH2 0x162 JUMPI DUP1 PUSH4 0x1B11D0FF EQ PUSH2 0x18D JUMPI DUP1 PUSH4 0x1CE57D72 EQ PUSH2 0x1CA JUMPI DUP1 PUSH4 0x2D715CAD EQ PUSH2 0x209 JUMPI PUSH2 0x134 JUMP JUMPDEST CALLDATASIZE PUSH2 0x134 JUMPI STOP JUMPDEST PUSH1 0x0 DUP1 REVERT JUMPDEST CALLVALUE DUP1 ISZERO PUSH2 0x145 JUMPI PUSH1 0x0 DUP1 REVERT JUMPDEST POP PUSH2 0x160 PUSH1 0x4 DUP1 CALLDATASIZE SUB DUP2 ADD SWAP1 PUSH2 0x15B SWAP2 SWAP1 PUSH2 0x229B JUMP JUMPDEST PUSH2 0x4D4 JUMP JUMPDEST STOP JUMPDEST CALLVALUE DUP1 ISZERO PUSH2 0x16E JUMPI PUSH1 0x0 DUP1 REVERT JUMPDEST POP PUSH2 0x177 PUSH2 0x5E4 JUMP JUMPDEST PUSH1 0x40 MLOAD PUSH2 0x184 SWAP2 SWAP1 PUSH2 0x2327 JUMP JUMPDEST PUSH1 0x40 MLOAD DUP1 SWAP2 SUB SWAP1 RETURN JUMPDEST CALLVALUE DUP1 ISZERO PUSH2 0x199 JUMPI PUSH1 0x0 DUP1 REVERT JUMPDEST POP PUSH2 0x1B4 PUSH1 0x4 DUP1 CALLDATASIZE SUB DUP2 ADD SWAP1 PUSH2 0x1AF SWAP2 SWAP1 PUSH2 0x23DD JUMP JUMPDEST PUSH2 0x608 JUMP JUMPDEST PUSH1 0x40 MLOAD PUSH2 0x1C1 SWAP2 SWAP1 PUSH2 0x2492 JUMP JUMPDEST PUSH1 0x40 MLOAD DUP1 SWAP2 SUB SWAP1 RETURN JUMPDEST CALLVALUE DUP1 ISZERO PUSH2 0x1D6 JUMPI PUSH1 0x0 DUP1 REVERT JUMPDEST POP PUSH2 0x1F1 PUSH1 0x4 DUP1 CALLDATASIZE SUB DUP2 ADD SWAP1 PUSH2 0x1EC SWAP2 SWAP1 PUSH2 0x2559 JUMP JUMPDEST PUSH2 0xA3E JUMP JUMPDEST PUSH1 0x40 MLOAD PUSH2 0x200 SWAP4 SWAP3 SWAP2 SWAP1 PUSH2 0x2644 JUMP JUMPDEST PUSH1 0x40 MLOAD DUP1 SWAP2 SUB SWAP1 RETURN JUMPDEST CALLVALUE DUP1 ISZERO PUSH2 0x215 JUMPI PUSH1 0x0 DUP1 REVERT JUMPDEST POP PUSH2 0x230 PUSH1 0x4 DUP1 CALLDATASIZE SUB DUP2 ADD SWAP1 PUSH2 0x22B SWAP2 SWAP1 PUSH2 0x267B JUMP JUMPDEST PUSH2 0xBC8 JUMP JUMPDEST STOP JUMPDEST CALLVALUE DUP1 ISZERO PUSH2 0x23E JUMPI PUSH1 0x0 DUP1 REVERT JUMPDEST POP PUSH2 0x247 PUSH2 0xC9A JUMP JUMPDEST PUSH1 0x40 MLOAD PUSH2 0x254 SWAP2 SWAP1 PUSH2 0x26BB JUMP JUMPDEST PUSH1 0x40 MLOAD DUP1 SWAP2 SUB SWAP1 RETURN JUMPDEST CALLVALUE DUP1 ISZERO PUSH2 0x269 JUMPI PUSH1 0x0 DUP1 REVERT JUMPDEST POP PUSH2 0x284 PUSH1 0x4 DUP1 CALLDATASIZE SUB DUP2 ADD SWAP1 PUSH2 0x27F SWAP2 SWAP1 PUSH2 0x26D6 JUMP JUMPDEST PUSH2 0xCA0 JUMP JUMPDEST STOP JUMPDEST CALLVALUE DUP1 ISZERO PUSH2 0x292 JUMPI PUSH1 0x0 DUP1 REVERT JUMPDEST POP PUSH2 0x2AD PUSH1 0x4 DUP1 CALLDATASIZE SUB DUP2 ADD SWAP1 PUSH2 0x2A8 SWAP2 SWAP1 PUSH2 0x27C5 JUMP JUMPDEST PUSH2 0xDE0 JUMP JUMPDEST STOP JUMPDEST CALLVALUE DUP1 ISZERO PUSH2 0x2BB JUMPI PUSH1 0x0 DUP1 REVERT JUMPDEST POP PUSH2 0x2D6 PUSH1 0x4 DUP1 CALLDATASIZE SUB DUP2 ADD SWAP1 PUSH2 0x2D1 SWAP2 SWAP1 PUSH2 0x2946 JUMP JUMPDEST PUSH2 0xE31 JUMP JUMPDEST PUSH1 0x40 MLOAD PUSH2 0x2E3 SWAP2 SWAP1 PUSH2 0x299E JUMP JUMPDEST PUSH1 0x40 MLOAD DUP1 SWAP2 SUB SWAP1 RETURN JUMPDEST CALLVALUE DUP1 ISZERO PUSH2 0x2F8 JUMPI PUSH1 0x0 DUP1 REVERT JUMPDEST POP PUSH2 0x301 PUSH2 0xE7A JUMP JUMPDEST STOP JUMPDEST CALLVALUE DUP1 ISZERO PUSH2 0x30F JUMPI PUSH1 0x0 DUP1 REVERT JUMPDEST POP PUSH2 0x318 PUSH2 0xE8E JUMP JUMPDEST PUSH1 0x40 MLOAD PUSH2 0x325 SWAP2 SWAP1 PUSH2 0x26BB JUMP JUMPDEST PUSH1 0x40 MLOAD DUP1 SWAP2 SUB SWAP1 RETURN JUMPDEST CALLVALUE DUP1 ISZERO PUSH2 0x33A JUMPI PUSH1 0x0 DUP1 REVERT JUMPDEST POP PUSH2 0x343 PUSH2 0xE94 JUMP JUMPDEST PUSH1 0x40 MLOAD PUSH2 0x350 SWAP2 SWAP1 PUSH2 0x29DA JUMP JUMPDEST PUSH1 0x40 MLOAD DUP1 SWAP2 SUB SWAP1 RETURN JUMPDEST CALLVALUE DUP1 ISZERO PUSH2 0x365 JUMPI PUSH1 0x0 DUP1 REVERT JUMPDEST POP PUSH2 0x36E PUSH2 0xEB8 JUMP JUMPDEST PUSH1 0x40 MLOAD PUSH2 0x37B SWAP2 SWAP1 PUSH2 0x299E JUMP JUMPDEST PUSH1 0x40 MLOAD DUP1 SWAP2 SUB SWAP1 RETURN JUMPDEST CALLVALUE DUP1 ISZERO PUSH2 0x390 JUMPI PUSH1 0x0 DUP1 REVERT JUMPDEST POP PUSH2 0x3AB PUSH1 0x4 DUP1 CALLDATASIZE SUB DUP2 ADD SWAP1 PUSH2 0x3A6 SWAP2 SWAP1 PUSH2 0x2AB8 JUMP JUMPDEST PUSH2 0xEE1 JUMP JUMPDEST STOP JUMPDEST CALLVALUE DUP1 ISZERO PUSH2 0x3B9 JUMPI PUSH1 0x0 DUP1 REVERT JUMPDEST POP PUSH2 0x3C2 PUSH2 0xF63 JUMP JUMPDEST PUSH1 0x40 MLOAD PUSH2 0x3CF SWAP2 SWAP1 PUSH2 0x26BB JUMP JUMPDEST PUSH1 0x40 MLOAD DUP1 SWAP2 SUB SWAP1 RETURN JUMPDEST CALLVALUE DUP1 ISZERO PUSH2 0x3E4 JUMPI PUSH1 0x0 DUP1 REVERT JUMPDEST POP PUSH2 0x3ED PUSH2 0xF69 JUMP JUMPDEST PUSH1 0x40 MLOAD PUSH2 0x3FA SWAP2 SWAP1 PUSH2 0x2492 JUMP JUMPDEST PUSH1 0x40 MLOAD DUP1 SWAP2 SUB SWAP1 RETURN JUMPDEST CALLVALUE DUP1 ISZERO PUSH2 0x40F JUMPI PUSH1 0x0 DUP1 REVERT JUMPDEST POP PUSH2 0x418 PUSH2 0xF7C JUMP JUMPDEST PUSH1 0x40 MLOAD PUSH2 0x425 SWAP2 SWAP1 PUSH2 0x299E JUMP JUMPDEST PUSH1 0x40 MLOAD DUP1 SWAP2 SUB SWAP1 RETURN JUMPDEST CALLVALUE DUP1 ISZERO PUSH2 0x43A JUMPI PUSH1 0x0 DUP1 REVERT JUMPDEST POP PUSH2 0x443 PUSH2 0xFA2 JUMP JUMPDEST STOP JUMPDEST CALLVALUE DUP1 ISZERO PUSH2 0x451 JUMPI PUSH1 0x0 DUP1 REVERT JUMPDEST POP PUSH2 0x46C PUSH1 0x4 DUP1 CALLDATASIZE SUB DUP2 ADD SWAP1 PUSH2 0x467 SWAP2 SWAP1 PUSH2 0x2B87 JUMP JUMPDEST PUSH2 0xFD6 JUMP JUMPDEST STOP JUMPDEST CALLVALUE DUP1 ISZERO PUSH2 0x47A JUMPI PUSH1 0x0 DUP1 REVERT JUMPDEST POP PUSH2 0x495 PUSH1 0x4 DUP1 CALLDATASIZE SUB DUP2 ADD SWAP1 PUSH2 0x490 SWAP2 SWAP1 PUSH2 0x229B JUMP JUMPDEST PUSH2 0x1100 JUMP JUMPDEST STOP JUMPDEST CALLVALUE DUP1 ISZERO PUSH2 0x4A3 JUMPI PUSH1 0x0 DUP1 REVERT JUMPDEST POP PUSH2 0x4BE PUSH1 0x4 DUP1 CALLDATASIZE SUB DUP2 ADD SWAP1 PUSH2 0x4B9 SWAP2 SWAP1 PUSH2 0x229B JUMP JUMPDEST PUSH2 0x1186 JUMP JUMPDEST PUSH1 0x40 MLOAD PUSH2 0x4CB SWAP2 SWAP1 PUSH2 0x26BB JUMP JUMPDEST PUSH1 0x40 MLOAD DUP1 SWAP2 SUB SWAP1 RETURN JUMPDEST PUSH2 0x4DC PUSH2 0x1209 JUMP JUMPDEST PUSH1 0x0 DUP2 PUSH20 0xFFFFFFFFFFFFFFFFFFFFFFFFFFFFFFFFFFFFFFFF AND PUSH4 0x70A08231 ADDRESS PUSH1 0x40 MLOAD DUP3 PUSH4 0xFFFFFFFF AND PUSH1 0xE0 SHL DUP2 MSTORE PUSH1 0x4 ADD PUSH2 0x517 SWAP2 SWAP1 PUSH2 0x299E JUMP JUMPDEST PUSH1 0x20 PUSH1 0x40 MLOAD DUP1 DUP4 SUB DUP2 DUP7 GAS STATICCALL ISZERO DUP1 ISZERO PUSH2 0x534 JUMPI RETURNDATASIZE PUSH1 0x0 DUP1 RETURNDATACOPY RETURNDATASIZE PUSH1 0x0 REVERT JUMPDEST POP POP POP POP PUSH1 0x40 MLOAD RETURNDATASIZE PUSH1 0x1F NOT PUSH1 0x1F DUP3 ADD AND DUP3 ADD DUP1 PUSH1 0x40 MSTORE POP DUP2 ADD SWAP1 PUSH2 0x558 SWAP2 SWAP1 PUSH2 0x2BFC JUMP JUMPDEST SWAP1 POP DUP2 PUSH20 0xFFFFFFFFFFFFFFFFFFFFFFFFFFFFFFFFFFFFFFFF AND PUSH4 0xA9059CBB PUSH2 0x57E PUSH2 0xEB8 JUMP JUMPDEST DUP4 PUSH1 0x40 MLOAD DUP4 PUSH4 0xFFFFFFFF AND PUSH1 0xE0 SHL DUP2 MSTORE PUSH1 0x4 ADD PUSH2 0x59C SWAP3 SWAP2 SWAP1 PUSH2 0x2C29 JUMP JUMPDEST PUSH1 0x20 PUSH1 0x40 MLOAD DUP1 DUP4 SUB DUP2 PUSH1 0x0 DUP8 GAS CALL ISZERO DUP1 ISZERO PUSH2 0x5BB JUMPI RETURNDATASIZE PUSH1 0x0 DUP1 RETURNDATACOPY RETURNDATASIZE PUSH1 0x0 REVERT JUMPDEST POP POP POP POP PUSH1 0x40 MLOAD RETURNDATASIZE PUSH1 0x1F NOT PUSH1 0x1F DUP3 ADD AND DUP3 ADD DUP1 PUSH1 0x40 MSTORE POP DUP2 ADD SWAP1 PUSH2 0x5DF SWAP2 SWAP1 PUSH2 0x2C7E JUMP JUMPDEST POP POP POP JUMP JUMPDEST PUSH32 0x0 DUP2 JUMP JUMPDEST PUSH1 0x0 PUSH32 0x0 PUSH20 0xFFFFFFFFFFFFFFFFFFFFFFFFFFFFFFFFFFFFFFFF AND CALLER PUSH20 0xFFFFFFFFFFFFFFFFFFFFFFFFFFFFFFFFFFFFFFFF AND EQ PUSH2 0x698 JUMPI PUSH1 0x40 MLOAD PUSH32 0x8C379A000000000000000000000000000000000000000000000000000000000 DUP2 MSTORE PUSH1 0x4 ADD PUSH2 0x68F SWAP1 PUSH2 0x2D08 JUMP JUMPDEST PUSH1 0x40 MLOAD DUP1 SWAP2 SUB SWAP1 REVERT JUMPDEST PUSH1 0x0 DUP8 PUSH20 0xFFFFFFFFFFFFFFFFFFFFFFFFFFFFFFFFFFFFFFFF AND PUSH4 0x70A08231 ADDRESS PUSH1 0x40 MLOAD DUP3 PUSH4 0xFFFFFFFF AND PUSH1 0xE0 SHL DUP2 MSTORE PUSH1 0x4 ADD PUSH2 0x6D3 SWAP2 SWAP1 PUSH2 0x299E JUMP JUMPDEST PUSH1 0x20 PUSH1 0x40 MLOAD DUP1 DUP4 SUB DUP2 DUP7 GAS STATICCALL ISZERO DUP1 ISZERO PUSH2 0x6F0 JUMPI RETURNDATASIZE PUSH1 0x0 DUP1 RETURNDATACOPY RETURNDATASIZE PUSH1 0x0 REVERT JUMPDEST POP POP POP POP PUSH1 0x40 MLOAD RETURNDATASIZE PUSH1 0x1F NOT PUSH1 0x1F DUP3 ADD AND DUP3 ADD DUP1 PUSH1 0x40 MSTORE POP DUP2 ADD SWAP1 PUSH2 0x714 SWAP2 SWAP1 PUSH2 0x2BFC JUMP JUMPDEST SWAP1 POP PUSH2 0x755 PUSH1 0x40 MLOAD DUP1 PUSH1 0x40 ADD PUSH1 0x40 MSTORE DUP1 PUSH1 0xE DUP2 MSTORE PUSH1 0x20 ADD PUSH32 0x46697273742042616C616E63653A000000000000000000000000000000000000 DUP2 MSTORE POP DUP3 PUSH2 0x1290 JUMP JUMPDEST PUSH1 0x0 DUP1 PUSH1 0x0 DUP1 DUP8 DUP8 DUP2 ADD SWAP1 PUSH2 0x76A SWAP2 SWAP1 PUSH2 0x2D28 JUMP JUMPDEST SWAP4 POP SWAP4 POP SWAP4 POP SWAP4 POP ADDRESS PUSH20 0xFFFFFFFFFFFFFFFFFFFFFFFFFFFFFFFFFFFFFFFF AND PUSH4 0x9E537BEA DUP6 DUP6 DUP6 DUP16 DUP7 PUSH1 0x40 MLOAD DUP7 PUSH4 0xFFFFFFFF AND PUSH1 0xE0 SHL DUP2 MSTORE PUSH1 0x4 ADD PUSH2 0x7B3 SWAP6 SWAP5 SWAP4 SWAP3 SWAP2 SWAP1 PUSH2 0x2F0F JUMP JUMPDEST PUSH1 0x0 PUSH1 0x40 MLOAD DUP1 DUP4 SUB DUP2 PUSH1 0x0 DUP8 DUP1 EXTCODESIZE ISZERO DUP1 ISZERO PUSH2 0x7CD JUMPI PUSH1 0x0 DUP1 REVERT JUMPDEST POP GAS CALL SWAP3 POP POP POP DUP1 ISZERO PUSH2 0x7DE JUMPI POP PUSH1 0x1 JUMPDEST PUSH2 0x894 JUMPI PUSH2 0x7EA PUSH2 0x2F84 JUMP JUMPDEST DUP1 PUSH4 0x8C379A0 SUB PUSH2 0x84F JUMPI POP PUSH2 0x7FE PUSH2 0x2FA6 JUMP JUMPDEST DUP1 PUSH2 0x809 JUMPI POP PUSH2 0x851 JUMP JUMPDEST PUSH32 0x30024B247C7FB2EB5C560AD78987E1319CA2813E167AE8483D4A6F60517BD899 DUP2 PUSH1 0x40 MLOAD PUSH2 0x838 SWAP2 SWAP1 PUSH2 0x3036 JUMP JUMPDEST PUSH1 0x40 MLOAD DUP1 SWAP2 SUB SWAP1 LOG1 PUSH1 0x0 SWAP7 POP POP POP POP POP POP POP PUSH2 0xA34 JUMP JUMPDEST POP JUMPDEST PUSH32 0x30024B247C7FB2EB5C560AD78987E1319CA2813E167AE8483D4A6F60517BD899 PUSH1 0x40 MLOAD PUSH2 0x87E SWAP1 PUSH2 0x30A4 JUMP JUMPDEST PUSH1 0x40 MLOAD DUP1 SWAP2 SUB SWAP1 LOG1 PUSH1 0x0 SWAP6 POP POP POP POP POP POP PUSH2 0xA34 JUMP JUMPDEST PUSH2 0x8A0 DUP13 DUP13 DUP13 DUP9 PUSH2 0x132C JUMP JUMPDEST PUSH1 0x0 DUP11 DUP13 PUSH2 0x8AE SWAP2 SWAP1 PUSH2 0x30F3 JUMP JUMPDEST SWAP1 POP DUP13 PUSH20 0xFFFFFFFFFFFFFFFFFFFFFFFFFFFFFFFFFFFFFFFF AND PUSH4 0x95EA7B3 PUSH32 0x0 DUP4 PUSH1 0x40 MLOAD DUP4 PUSH4 0xFFFFFFFF AND PUSH1 0xE0 SHL DUP2 MSTORE PUSH1 0x4 ADD PUSH2 0x90B SWAP3 SWAP2 SWAP1 PUSH2 0x2C29 JUMP JUMPDEST PUSH1 0x20 PUSH1 0x40 MLOAD DUP1 DUP4 SUB DUP2 PUSH1 0x0 DUP8 GAS CALL ISZERO DUP1 ISZERO PUSH2 0x92A JUMPI RETURNDATASIZE PUSH1 0x0 DUP1 RETURNDATACOPY RETURNDATASIZE PUSH1 0x0 REVERT JUMPDEST POP POP POP POP PUSH1 0x40 MLOAD RETURNDATASIZE PUSH1 0x1F NOT PUSH1 0x1F DUP3 ADD AND DUP3 ADD DUP1 PUSH1 0x40 MSTORE POP DUP2 ADD SWAP1 PUSH2 0x94E SWAP2 SWAP1 PUSH2 0x2C7E JUMP JUMPDEST POP PUSH2 0xA29 PUSH1 0x40 MLOAD DUP1 PUSH1 0x40 ADD PUSH1 0x40 MSTORE DUP1 PUSH1 0x10 DUP2 MSTORE PUSH1 0x20 ADD PUSH32 0x46696E616C20616C6C6F77616E63653A00000000000000000000000000000000 DUP2 MSTORE POP DUP15 PUSH20 0xFFFFFFFFFFFFFFFFFFFFFFFFFFFFFFFFFFFFFFFF AND PUSH4 0xDD62ED3E ADDRESS PUSH32 0x0 PUSH1 0x40 MLOAD DUP4 PUSH4 0xFFFFFFFF AND PUSH1 0xE0 SHL DUP2 MSTORE PUSH1 0x4 ADD PUSH2 0x9E3 SWAP3 SWAP2 SWAP1 PUSH2 0x3127 JUMP JUMPDEST PUSH1 0x20 PUSH1 0x40 MLOAD DUP1 DUP4 SUB DUP2 DUP7 GAS STATICCALL ISZERO DUP1 ISZERO PUSH2 0xA00 JUMPI RETURNDATASIZE PUSH1 0x0 DUP1 RETURNDATACOPY RETURNDATASIZE PUSH1 0x0 REVERT JUMPDEST POP POP POP POP PUSH1 0x40 MLOAD RETURNDATASIZE PUSH1 0x1F NOT PUSH1 0x1F DUP3 ADD AND DUP3 ADD DUP1 PUSH1 0x40 MSTORE POP DUP2 ADD SWAP1 PUSH2 0xA24 SWAP2 SWAP1 PUSH2 0x2BFC JUMP JUMPDEST PUSH2 0x1290 JUMP JUMPDEST PUSH1 0x1 SWAP7 POP POP POP POP POP POP POP JUMPDEST SWAP7 SWAP6 POP POP POP POP POP POP JUMP JUMPDEST PUSH1 0x0 DUP1 PUSH1 0x0 PUSH2 0xA51 DUP6 DUP6 DUP12 DUP12 DUP12 DUP12 PUSH2 0x1915 JUMP JUMPDEST DUP11 PUSH20 0xFFFFFFFFFFFFFFFFFFFFFFFFFFFFFFFFFFFFFFFF AND DUP6 DUP6 PUSH1 0x0 DUP2 DUP2 LT PUSH2 0xA7C JUMPI PUSH2 0xA7B PUSH2 0x3150 JUMP JUMPDEST JUMPDEST SWAP1 POP PUSH1 0x20 MUL ADD PUSH1 0x20 DUP2 ADD SWAP1 PUSH2 0xA91 SWAP2 SWAP1 PUSH2 0x229B JUMP JUMPDEST PUSH20 0xFFFFFFFFFFFFFFFFFFFFFFFFFFFFFFFFFFFFFFFF AND EQ PUSH2 0xAE7 JUMPI PUSH1 0x40 MLOAD PUSH32 0x8C379A000000000000000000000000000000000000000000000000000000000 DUP2 MSTORE PUSH1 0x4 ADD PUSH2 0xADE SWAP1 PUSH2 0x31F1 JUMP JUMPDEST PUSH1 0x40 MLOAD DUP1 SWAP2 SUB SWAP1 REVERT JUMPDEST PUSH1 0x0 PUSH2 0xAF2 DUP12 PUSH2 0x1AC1 JUMP JUMPDEST DUP12 PUSH2 0xAFD SWAP2 SWAP1 PUSH2 0x30F3 JUMP JUMPDEST SWAP1 POP PUSH1 0x0 PUSH2 0xB4E DUP12 DUP12 DUP15 DUP11 DUP11 DUP1 DUP1 PUSH1 0x20 MUL PUSH1 0x20 ADD PUSH1 0x40 MLOAD SWAP1 DUP2 ADD PUSH1 0x40 MSTORE DUP1 SWAP4 SWAP3 SWAP2 SWAP1 DUP2 DUP2 MSTORE PUSH1 0x20 ADD DUP4 DUP4 PUSH1 0x20 MUL DUP1 DUP3 DUP5 CALLDATACOPY PUSH1 0x0 DUP2 DUP5 ADD MSTORE PUSH1 0x1F NOT PUSH1 0x1F DUP3 ADD AND SWAP1 POP DUP1 DUP4 ADD SWAP3 POP POP POP POP POP POP POP PUSH2 0x1AE4 JUMP JUMPDEST SWAP1 POP PUSH2 0xBA5 DUP10 DUP10 DUP4 PUSH2 0xBA0 DUP12 DUP12 DUP1 DUP1 PUSH1 0x20 MUL PUSH1 0x20 ADD PUSH1 0x40 MLOAD SWAP1 DUP2 ADD PUSH1 0x40 MSTORE DUP1 SWAP4 SWAP3 SWAP2 SWAP1 DUP2 DUP2 MSTORE PUSH1 0x20 ADD DUP4 DUP4 PUSH1 0x20 MUL DUP1 DUP3 DUP5 CALLDATACOPY PUSH1 0x0 DUP2 DUP5 ADD MSTORE PUSH1 0x1F NOT PUSH1 0x1F DUP3 ADD AND SWAP1 POP DUP1 DUP4 ADD SWAP3 POP POP POP POP POP POP POP PUSH2 0x1C4C JUMP JUMPDEST PUSH2 0x1AE4 JUMP JUMPDEST SWAP1 POP PUSH2 0xBB2 DUP2 DUP4 DUP15 PUSH2 0x1D3F JUMP JUMPDEST SWAP5 POP SWAP5 POP SWAP5 POP POP POP SWAP9 POP SWAP9 POP SWAP9 SWAP6 POP POP POP POP POP POP JUMP JUMPDEST PUSH2 0xBD0 PUSH2 0x1209 JUMP JUMPDEST PUSH2 0x9C4 DUP2 GT ISZERO PUSH2 0xC15 JUMPI PUSH1 0x40 MLOAD PUSH32 0x8C379A000000000000000000000000000000000000000000000000000000000 DUP2 MSTORE PUSH1 0x4 ADD PUSH2 0xC0C SWAP1 PUSH2 0x325D JUMP JUMPDEST PUSH1 0x40 MLOAD DUP1 SWAP2 SUB SWAP1 REVERT JUMPDEST DUP2 PUSH1 0x5 PUSH1 0x0 PUSH2 0x100 EXP DUP2 SLOAD DUP2 PUSH20 0xFFFFFFFFFFFFFFFFFFFFFFFFFFFFFFFFFFFFFFFF MUL NOT AND SWAP1 DUP4 PUSH20 0xFFFFFFFFFFFFFFFFFFFFFFFFFFFFFFFFFFFFFFFF AND MUL OR SWAP1 SSTORE POP DUP1 PUSH1 0x6 DUP2 SWAP1 SSTORE POP PUSH32 0xD75FE2E803472030F7E82CFEC86833E15FCC49687C50C2D1D4F1E8DF8A8F832F DUP3 DUP3 PUSH1 0x40 MLOAD PUSH2 0xC8E SWAP3 SWAP2 SWAP1 PUSH2 0x2C29 JUMP JUMPDEST PUSH1 0x40 MLOAD DUP1 SWAP2 SUB SWAP1 LOG1 POP POP JUMP JUMPDEST PUSH1 0x4 SLOAD DUP2 JUMP JUMPDEST PUSH2 0xCA8 PUSH2 0x1209 JUMP JUMPDEST PUSH1 0x2 PUSH1 0x0 SWAP1 SLOAD SWAP1 PUSH2 0x100 EXP SWAP1 DIV PUSH1 0xFF AND ISZERO PUSH2 0xCF8 JUMPI PUSH1 0x40 MLOAD PUSH32 0x8C379A000000000000000000000000000000000000000000000000000000000 DUP2 MSTORE PUSH1 0x4 ADD PUSH2 0xCEF SWAP1 PUSH2 0x32C9 JUMP JUMPDEST PUSH1 0x40 MLOAD DUP1 SWAP2 SUB SWAP1 REVERT JUMPDEST PUSH2 0xD00 PUSH2 0x1DB1 JUMP JUMPDEST PUSH2 0xD0E DUP4 DUP4 DUP10 DUP10 DUP10 DUP10 PUSH2 0x1915 JUMP JUMPDEST PUSH32 0x0 PUSH20 0xFFFFFFFFFFFFFFFFFFFFFFFFFFFFFFFFFFFFFFFF AND PUSH4 0x42B0B77C ADDRESS DUP12 DUP12 DUP12 DUP12 DUP12 DUP12 DUP12 DUP12 DUP12 PUSH1 0x40 MLOAD PUSH1 0x20 ADD PUSH2 0xD6A SWAP8 SWAP7 SWAP6 SWAP5 SWAP4 SWAP3 SWAP2 SWAP1 PUSH2 0x33A1 JUMP JUMPDEST PUSH1 0x40 MLOAD PUSH1 0x20 DUP2 DUP4 SUB SUB DUP2 MSTORE SWAP1 PUSH1 0x40 MSTORE PUSH1 0x0 PUSH1 0x40 MLOAD DUP7 PUSH4 0xFFFFFFFF AND PUSH1 0xE0 SHL DUP2 MSTORE PUSH1 0x4 ADD PUSH2 0xD9B SWAP6 SWAP5 SWAP4 SWAP3 SWAP2 SWAP1 PUSH2 0x349F JUMP JUMPDEST PUSH1 0x0 PUSH1 0x40 MLOAD DUP1 DUP4 SUB DUP2 PUSH1 0x0 DUP8 DUP1 EXTCODESIZE ISZERO DUP1 ISZERO PUSH2 0xDB5 JUMPI PUSH1 0x0 DUP1 REVERT JUMPDEST POP GAS CALL ISZERO DUP1 ISZERO PUSH2 0xDC9 JUMPI RETURNDATASIZE PUSH1 0x0 DUP1 RETURNDATACOPY RETURNDATASIZE PUSH1 0x0 REVERT JUMPDEST POP POP POP POP PUSH2 0xDD5 PUSH2 0x1DF7 JUMP JUMPDEST POP POP POP POP POP POP POP POP POP JUMP JUMPDEST PUSH2 0xDE8 PUSH2 0x1209 JUMP JUMPDEST DUP2 PUSH1 0x3 DUP2 SWAP1 SSTORE POP DUP1 PUSH1 0x4 DUP2 SWAP1 SSTORE POP PUSH32 0xC5023CC86199E71CA52157B0B124DDBDA596C9FB8BAB5BB7028D162FA3ED5545 DUP3 PUSH1 0x40 MLOAD PUSH2 0xE25 SWAP2 SWAP1 PUSH2 0x26BB JUMP JUMPDEST PUSH1 0x40 MLOAD DUP1 SWAP2 SUB SWAP1 LOG1 POP POP JUMP JUMPDEST PUSH1 0x7 DUP2 DUP1 MLOAD PUSH1 0x20 DUP2 ADD DUP3 ADD DUP1 MLOAD DUP5 DUP3 MSTORE PUSH1 0x20 DUP4 ADD PUSH1 0x20 DUP6 ADD KECCAK256 DUP2 DUP4 MSTORE DUP1 SWAP6 POP POP POP POP POP POP PUSH1 0x0 SWAP2 POP SLOAD SWAP1 PUSH2 0x100 EXP SWAP1 DIV PUSH20 0xFFFFFFFFFFFFFFFFFFFFFFFFFFFFFFFFFFFFFFFF AND DUP2 JUMP JUMPDEST PUSH2 0xE82 PUSH2 0x1209 JUMP JUMPDEST PUSH2 0xE8C PUSH1 0x0 PUSH2 0x1E00 JUMP JUMPDEST JUMP JUMPDEST PUSH1 0x3 SLOAD DUP2 JUMP JUMPDEST PUSH32 0x0 DUP2 JUMP JUMPDEST PUSH1 0x0 DUP1 PUSH1 0x0 SWAP1 SLOAD SWAP1 PUSH2 0x100 EXP SWAP1 DIV PUSH20 0xFFFFFFFFFFFFFFFFFFFFFFFFFFFFFFFFFFFFFFFF AND SWAP1 POP SWAP1 JUMP JUMPDEST ADDRESS PUSH20 0xFFFFFFFFFFFFFFFFFFFFFFFFFFFFFFFFFFFFFFFF AND CALLER PUSH20 0xFFFFFFFFFFFFFFFFFFFFFFFFFFFFFFFFFFFFFFFF AND EQ PUSH2 0xF4F JUMPI PUSH1 0x40 MLOAD PUSH32 0x8C379A000000000000000000000000000000000000000000000000000000000 DUP2 MSTORE PUSH1 0x4 ADD PUSH2 0xF46 SWAP1 PUSH2 0x3545 JUMP JUMPDEST PUSH1 0x40 MLOAD DUP1 SWAP2 SUB SWAP1 REVERT JUMPDEST PUSH2 0xF5C DUP6 DUP6 DUP6 DUP6 DUP6 PUSH2 0x1EC4 JUMP JUMPDEST POP POP POP POP POP JUMP JUMPDEST PUSH1 0x6 SLOAD DUP2 JUMP JUMPDEST PUSH1 0x2 PUSH1 0x0 SWAP1 SLOAD SWAP1 PUSH2 0x100 EXP SWAP1 DIV PUSH1 0xFF AND DUP2 JUMP JUMPDEST PUSH1 0x5 PUSH1 0x0 SWAP1 SLOAD SWAP1 PUSH2 0x100 EXP SWAP1 DIV PUSH20 0xFFFFFFFFFFFFFFFFFFFFFFFFFFFFFFFFFFFFFFFF AND DUP2 JUMP JUMPDEST PUSH2 0xFAA PUSH2 0x1209 JUMP JUMPDEST PUSH1 0x2 PUSH1 0x0 SWAP1 SLOAD SWAP1 PUSH2 0x100 EXP SWAP1 DIV PUSH1 0xFF AND ISZERO PUSH1 0x2 PUSH1 0x0 PUSH2 0x100 EXP DUP2 SLOAD DUP2 PUSH1 0xFF MUL NOT AND SWAP1 DUP4 ISZERO ISZERO MUL OR SWAP1 SSTORE POP JUMP JUMPDEST PUSH2 0xFDE PUSH2 0x1209 JUMP JUMPDEST PUSH1 0x0 PUSH20 0xFFFFFFFFFFFFFFFFFFFFFFFFFFFFFFFFFFFFFFFF AND DUP2 PUSH20 0xFFFFFFFFFFFFFFFFFFFFFFFFFFFFFFFFFFFFFFFF AND SUB PUSH2 0x104D JUMPI PUSH1 0x40 MLOAD PUSH32 0x8C379A000000000000000000000000000000000000000000000000000000000 DUP2 MSTORE PUSH1 0x4 ADD PUSH2 0x1044 SWAP1 PUSH2 0x35B1 JUMP JUMPDEST PUSH1 0x40 MLOAD DUP1 SWAP2 SUB SWAP1 REVERT JUMPDEST DUP1 PUSH1 0x7 DUP5 DUP5 PUSH1 0x40 MLOAD PUSH2 0x1060 SWAP3 SWAP2 SWAP1 PUSH2 0x3601 JUMP JUMPDEST SWAP1 DUP2 MSTORE PUSH1 0x20 ADD PUSH1 0x40 MLOAD DUP1 SWAP2 SUB SWAP1 KECCAK256 PUSH1 0x0 PUSH2 0x100 EXP DUP2 SLOAD DUP2 PUSH20 0xFFFFFFFFFFFFFFFFFFFFFFFFFFFFFFFFFFFFFFFF MUL NOT AND SWAP1 DUP4 PUSH20 0xFFFFFFFFFFFFFFFFFFFFFFFFFFFFFFFFFFFFFFFF AND MUL OR SWAP1 SSTORE POP DUP3 DUP3 PUSH1 0x40 MLOAD PUSH2 0x10BC SWAP3 SWAP2 SWAP1 PUSH2 0x3601 JUMP JUMPDEST PUSH1 0x40 MLOAD DUP1 SWAP2 SUB SWAP1 KECCAK256 PUSH32 0xCD9EB1D8EAEF2A7A704D54B38F07DB521CFE05CFF25C1A73F862370C47A2F4E4 DUP3 PUSH1 0x40 MLOAD PUSH2 0x10F3 SWAP2 SWAP1 PUSH2 0x299E JUMP JUMPDEST PUSH1 0x40 MLOAD DUP1 SWAP2 SUB SWAP1 LOG2 POP POP POP JUMP JUMPDEST PUSH2 0x1108 PUSH2 0x1209 JUMP JUMPDEST PUSH1 0x0 PUSH20 0xFFFFFFFFFFFFFFFFFFFFFFFFFFFFFFFFFFFFFFFF AND DUP2 PUSH20 0xFFFFFFFFFFFFFFFFFFFFFFFFFFFFFFFFFFFFFFFF AND SUB PUSH2 0x117A JUMPI PUSH1 0x0 PUSH1 0x40 MLOAD PUSH32 0x1E4FBDF700000000000000000000000000000000000000000000000000000000 DUP2 MSTORE PUSH1 0x4 ADD PUSH2 0x1171 SWAP2 SWAP1 PUSH2 0x299E JUMP JUMPDEST PUSH1 0x40 MLOAD DUP1 SWAP2 SUB SWAP1 REVERT JUMPDEST PUSH2 0x1183 DUP2 PUSH2 0x1E00 JUMP JUMPDEST POP JUMP JUMPDEST PUSH1 0x0 DUP2 PUSH20 0xFFFFFFFFFFFFFFFFFFFFFFFFFFFFFFFFFFFFFFFF AND PUSH4 0x70A08231 ADDRESS PUSH1 0x40 MLOAD DUP3 PUSH4 0xFFFFFFFF AND PUSH1 0xE0 SHL DUP2 MSTORE PUSH1 0x4 ADD PUSH2 0x11C1 SWAP2 SWAP1 PUSH2 0x299E JUMP JUMPDEST PUSH1 0x20 PUSH1 0x40 MLOAD DUP1 DUP4 SUB DUP2 DUP7 GAS STATICCALL ISZERO DUP1 ISZERO PUSH2 0x11DE JUMPI RETURNDATASIZE PUSH1 0x0 DUP1 RETURNDATACOPY RETURNDATASIZE PUSH1 0x0 REVERT JUMPDEST POP POP POP POP PUSH1 0x40 MLOAD RETURNDATASIZE PUSH1 0x1F NOT PUSH1 0x1F DUP3 ADD AND DUP3 ADD DUP1 PUSH1 0x40 MSTORE POP DUP2 ADD SWAP1 PUSH2 0x1202 SWAP2 SWAP1 PUSH2 0x2BFC JUMP JUMPDEST SWAP1 POP SWAP2 SWAP1 POP JUMP JUMPDEST PUSH2 0x1211 PUSH2 0x200E JUMP JUMPDEST PUSH20 0xFFFFFFFFFFFFFFFFFFFFFFFFFFFFFFFFFFFFFFFF AND PUSH2 0x122F PUSH2 0xEB8 JUMP JUMPDEST PUSH20 0xFFFFFFFFFFFFFFFFFFFFFFFFFFFFFFFFFFFFFFFF AND EQ PUSH2 0x128E JUMPI PUSH2 0x1252 PUSH2 0x200E JUMP JUMPDEST PUSH1 0x40 MLOAD PUSH32 0x118CDAA700000000000000000000000000000000000000000000000000000000 DUP2 MSTORE PUSH1 0x4 ADD PUSH2 0x1285 SWAP2 SWAP1 PUSH2 0x299E JUMP JUMPDEST PUSH1 0x40 MLOAD DUP1 SWAP2 SUB SWAP1 REVERT JUMPDEST JUMP JUMPDEST PUSH2 0x1328 DUP3 DUP3 PUSH1 0x40 MLOAD PUSH1 0x24 ADD PUSH2 0x12A6 SWAP3 SWAP2 SWAP1 PUSH2 0x361A JUMP JUMPDEST PUSH1 0x40 MLOAD PUSH1 0x20 DUP2 DUP4 SUB SUB DUP2 MSTORE SWAP1 PUSH1 0x40 MSTORE PUSH32 0xB60E72CC00000000000000000000000000000000000000000000000000000000 PUSH28 0xFFFFFFFFFFFFFFFFFFFFFFFFFFFFFFFFFFFFFFFFFFFFFFFFFFFFFFFF NOT AND PUSH1 0x20 DUP3 ADD DUP1 MLOAD PUSH28 0xFFFFFFFFFFFFFFFFFFFFFFFFFFFFFFFFFFFFFFFFFFFFFFFFFFFFFFFF DUP4 DUP2 DUP4 AND OR DUP4 MSTORE POP POP POP POP PUSH2 0x2016 JUMP JUMPDEST POP POP JUMP JUMPDEST PUSH2 0x136A PUSH1 0x40 MLOAD DUP1 PUSH1 0x40 ADD PUSH1 0x40 MSTORE DUP1 PUSH1 0x1A DUP2 MSTORE PUSH1 0x20 ADD PUSH32 0xA3D3D3D2050726F63657373696E672050726F666974203D3D3D000000000000 DUP2 MSTORE POP PUSH2 0x2030 JUMP JUMPDEST PUSH1 0x0 DUP5 PUSH20 0xFFFFFFFFFFFFFFFFFFFFFFFFFFFFFFFFFFFFFFFF AND PUSH4 0x70A08231 ADDRESS PUSH1 0x40 MLOAD DUP3 PUSH4 0xFFFFFFFF AND PUSH1 0xE0 SHL DUP2 MSTORE PUSH1 0x4 ADD PUSH2 0x13A5 SWAP2 SWAP1 PUSH2 0x299E JUMP JUMPDEST PUSH1 0x20 PUSH1 0x40 MLOAD DUP1 DUP4 SUB DUP2 DUP7 GAS STATICCALL ISZERO DUP1 ISZERO PUSH2 0x13C2 JUMPI RETURNDATASIZE PUSH1 0x0 DUP1 RETURNDATACOPY RETURNDATASIZE PUSH1 0x0 REVERT JUMPDEST POP POP POP POP PUSH1 0x40 MLOAD RETURNDATASIZE PUSH1 0x1F NOT PUSH1 0x1F DUP3 ADD AND DUP3 ADD DUP1 PUSH1 0x40 MSTORE POP DUP2 ADD SWAP1 PUSH2 0x13E6 SWAP2 SWAP1 PUSH2 0x2BFC JUMP JUMPDEST SWAP1 POP PUSH2 0x1427 PUSH1 0x40 MLOAD DUP1 PUSH1 0x40 ADD PUSH1 0x40 MSTORE DUP1 PUSH1 0xE DUP2 MSTORE PUSH1 0x20 ADD PUSH32 0x46696E616C2062616C616E63653A000000000000000000000000000000000000 DUP2 MSTORE POP DUP3 PUSH2 0x1290 JUMP JUMPDEST PUSH1 0x0 DUP4 DUP6 PUSH2 0x1435 SWAP2 SWAP1 PUSH2 0x30F3 JUMP JUMPDEST SWAP1 POP PUSH2 0x1476 PUSH1 0x40 MLOAD DUP1 PUSH1 0x40 ADD PUSH1 0x40 MSTORE DUP1 PUSH1 0xB DUP2 MSTORE PUSH1 0x20 ADD PUSH32 0x546F74616C206F7765643A000000000000000000000000000000000000000000 DUP2 MSTORE POP DUP3 PUSH2 0x1290 JUMP JUMPDEST PUSH2 0x14B4 PUSH1 0x40 MLOAD DUP1 PUSH1 0x40 ADD PUSH1 0x40 MSTORE DUP1 PUSH1 0x16 DUP2 MSTORE PUSH1 0x20 ADD PUSH32 0x417070726F76696E672072657061796D656E742E2E2E00000000000000000000 DUP2 MSTORE POP PUSH2 0x2030 JUMP JUMPDEST DUP6 PUSH20 0xFFFFFFFFFFFFFFFFFFFFFFFFFFFFFFFFFFFFFFFF AND PUSH4 0x95EA7B3 PUSH32 0x0 DUP4 PUSH1 0x40 MLOAD DUP4 PUSH4 0xFFFFFFFF AND PUSH1 0xE0 SHL DUP2 MSTORE PUSH1 0x4 ADD PUSH2 0x150F SWAP3 SWAP2 SWAP1 PUSH2 0x2C29 JUMP JUMPDEST PUSH1 0x20 PUSH1 0x40 MLOAD DUP1 DUP4 SUB DUP2 PUSH1 0x0 DUP8 GAS CALL ISZERO DUP1 ISZERO PUSH2 0x152E JUMPI RETURNDATASIZE PUSH1 0x0 DUP1 RETURNDATACOPY RETURNDATASIZE PUSH1 0x0 REVERT JUMPDEST POP POP POP POP PUSH1 0x40 MLOAD RETURNDATASIZE PUSH1 0x1F NOT PUSH1 0x1F DUP3 ADD AND DUP3 ADD DUP1 PUSH1 0x40 MSTORE POP DUP2 ADD SWAP1 PUSH2 0x1552 SWAP2 SWAP1 PUSH2 0x2C7E JUMP JUMPDEST POP DUP1 DUP3 LT ISZERO PUSH2 0x1596 JUMPI PUSH1 0x40 MLOAD PUSH32 0x8C379A000000000000000000000000000000000000000000000000000000000 DUP2 MSTORE PUSH1 0x4 ADD PUSH2 0x158D SWAP1 PUSH2 0x3696 JUMP JUMPDEST PUSH1 0x40 MLOAD DUP1 SWAP2 SUB SWAP1 REVERT JUMPDEST PUSH1 0x0 DUP2 DUP4 PUSH2 0x15A4 SWAP2 SWAP1 PUSH2 0x36B6 JUMP JUMPDEST SWAP1 POP PUSH2 0x15E5 PUSH1 0x40 MLOAD DUP1 PUSH1 0x40 ADD PUSH1 0x40 MSTORE DUP1 PUSH1 0xD DUP2 MSTORE PUSH1 0x20 ADD PUSH32 0x47726F73732070726F6669743A00000000000000000000000000000000000000 DUP2 MSTORE POP DUP3 PUSH2 0x1290 JUMP JUMPDEST PUSH1 0x3 SLOAD DUP2 LT ISZERO PUSH2 0x162A JUMPI PUSH1 0x40 MLOAD PUSH32 0x8C379A000000000000000000000000000000000000000000000000000000000 DUP2 MSTORE PUSH1 0x4 ADD PUSH2 0x1621 SWAP1 PUSH2 0x3736 JUMP JUMPDEST PUSH1 0x40 MLOAD DUP1 SWAP2 SUB SWAP1 REVERT JUMPDEST PUSH1 0x0 PUSH2 0x2710 PUSH1 0x6 SLOAD DUP4 PUSH2 0x163D SWAP2 SWAP1 PUSH2 0x3756 JUMP JUMPDEST PUSH2 0x1647 SWAP2 SWAP1 PUSH2 0x37C7 JUMP JUMPDEST SWAP1 POP PUSH2 0x1688 PUSH1 0x40 MLOAD DUP1 PUSH1 0x40 ADD PUSH1 0x40 MSTORE DUP1 PUSH1 0xB DUP2 MSTORE PUSH1 0x20 ADD PUSH32 0x46656520616D6F756E743A000000000000000000000000000000000000000000 DUP2 MSTORE POP DUP3 PUSH2 0x1290 JUMP JUMPDEST PUSH1 0x0 DUP2 GT ISZERO PUSH2 0x1869 JUMPI PUSH2 0x172C PUSH1 0x40 MLOAD DUP1 PUSH1 0x60 ADD PUSH1 0x40 MSTORE DUP1 PUSH1 0x25 DUP2 MSTORE PUSH1 0x20 ADD PUSH2 0x3BED PUSH1 0x25 SWAP2 CODECOPY DUP10 PUSH20 0xFFFFFFFFFFFFFFFFFFFFFFFFFFFFFFFFFFFFFFFF AND PUSH4 0x70A08231 ADDRESS PUSH1 0x40 MLOAD DUP3 PUSH4 0xFFFFFFFF AND PUSH1 0xE0 SHL DUP2 MSTORE PUSH1 0x4 ADD PUSH2 0x16E6 SWAP2 SWAP1 PUSH2 0x299E JUMP JUMPDEST PUSH1 0x20 PUSH1 0x40 MLOAD DUP1 DUP4 SUB DUP2 DUP7 GAS STATICCALL ISZERO DUP1 ISZERO PUSH2 0x1703 JUMPI RETURNDATASIZE PUSH1 0x0 DUP1 RETURNDATACOPY RETURNDATASIZE PUSH1 0x0 REVERT JUMPDEST POP POP POP POP PUSH1 0x40 MLOAD RETURNDATASIZE PUSH1 0x1F NOT PUSH1 0x1F DUP3 ADD AND DUP3 ADD DUP1 PUSH1 0x40 MSTORE POP DUP2 ADD SWAP1 PUSH2 0x1727 SWAP2 SWAP1 PUSH2 0x2BFC JUMP JUMPDEST PUSH2 0x1290 JUMP JUMPDEST DUP8 PUSH20 0xFFFFFFFFFFFFFFFFFFFFFFFFFFFFFFFFFFFFFFFF AND PUSH4 0xA9059CBB PUSH1 0x5 PUSH1 0x0 SWAP1 SLOAD SWAP1 PUSH2 0x100 EXP SWAP1 DIV PUSH20 0xFFFFFFFFFFFFFFFFFFFFFFFFFFFFFFFFFFFFFFFF AND DUP4 PUSH1 0x40 MLOAD DUP4 PUSH4 0xFFFFFFFF AND PUSH1 0xE0 SHL DUP2 MSTORE PUSH1 0x4 ADD PUSH2 0x1789 SWAP3 SWAP2 SWAP1 PUSH2 0x2C29 JUMP JUMPDEST PUSH1 0x20 PUSH1 0x40 MLOAD DUP1 DUP4 SUB DUP2 PUSH1 0x0 DUP8 GAS CALL ISZERO DUP1 ISZERO PUSH2 0x17A8 JUMPI RETURNDATASIZE PUSH1 0x0 DUP1 RETURNDATACOPY RETURNDATASIZE PUSH1 0x0 REVERT JUMPDEST POP POP POP POP PUSH1 0x40 MLOAD RETURNDATASIZE PUSH1 0x1F NOT PUSH1 0x1F DUP3 ADD AND DUP3 ADD DUP1 PUSH1 0x40 MSTORE POP DUP2 ADD SWAP1 PUSH2 0x17CC SWAP2 SWAP1 PUSH2 0x2C7E JUMP JUMPDEST POP PUSH2 0x1868 PUSH1 0x40 MLOAD DUP1 PUSH1 0x60 ADD PUSH1 0x40 MSTORE DUP1 PUSH1 0x24 DUP2 MSTORE PUSH1 0x20 ADD PUSH2 0x3C12 PUSH1 0x24 SWAP2 CODECOPY DUP10 PUSH20 0xFFFFFFFFFFFFFFFFFFFFFFFFFFFFFFFFFFFFFFFF AND PUSH4 0x70A08231 ADDRESS PUSH1 0x40 MLOAD DUP3 PUSH4 0xFFFFFFFF AND PUSH1 0xE0 SHL DUP2 MSTORE PUSH1 0x4 ADD PUSH2 0x1822 SWAP2 SWAP1 PUSH2 0x299E JUMP JUMPDEST PUSH1 0x20 PUSH1 0x40 MLOAD DUP1 DUP4 SUB DUP2 DUP7 GAS STATICCALL ISZERO DUP1 ISZERO PUSH2 0x183F JUMPI RETURNDATASIZE PUSH1 0x0 DUP1 RETURNDATACOPY RETURNDATASIZE PUSH1 0x0 REVERT JUMPDEST POP POP POP POP PUSH1 0x40 MLOAD RETURNDATASIZE PUSH1 0x1F NOT PUSH1 0x1F DUP3 ADD AND DUP3 ADD DUP1 PUSH1 0x40 MSTORE POP DUP2 ADD SWAP1 PUSH2 0x1863 SWAP2 SWAP1 PUSH2 0x2BFC JUMP JUMPDEST PUSH2 0x1290 JUMP JUMPDEST JUMPDEST PUSH1 0x0 DUP2 DUP4 PUSH2 0x1877 SWAP2 SWAP1 PUSH2 0x36B6 JUMP JUMPDEST SWAP1 POP PUSH2 0x18B8 PUSH1 0x40 MLOAD DUP1 PUSH1 0x40 ADD PUSH1 0x40 MSTORE DUP1 PUSH1 0x14 DUP2 MSTORE PUSH1 0x20 ADD PUSH32 0x4E65742070726F6669742072657461696E65643A000000000000000000000000 DUP2 MSTORE POP DUP3 PUSH2 0x1290 JUMP JUMPDEST DUP9 PUSH20 0xFFFFFFFFFFFFFFFFFFFFFFFFFFFFFFFFFFFFFFFF AND PUSH32 0xAC5E73D65C7DF1A72A57E0D680767C7E764095957EE44EC036B761799B56AFD2 DUP10 DUP4 TIMESTAMP PUSH1 0x40 MLOAD PUSH2 0x1902 SWAP4 SWAP3 SWAP2 SWAP1 PUSH2 0x37F8 JUMP JUMPDEST PUSH1 0x40 MLOAD DUP1 SWAP2 SUB SWAP1 LOG2 POP POP POP POP POP POP POP POP POP JUMP JUMPDEST PUSH1 0x2 DUP7 DUP7 SWAP1 POP EQ PUSH2 0x195B JUMPI PUSH1 0x40 MLOAD PUSH32 0x8C379A000000000000000000000000000000000000000000000000000000000 DUP2 MSTORE PUSH1 0x4 ADD PUSH2 0x1952 SWAP1 PUSH2 0x387B JUMP JUMPDEST PUSH1 0x40 MLOAD DUP1 SWAP2 SUB SWAP1 REVERT JUMPDEST PUSH1 0x0 PUSH20 0xFFFFFFFFFFFFFFFFFFFFFFFFFFFFFFFFFFFFFFFF AND PUSH1 0x7 DUP6 DUP6 PUSH1 0x40 MLOAD PUSH2 0x1985 SWAP3 SWAP2 SWAP1 PUSH2 0x3601 JUMP JUMPDEST SWAP1 DUP2 MSTORE PUSH1 0x20 ADD PUSH1 0x40 MLOAD DUP1 SWAP2 SUB SWAP1 KECCAK256 PUSH1 0x0 SWAP1 SLOAD SWAP1 PUSH2 0x100 EXP SWAP1 DIV PUSH20 0xFFFFFFFFFFFFFFFFFFFFFFFFFFFFFFFFFFFFFFFF AND PUSH20 0xFFFFFFFFFFFFFFFFFFFFFFFFFFFFFFFFFFFFFFFF AND SUB PUSH2 0x1A0A JUMPI PUSH1 0x40 MLOAD PUSH32 0x8C379A000000000000000000000000000000000000000000000000000000000 DUP2 MSTORE PUSH1 0x4 ADD PUSH2 0x1A01 SWAP1 PUSH2 0x38E7 JUMP JUMPDEST PUSH1 0x40 MLOAD DUP1 SWAP2 SUB SWAP1 REVERT JUMPDEST PUSH1 0x0 PUSH20 0xFFFFFFFFFFFFFFFFFFFFFFFFFFFFFFFFFFFFFFFF AND PUSH1 0x7 DUP4 DUP4 PUSH1 0x40 MLOAD PUSH2 0x1A34 SWAP3 SWAP2 SWAP1 PUSH2 0x3601 JUMP JUMPDEST SWAP1 DUP2 MSTORE PUSH1 0x20 ADD PUSH1 0x40 MLOAD DUP1 SWAP2 SUB SWAP1 KECCAK256 PUSH1 0x0 SWAP1 SLOAD SWAP1 PUSH2 0x100 EXP SWAP1 DIV PUSH20 0xFFFFFFFFFFFFFFFFFFFFFFFFFFFFFFFFFFFFFFFF AND PUSH20 0xFFFFFFFFFFFFFFFFFFFFFFFFFFFFFFFFFFFFFFFF AND SUB PUSH2 0x1AB9 JUMPI PUSH1 0x40 MLOAD PUSH32 0x8C379A000000000000000000000000000000000000000000000000000000000 DUP2 MSTORE PUSH1 0x4 ADD PUSH2 0x1AB0 SWAP1 PUSH2 0x3953 JUMP JUMPDEST PUSH1 0x40 MLOAD DUP1 SWAP2 SUB SWAP1 REVERT JUMPDEST POP POP POP POP POP POP JUMP JUMPDEST PUSH1 0x0 PUSH2 0x2710 PUSH1 0x9 DUP4 PUSH2 0x1AD3 SWAP2 SWAP1 PUSH2 0x3756 JUMP JUMPDEST PUSH2 0x1ADD SWAP2 SWAP1 PUSH2 0x37C7 JUMP JUMPDEST SWAP1 POP SWAP2 SWAP1 POP JUMP JUMPDEST PUSH1 0x0 DUP1 PUSH1 0x7 DUP7 DUP7 PUSH1 0x40 MLOAD PUSH2 0x1AF9 SWAP3 SWAP2 SWAP1 PUSH2 0x3601 JUMP JUMPDEST SWAP1 DUP2 MSTORE PUSH1 0x20 ADD PUSH1 0x40 MLOAD DUP1 SWAP2 SUB SWAP1 KECCAK256 PUSH1 0x0 SWAP1 SLOAD SWAP1 PUSH2 0x100 EXP SWAP1 DIV PUSH20 0xFFFFFFFFFFFFFFFFFFFFFFFFFFFFFFFFFFFFFFFF AND SWAP1 POP PUSH1 0x0 PUSH20 0xFFFFFFFFFFFFFFFFFFFFFFFFFFFFFFFFFFFFFFFF AND DUP2 PUSH20 0xFFFFFFFFFFFFFFFFFFFFFFFFFFFFFFFFFFFFFFFF AND SUB PUSH2 0x1B99 JUMPI PUSH1 0x40 MLOAD PUSH32 0x8C379A000000000000000000000000000000000000000000000000000000000 DUP2 MSTORE PUSH1 0x4 ADD PUSH2 0x1B90 SWAP1 PUSH2 0x39BF JUMP JUMPDEST PUSH1 0x40 MLOAD DUP1 SWAP2 SUB SWAP1 REVERT JUMPDEST DUP1 PUSH20 0xFFFFFFFFFFFFFFFFFFFFFFFFFFFFFFFFFFFFFFFF AND PUSH4 0xD06CA61F DUP6 DUP6 PUSH1 0x40 MLOAD DUP4 PUSH4 0xFFFFFFFF AND PUSH1 0xE0 SHL DUP2 MSTORE PUSH1 0x4 ADD PUSH2 0x1BD4 SWAP3 SWAP2 SWAP1 PUSH2 0x39DF JUMP JUMPDEST PUSH1 0x0 PUSH1 0x40 MLOAD DUP1 DUP4 SUB DUP2 DUP7 GAS STATICCALL ISZERO DUP1 ISZERO PUSH2 0x1BF1 JUMPI RETURNDATASIZE PUSH1 0x0 DUP1 RETURNDATACOPY RETURNDATASIZE PUSH1 0x0 REVERT JUMPDEST POP POP POP POP PUSH1 0x40 MLOAD RETURNDATASIZE PUSH1 0x0 DUP3 RETURNDATACOPY RETURNDATASIZE PUSH1 0x1F NOT PUSH1 0x1F DUP3 ADD AND DUP3 ADD DUP1 PUSH1 0x40 MSTORE POP DUP2 ADD SWAP1 PUSH2 0x1C1A SWAP2 SWAP1 PUSH2 0x3AD2 JUMP JUMPDEST PUSH1 0x1 DUP5 MLOAD PUSH2 0x1C28 SWAP2 SWAP1 PUSH2 0x36B6 JUMP JUMPDEST DUP2 MLOAD DUP2 LT PUSH2 0x1C39 JUMPI PUSH2 0x1C38 PUSH2 0x3150 JUMP JUMPDEST JUMPDEST PUSH1 0x20 MUL PUSH1 0x20 ADD ADD MLOAD SWAP2 POP POP SWAP5 SWAP4 POP POP POP POP JUMP JUMPDEST PUSH1 0x60 PUSH1 0x0 DUP3 MLOAD PUSH8 0xFFFFFFFFFFFFFFFF DUP2 GT ISZERO PUSH2 0x1C6B JUMPI PUSH2 0x1C6A PUSH2 0x281B JUMP JUMPDEST JUMPDEST PUSH1 0x40 MLOAD SWAP1 DUP1 DUP3 MSTORE DUP1 PUSH1 0x20 MUL PUSH1 0x20 ADD DUP3 ADD PUSH1 0x40 MSTORE DUP1 ISZERO PUSH2 0x1C99 JUMPI DUP2 PUSH1 0x20 ADD PUSH1 0x20 DUP3 MUL DUP1 CALLDATASIZE DUP4 CALLDATACOPY DUP1 DUP3 ADD SWAP2 POP POP SWAP1 POP JUMPDEST POP SWAP1 POP PUSH1 0x0 JUMPDEST DUP4 MLOAD DUP2 LT ISZERO PUSH2 0x1D35 JUMPI DUP4 DUP2 PUSH1 0x1 DUP7 MLOAD PUSH2 0x1CB8 SWAP2 SWAP1 PUSH2 0x36B6 JUMP JUMPDEST PUSH2 0x1CC2 SWAP2 SWAP1 PUSH2 0x36B6 JUMP JUMPDEST DUP2 MLOAD DUP2 LT PUSH2 0x1CD3 JUMPI PUSH2 0x1CD2 PUSH2 0x3150 JUMP JUMPDEST JUMPDEST PUSH1 0x20 MUL PUSH1 0x20 ADD ADD MLOAD DUP3 DUP3 DUP2 MLOAD DUP2 LT PUSH2 0x1CEE JUMPI PUSH2 0x1CED PUSH2 0x3150 JUMP JUMPDEST JUMPDEST PUSH1 0x20 MUL PUSH1 0x20 ADD ADD SWAP1 PUSH20 0xFFFFFFFFFFFFFFFFFFFFFFFFFFFFFFFFFFFFFFFF AND SWAP1 DUP2 PUSH20 0xFFFFFFFFFFFFFFFFFFFFFFFFFFFFFFFFFFFFFFFF AND DUP2 MSTORE POP POP DUP1 DUP1 PUSH1 0x1 ADD SWAP2 POP POP PUSH2 0x1C9F JUMP JUMPDEST POP DUP1 SWAP2 POP POP SWAP2 SWAP1 POP JUMP JUMPDEST PUSH1 0x0 DUP1 PUSH1 0x0 DUP1 DUP6 DUP8 GT PUSH2 0x1D53 JUMPI PUSH1 0x0 PUSH2 0x1D60 JUMP JUMPDEST DUP6 DUP8 PUSH2 0x1D5F SWAP2 SWAP1 PUSH2 0x36B6 JUMP JUMPDEST JUMPDEST SWAP1 POP PUSH1 0x0 DUP6 PUSH2 0x2710 DUP9 DUP11 PUSH2 0x1D74 SWAP2 SWAP1 PUSH2 0x36B6 JUMP JUMPDEST PUSH2 0x1D7E SWAP2 SWAP1 PUSH2 0x3756 JUMP JUMPDEST PUSH2 0x1D88 SWAP2 SWAP1 PUSH2 0x37C7 JUMP JUMPDEST SWAP1 POP PUSH1 0x3 SLOAD DUP3 LT ISZERO DUP1 ISZERO PUSH2 0x1D9E JUMPI POP PUSH1 0x4 SLOAD DUP2 LT ISZERO JUMPDEST DUP3 DUP3 SWAP5 POP SWAP5 POP SWAP5 POP POP POP SWAP4 POP SWAP4 POP SWAP4 SWAP1 POP JUMP JUMPDEST PUSH1 0x2 PUSH1 0x1 SLOAD SUB PUSH2 0x1DED JUMPI PUSH1 0x40 MLOAD PUSH32 0x3EE5AEB500000000000000000000000000000000000000000000000000000000 DUP2 MSTORE PUSH1 0x4 ADD PUSH1 0x40 MLOAD DUP1 SWAP2 SUB SWAP1 REVERT JUMPDEST PUSH1 0x2 PUSH1 0x1 DUP2 SWAP1 SSTORE POP JUMP JUMPDEST PUSH1 0x1 DUP1 DUP2 SWAP1 SSTORE POP JUMP JUMPDEST PUSH1 0x0 DUP1 PUSH1 0x0 SWAP1 SLOAD SWAP1 PUSH2 0x100 EXP SWAP1 DIV PUSH20 0xFFFFFFFFFFFFFFFFFFFFFFFFFFFFFFFFFFFFFFFF AND SWAP1 POP DUP2 PUSH1 0x0 DUP1 PUSH2 0x100 EXP DUP2 SLOAD DUP2 PUSH20 0xFFFFFFFFFFFFFFFFFFFFFFFFFFFFFFFFFFFFFFFF MUL NOT AND SWAP1 DUP4 PUSH20 0xFFFFFFFFFFFFFFFFFFFFFFFFFFFFFFFFFFFFFFFF AND MUL OR SWAP1 SSTORE POP DUP2 PUSH20 0xFFFFFFFFFFFFFFFFFFFFFFFFFFFFFFFFFFFFFFFF AND DUP2 PUSH20 0xFFFFFFFFFFFFFFFFFFFFFFFFFFFFFFFFFFFFFFFF AND PUSH32 0x8BE0079C531659141344CD1FD0A4F28419497F9722A3DAAFE3B4186F6B6457E0 PUSH1 0x40 MLOAD PUSH1 0x40 MLOAD DUP1 SWAP2 SUB SWAP1 LOG3 POP POP JUMP JUMPDEST PUSH1 0x0 PUSH1 0x7 DUP7 PUSH1 0x40 MLOAD PUSH2 0x1ED6 SWAP2 SWAP1 PUSH2 0x3B4C JUMP JUMPDEST SWAP1 DUP2 MSTORE PUSH1 0x20 ADD PUSH1 0x40 MLOAD DUP1 SWAP2 SUB SWAP1 KECCAK256 PUSH1 0x0 SWAP1 SLOAD SWAP1 PUSH2 0x100 EXP SWAP1 DIV PUSH20 0xFFFFFFFFFFFFFFFFFFFFFFFFFFFFFFFFFFFFFFFF AND SWAP1 POP PUSH1 0x0 PUSH1 0x7 DUP7 PUSH1 0x40 MLOAD PUSH2 0x1F19 SWAP2 SWAP1 PUSH2 0x3B4C JUMP JUMPDEST SWAP1 DUP2 MSTORE PUSH1 0x20 ADD PUSH1 0x40 MLOAD DUP1 SWAP2 SUB SWAP1 KECCAK256 PUSH1 0x0 SWAP1 SLOAD SWAP1 PUSH2 0x100 EXP SWAP1 DIV PUSH20 0xFFFFFFFFFFFFFFFFFFFFFFFFFFFFFFFFFFFFFFFF AND SWAP1 POP PUSH2 0x1F57 DUP3 DUP7 DUP7 PUSH1 0x0 PUSH2 0x20C9 JUMP JUMPDEST PUSH1 0x0 DUP6 PUSH1 0x1 DUP2 MLOAD DUP2 LT PUSH2 0x1F6D JUMPI PUSH2 0x1F6C PUSH2 0x3150 JUMP JUMPDEST JUMPDEST PUSH1 0x20 MUL PUSH1 0x20 ADD ADD MLOAD PUSH20 0xFFFFFFFFFFFFFFFFFFFFFFFFFFFFFFFFFFFFFFFF AND PUSH4 0x70A08231 ADDRESS PUSH1 0x40 MLOAD DUP3 PUSH4 0xFFFFFFFF AND PUSH1 0xE0 SHL DUP2 MSTORE PUSH1 0x4 ADD PUSH2 0x1FAD SWAP2 SWAP1 PUSH2 0x299E JUMP JUMPDEST PUSH1 0x20 PUSH1 0x40 MLOAD DUP1 DUP4 SUB DUP2 DUP7 GAS STATICCALL ISZERO DUP1 ISZERO PUSH2 0x1FCA JUMPI RETURNDATASIZE PUSH1 0x0 DUP1 RETURNDATACOPY RETURNDATASIZE PUSH1 0x0 REVERT JUMPDEST POP POP POP POP PUSH1 0x40 MLOAD RETURNDATASIZE PUSH1 0x1F NOT PUSH1 0x1F DUP3 ADD AND DUP3 ADD DUP1 PUSH1 0x40 MSTORE POP DUP2 ADD SWAP1 PUSH2 0x1FEE SWAP2 SWAP1 PUSH2 0x2BFC JUMP JUMPDEST SWAP1 POP PUSH2 0x2004 DUP3 PUSH2 0x1FFD DUP9 PUSH2 0x1C4C JUMP JUMPDEST DUP4 DUP8 PUSH2 0x20C9 JUMP JUMPDEST POP POP POP POP POP POP POP POP JUMP JUMPDEST PUSH1 0x0 CALLER SWAP1 POP SWAP1 JUMP JUMPDEST PUSH2 0x202D DUP2 PUSH2 0x2025 PUSH2 0x21F3 PUSH2 0x2214 JUMP JUMPDEST PUSH4 0xFFFFFFFF AND JUMP JUMPDEST POP JUMP JUMPDEST PUSH2 0x20C6 DUP2 PUSH1 0x40 MLOAD PUSH1 0x24 ADD PUSH2 0x2044 SWAP2 SWAP1 PUSH2 0x3036 JUMP JUMPDEST PUSH1 0x40 MLOAD PUSH1 0x20 DUP2 DUP4 SUB SUB DUP2 MSTORE SWAP1 PUSH1 0x40 MSTORE PUSH32 0x41304FAC00000000000000000000000000000000000000000000000000000000 PUSH28 0xFFFFFFFFFFFFFFFFFFFFFFFFFFFFFFFFFFFFFFFFFFFFFFFFFFFFFFFF NOT AND PUSH1 0x20 DUP3 ADD DUP1 MLOAD PUSH28 0xFFFFFFFFFFFFFFFFFFFFFFFFFFFFFFFFFFFFFFFFFFFFFFFFFFFFFFFF DUP4 DUP2 DUP4 AND OR DUP4 MSTORE POP POP POP POP PUSH2 0x2016 JUMP JUMPDEST POP JUMP JUMPDEST DUP3 PUSH1 0x0 DUP2 MLOAD DUP2 LT PUSH2 0x20DD JUMPI PUSH2 0x20DC PUSH2 0x3150 JUMP JUMPDEST JUMPDEST PUSH1 0x20 MUL PUSH1 0x20 ADD ADD MLOAD PUSH20 0xFFFFFFFFFFFFFFFFFFFFFFFFFFFFFFFFFFFFFFFF AND PUSH4 0x95EA7B3 DUP6 DUP5 PUSH1 0x40 MLOAD DUP4 PUSH4 0xFFFFFFFF AND PUSH1 0xE0 SHL DUP2 MSTORE PUSH1 0x4 ADD PUSH2 0x211F SWAP3 SWAP2 SWAP1 PUSH2 0x2C29 JUMP JUMPDEST PUSH1 0x20 PUSH1 0x40 MLOAD DUP1 DUP4 SUB DUP2 PUSH1 0x0 DUP8 GAS CALL ISZERO DUP1 ISZERO PUSH2 0x213E JUMPI RETURNDATASIZE PUSH1 0x0 DUP1 RETURNDATACOPY RETURNDATASIZE PUSH1 0x0 REVERT JUMPDEST POP POP POP POP PUSH1 0x40 MLOAD RETURNDATASIZE PUSH1 0x1F NOT PUSH1 0x1F DUP3 ADD AND DUP3 ADD DUP1 PUSH1 0x40 MSTORE POP DUP2 ADD SWAP1 PUSH2 0x2162 SWAP2 SWAP1 PUSH2 0x2C7E JUMP JUMPDEST POP DUP4 PUSH20 0xFFFFFFFFFFFFFFFFFFFFFFFFFFFFFFFFFFFFFFFF AND PUSH4 0x38ED1739 DUP4 DUP4 DUP7 ADDRESS TIMESTAMP PUSH1 0x40 MLOAD DUP7 PUSH4 0xFFFFFFFF AND PUSH1 0xE0 SHL DUP2 MSTORE PUSH1 0x4 ADD PUSH2 0x21A4 SWAP6 SWAP5 SWAP4 SWAP3 SWAP2 SWAP1 PUSH2 0x3B63 JUMP JUMPDEST PUSH1 0x0 PUSH1 0x40 MLOAD DUP1 DUP4 SUB DUP2 PUSH1 0x0 DUP8 GAS CALL ISZERO DUP1 ISZERO PUSH2 0x21C3 JUMPI RETURNDATASIZE PUSH1 0x0 DUP1 RETURNDATACOPY RETURNDATASIZE PUSH1 0x0 REVERT JUMPDEST POP POP POP POP PUSH1 0x40 MLOAD RETURNDATASIZE PUSH1 0x0 DUP3 RETURNDATACOPY RETURNDATASIZE PUSH1 0x1F NOT PUSH1 0x1F DUP3 ADD AND DUP3 ADD DUP1 PUSH1 0x40 MSTORE POP DUP2 ADD SWAP1 PUSH2 0x21EC SWAP2 SWAP1 PUSH2 0x3AD2 JUMP JUMPDEST POP POP POP POP POP JUMP JUMPDEST PUSH1 0x0 PUSH11 0x636F6E736F6C652E6C6F67 SWAP1 POP PUSH1 0x0 DUP1 DUP4 MLOAD PUSH1 0x20 DUP6 ADD DUP5 GAS STATICCALL POP POP POP JUMP JUMPDEST PUSH2 0x221F DUP2 SWAP1 POP SWAP2 SWAP1 POP JUMP JUMPDEST PUSH2 0x2227 PUSH2 0x3BBD JUMP JUMPDEST JUMP JUMPDEST PUSH1 0x0 PUSH1 0x40 MLOAD SWAP1 POP SWAP1 JUMP JUMPDEST PUSH1 0x0 DUP1 REVERT JUMPDEST PUSH1 0x0 DUP1 REVERT JUMPDEST PUSH1 0x0 PUSH20 0xFFFFFFFFFFFFFFFFFFFFFFFFFFFFFFFFFFFFFFFF DUP3 AND SWAP1 POP SWAP2 SWAP1 POP JUMP JUMPDEST PUSH1 0x0 PUSH2 0x2268 DUP3 PUSH2 0x223D JUMP JUMPDEST SWAP1 POP SWAP2 SWAP1 POP JUMP JUMPDEST PUSH2 0x2278 DUP2 PUSH2 0x225D JUMP JUMPDEST DUP2 EQ PUSH2 0x2283 JUMPI PUSH1 0x0 DUP1 REVERT JUMPDEST POP JUMP JUMPDEST PUSH1 0x0 DUP2 CALLDATALOAD SWAP1 POP PUSH2 0x2295 DUP2 PUSH2 0x226F JUMP JUMPDEST SWAP3 SWAP2 POP POP JUMP JUMPDEST PUSH1 0x0 PUSH1 0x20 DUP3 DUP5 SUB SLT ISZERO PUSH2 0x22B1 JUMPI PUSH2 0x22B0 PUSH2 0x2233 JUMP JUMPDEST JUMPDEST PUSH1 0x0 PUSH2 0x22BF DUP5 DUP3 DUP6 ADD PUSH2 0x2286 JUMP JUMPDEST SWAP2 POP POP SWAP3 SWAP2 POP POP JUMP JUMPDEST PUSH1 0x0 DUP2 SWAP1 POP SWAP2 SWAP1 POP JUMP JUMPDEST PUSH1 0x0 PUSH2 0x22ED PUSH2 0x22E8 PUSH2 0x22E3 DUP5 PUSH2 0x223D JUMP JUMPDEST PUSH2 0x22C8 JUMP JUMPDEST PUSH2 0x223D JUMP JUMPDEST SWAP1 POP SWAP2 SWAP1 POP JUMP JUMPDEST PUSH1 0x0 PUSH2 0x22FF DUP3 PUSH2 0x22D2 JUMP JUMPDEST SWAP1 POP SWAP2 SWAP1 POP JUMP JUMPDEST PUSH1 0x0 PUSH2 0x2311 DUP3 PUSH2 0x22F4 JUMP JUMPDEST SWAP1 POP SWAP2 SWAP1 POP JUMP JUMPDEST PUSH2 0x2321 DUP2 PUSH2 0x2306 JUMP JUMPDEST DUP3 MSTORE POP POP JUMP JUMPDEST PUSH1 0x0 PUSH1 0x20 DUP3 ADD SWAP1 POP PUSH2 0x233C PUSH1 0x0 DUP4 ADD DUP5 PUSH2 0x2318 JUMP JUMPDEST SWAP3 SWAP2 POP POP JUMP JUMPDEST PUSH1 0x0 DUP2 SWAP1 POP SWAP2 SWAP1 POP JUMP JUMPDEST PUSH2 0x2355 DUP2 PUSH2 0x2342 JUMP JUMPDEST DUP2 EQ PUSH2 0x2360 JUMPI PUSH1 0x0 DUP1 REVERT JUMPDEST POP JUMP JUMPDEST PUSH1 0x0 DUP2 CALLDATALOAD SWAP1 POP PUSH2 0x2372 DUP2 PUSH2 0x234C JUMP JUMPDEST SWAP3 SWAP2 POP POP JUMP JUMPDEST PUSH1 0x0 DUP1 REVERT JUMPDEST PUSH1 0x0 DUP1 REVERT JUMPDEST PUSH1 0x0 DUP1 REVERT JUMPDEST PUSH1 0x0 DUP1 DUP4 PUSH1 0x1F DUP5 ADD SLT PUSH2 0x239D JUMPI PUSH2 0x239C PUSH2 0x2378 JUMP JUMPDEST JUMPDEST DUP3 CALLDATALOAD SWAP1 POP PUSH8 0xFFFFFFFFFFFFFFFF DUP2 GT ISZERO PUSH2 0x23BA JUMPI PUSH2 0x23B9 PUSH2 0x237D JUMP JUMPDEST JUMPDEST PUSH1 0x20 DUP4 ADD SWAP2 POP DUP4 PUSH1 0x1 DUP3 MUL DUP4 ADD GT ISZERO PUSH2 0x23D6 JUMPI PUSH2 0x23D5 PUSH2 0x2382 JUMP JUMPDEST JUMPDEST SWAP3 POP SWAP3 SWAP1 POP JUMP JUMPDEST PUSH1 0x0 DUP1 PUSH1 0x0 DUP1 PUSH1 0x0 DUP1 PUSH1 0xA0 DUP8 DUP10 SUB SLT ISZERO PUSH2 0x23FA JUMPI PUSH2 0x23F9 PUSH2 0x2233 JUMP JUMPDEST JUMPDEST PUSH1 0x0 PUSH2 0x2408 DUP10 DUP3 DUP11 ADD PUSH2 0x2286 JUMP JUMPDEST SWAP7 POP POP PUSH1 0x20 PUSH2 0x2419 DUP10 DUP3 DUP11 ADD PUSH2 0x2363 JUMP JUMPDEST SWAP6 POP POP PUSH1 0x40 PUSH2 0x242A DUP10 DUP3 DUP11 ADD PUSH2 0x2363 JUMP JUMPDEST SWAP5 POP POP PUSH1 0x60 PUSH2 0x243B DUP10 DUP3 DUP11 ADD PUSH2 0x2286 JUMP JUMPDEST SWAP4 POP POP PUSH1 0x80 DUP8 ADD CALLDATALOAD PUSH8 0xFFFFFFFFFFFFFFFF DUP2 GT ISZERO PUSH2 0x245C JUMPI PUSH2 0x245B PUSH2 0x2238 JUMP JUMPDEST JUMPDEST PUSH2 0x2468 DUP10 DUP3 DUP11 ADD PUSH2 0x2387 JUMP JUMPDEST SWAP3 POP SWAP3 POP POP SWAP3 SWAP6 POP SWAP3 SWAP6 POP SWAP3 SWAP6 JUMP JUMPDEST PUSH1 0x0 DUP2 ISZERO ISZERO SWAP1 POP SWAP2 SWAP1 POP JUMP JUMPDEST PUSH2 0x248C DUP2 PUSH2 0x2477 JUMP JUMPDEST DUP3 MSTORE POP POP JUMP JUMPDEST PUSH1 0x0 PUSH1 0x20 DUP3 ADD SWAP1 POP PUSH2 0x24A7 PUSH1 0x0 DUP4 ADD DUP5 PUSH2 0x2483 JUMP JUMPDEST SWAP3 SWAP2 POP POP JUMP JUMPDEST PUSH1 0x0 DUP1 DUP4 PUSH1 0x1F DUP5 ADD SLT PUSH2 0x24C3 JUMPI PUSH2 0x24C2 PUSH2 0x2378 JUMP JUMPDEST JUMPDEST DUP3 CALLDATALOAD SWAP1 POP PUSH8 0xFFFFFFFFFFFFFFFF DUP2 GT ISZERO PUSH2 0x24E0 JUMPI PUSH2 0x24DF PUSH2 0x237D JUMP JUMPDEST JUMPDEST PUSH1 0x20 DUP4 ADD SWAP2 POP DUP4 PUSH1 0x1 DUP3 MUL DUP4 ADD GT ISZERO PUSH2 0x24FC JUMPI PUSH2 0x24FB PUSH2 0x2382 JUMP JUMPDEST JUMPDEST SWAP3 POP SWAP3 SWAP1 POP JUMP JUMPDEST PUSH1 0x0 DUP1 DUP4 PUSH1 0x1F DUP5 ADD SLT PUSH2 0x2519 JUMPI PUSH2 0x2518 PUSH2 0x2378 JUMP JUMPDEST JUMPDEST DUP3 CALLDATALOAD SWAP1 POP PUSH8 0xFFFFFFFFFFFFFFFF DUP2 GT ISZERO PUSH2 0x2536 JUMPI PUSH2 0x2535 PUSH2 0x237D JUMP JUMPDEST JUMPDEST PUSH1 0x20 DUP4 ADD SWAP2 POP DUP4 PUSH1 0x20 DUP3 MUL DUP4 ADD GT ISZERO PUSH2 0x2552 JUMPI PUSH2 0x2551 PUSH2 0x2382 JUMP JUMPDEST JUMPDEST SWAP3 POP SWAP3 SWAP1 POP JUMP JUMPDEST PUSH1 0x0 DUP1 PUSH1 0x0 DUP1 PUSH1 0x0 DUP1 PUSH1 0x0 DUP1 PUSH1 0xA0 DUP10 DUP12 SUB SLT ISZERO PUSH2 0x2579 JUMPI PUSH2 0x2578 PUSH2 0x2233 JUMP JUMPDEST JUMPDEST PUSH1 0x0 PUSH2 0x2587 DUP12 DUP3 DUP13 ADD PUSH2 0x2286 JUMP JUMPDEST SWAP9 POP POP PUSH1 0x20 PUSH2 0x2598 DUP12 DUP3 DUP13 ADD PUSH2 0x2363 JUMP JUMPDEST SWAP8 POP POP PUSH1 0x40 DUP10 ADD CALLDATALOAD PUSH8 0xFFFFFFFFFFFFFFFF DUP2 GT ISZERO PUSH2 0x25B9 JUMPI PUSH2 0x25B8 PUSH2 0x2238 JUMP JUMPDEST JUMPDEST PUSH2 0x25C5 DUP12 DUP3 DUP13 ADD PUSH2 0x24AD JUMP JUMPDEST SWAP7 POP SWAP7 POP POP PUSH1 0x60 DUP10 ADD CALLDATALOAD PUSH8 0xFFFFFFFFFFFFFFFF DUP2 GT ISZERO PUSH2 0x25E8 JUMPI PUSH2 0x25E7 PUSH2 0x2238 JUMP JUMPDEST JUMPDEST PUSH2 0x25F4 DUP12 DUP3 DUP13 ADD PUSH2 0x24AD JUMP JUMPDEST SWAP5 POP SWAP5 POP POP PUSH1 0x80 DUP10 ADD CALLDATALOAD PUSH8 0xFFFFFFFFFFFFFFFF DUP2 GT ISZERO PUSH2 0x2617 JUMPI PUSH2 0x2616 PUSH2 0x2238 JUMP JUMPDEST JUMPDEST PUSH2 0x2623 DUP12 DUP3 DUP13 ADD PUSH2 0x2503 JUMP JUMPDEST SWAP3 POP SWAP3 POP POP SWAP3 SWAP6 SWAP9 POP SWAP3 SWAP6 SWAP9 SWAP1 SWAP4 SWAP7 POP JUMP JUMPDEST PUSH2 0x263E DUP2 PUSH2 0x2342 JUMP JUMPDEST DUP3 MSTORE POP POP JUMP JUMPDEST PUSH1 0x0 PUSH1 0x60 DUP3 ADD SWAP1 POP PUSH2 0x2659 PUSH1 0x0 DUP4 ADD DUP7 PUSH2 0x2483 JUMP JUMPDEST PUSH2 0x2666 PUSH1 0x20 DUP4 ADD DUP6 PUSH2 0x2635 JUMP JUMPDEST PUSH2 0x2673 PUSH1 0x40 DUP4 ADD DUP5 PUSH2 0x2635 JUMP JUMPDEST SWAP5 SWAP4 POP POP POP POP JUMP JUMPDEST PUSH1 0x0 DUP1 PUSH1 0x40 DUP4 DUP6 SUB SLT ISZERO PUSH2 0x2692 JUMPI PUSH2 0x2691 PUSH2 0x2233 JUMP JUMPDEST JUMPDEST PUSH1 0x0 PUSH2 0x26A0 DUP6 DUP3 DUP7 ADD PUSH2 0x2286 JUMP JUMPDEST SWAP3 POP POP PUSH1 0x20 PUSH2 0x26B1 DUP6 DUP3 DUP7 ADD PUSH2 0x2363 JUMP JUMPDEST SWAP2 POP POP SWAP3 POP SWAP3 SWAP1 POP JUMP JUMPDEST PUSH1 0x0 PUSH1 0x20 DUP3 ADD SWAP1 POP PUSH2 0x26D0 PUSH1 0x0 DUP4 ADD DUP5 PUSH2 0x2635 JUMP JUMPDEST SWAP3 SWAP2 POP POP JUMP JUMPDEST PUSH1 0x0 DUP1 PUSH1 0x0 DUP1 PUSH1 0x0 DUP1 PUSH1 0x0 DUP1 PUSH1 0x0 PUSH1 0xC0 DUP11 DUP13 SUB SLT ISZERO PUSH2 0x26F8 JUMPI PUSH2 0x26F7 PUSH2 0x2233 JUMP JUMPDEST JUMPDEST PUSH1 0x0 PUSH2 0x2706 DUP13 DUP3 DUP14 ADD PUSH2 0x2286 JUMP JUMPDEST SWAP10 POP POP PUSH1 0x20 PUSH2 0x2717 DUP13 DUP3 DUP14 ADD PUSH2 0x2363 JUMP JUMPDEST SWAP9 POP POP PUSH1 0x40 DUP11 ADD CALLDATALOAD PUSH8 0xFFFFFFFFFFFFFFFF DUP2 GT ISZERO PUSH2 0x2738 JUMPI PUSH2 0x2737 PUSH2 0x2238 JUMP JUMPDEST JUMPDEST PUSH2 0x2744 DUP13 DUP3 DUP14 ADD PUSH2 0x24AD JUMP JUMPDEST SWAP8 POP SWAP8 POP POP PUSH1 0x60 DUP11 ADD CALLDATALOAD PUSH8 0xFFFFFFFFFFFFFFFF DUP2 GT ISZERO PUSH2 0x2767 JUMPI PUSH2 0x2766 PUSH2 0x2238 JUMP JUMPDEST JUMPDEST PUSH2 0x2773 DUP13 DUP3 DUP14 ADD PUSH2 0x24AD JUMP JUMPDEST SWAP6 POP SWAP6 POP POP PUSH1 0x80 DUP11 ADD CALLDATALOAD PUSH8 0xFFFFFFFFFFFFFFFF DUP2 GT ISZERO PUSH2 0x2796 JUMPI PUSH2 0x2795 PUSH2 0x2238 JUMP JUMPDEST JUMPDEST PUSH2 0x27A2 DUP13 DUP3 DUP14 ADD PUSH2 0x2503 JUMP JUMPDEST SWAP4 POP SWAP4 POP POP PUSH1 0xA0 PUSH2 0x27B5 DUP13 DUP3 DUP14 ADD PUSH2 0x2363 JUMP JUMPDEST SWAP2 POP POP SWAP3 SWAP6 SWAP9 POP SWAP3 SWAP6 SWAP9 POP SWAP3 SWAP6 SWAP9 JUMP JUMPDEST PUSH1 0x0 DUP1 PUSH1 0x40 DUP4 DUP6 SUB SLT ISZERO PUSH2 0x27DC JUMPI PUSH2 0x27DB PUSH2 0x2233 JUMP JUMPDEST JUMPDEST PUSH1 0x0 PUSH2 0x27EA DUP6 DUP3 DUP7 ADD PUSH2 0x2363 JUMP JUMPDEST SWAP3 POP POP PUSH1 0x20 PUSH2 0x27FB DUP6 DUP3 DUP7 ADD PUSH2 0x2363 JUMP JUMPDEST SWAP2 POP POP SWAP3 POP SWAP3 SWAP1 POP JUMP JUMPDEST PUSH1 0x0 DUP1 REVERT JUMPDEST PUSH1 0x0 PUSH1 0x1F NOT PUSH1 0x1F DUP4 ADD AND SWAP1 POP SWAP2 SWAP1 POP JUMP JUMPDEST PUSH32 0x4E487B7100000000000000000000000000000000000000000000000000000000 PUSH1 0x0 MSTORE PUSH1 0x41 PUSH1 0x4 MSTORE PUSH1 0x24 PUSH1 0x0 REVERT JUMPDEST PUSH2 0x2853 DUP3 PUSH2 0x280A JUMP JUMPDEST DUP2 ADD DUP2 DUP2 LT PUSH8 0xFFFFFFFFFFFFFFFF DUP3 GT OR ISZERO PUSH2 0x2872 JUMPI PUSH2 0x2871 PUSH2 0x281B JUMP JUMPDEST JUMPDEST DUP1 PUSH1 0x40 MSTORE POP POP POP JUMP JUMPDEST PUSH1 0x0 PUSH2 0x2885 PUSH2 0x2229 JUMP JUMPDEST SWAP1 POP PUSH2 0x2891 DUP3 DUP3 PUSH2 0x284A JUMP JUMPDEST SWAP2 SWAP1 POP JUMP JUMPDEST PUSH1 0x0 PUSH8 0xFFFFFFFFFFFFFFFF DUP3 GT ISZERO PUSH2 0x28B1 JUMPI PUSH2 0x28B0 PUSH2 0x281B JUMP JUMPDEST JUMPDEST PUSH2 0x28BA DUP3 PUSH2 0x280A JUMP JUMPDEST SWAP1 POP PUSH1 0x20 DUP2 ADD SWAP1 POP SWAP2 SWAP1 POP JUMP JUMPDEST DUP3 DUP2 DUP4 CALLDATACOPY PUSH1 0x0 DUP4 DUP4 ADD MSTORE POP POP POP JUMP JUMPDEST PUSH1 0x0 PUSH2 0x28E9 PUSH2 0x28E4 DUP5 PUSH2 0x2896 JUMP JUMPDEST PUSH2 0x287B JUMP JUMPDEST SWAP1 POP DUP3 DUP2 MSTORE PUSH1 0x20 DUP2 ADD DUP5 DUP5 DUP5 ADD GT ISZERO PUSH2 0x2905 JUMPI PUSH2 0x2904 PUSH2 0x2805 JUMP JUMPDEST JUMPDEST PUSH2 0x2910 DUP5 DUP3 DUP6 PUSH2 0x28C7 JUMP JUMPDEST POP SWAP4 SWAP3 POP POP POP JUMP JUMPDEST PUSH1 0x0 DUP3 PUSH1 0x1F DUP4 ADD SLT PUSH2 0x292D JUMPI PUSH2 0x292C PUSH2 0x2378 JUMP JUMPDEST JUMPDEST DUP2 CALLDATALOAD PUSH2 0x293D DUP5 DUP3 PUSH1 0x20 DUP7 ADD PUSH2 0x28D6 JUMP JUMPDEST SWAP2 POP POP SWAP3 SWAP2 POP POP JUMP JUMPDEST PUSH1 0x0 PUSH1 0x20 DUP3 DUP5 SUB SLT ISZERO PUSH2 0x295C JUMPI PUSH2 0x295B PUSH2 0x2233 JUMP JUMPDEST JUMPDEST PUSH1 0x0 DUP3 ADD CALLDATALOAD PUSH8 0xFFFFFFFFFFFFFFFF DUP2 GT ISZERO PUSH2 0x297A JUMPI PUSH2 0x2979 PUSH2 0x2238 JUMP JUMPDEST JUMPDEST PUSH2 0x2986 DUP5 DUP3 DUP6 ADD PUSH2 0x2918 JUMP JUMPDEST SWAP2 POP POP SWAP3 SWAP2 POP POP JUMP JUMPDEST PUSH2 0x2998 DUP2 PUSH2 0x225D JUMP JUMPDEST DUP3 MSTORE POP POP JUMP JUMPDEST PUSH1 0x0 PUSH1 0x20 DUP3 ADD SWAP1 POP PUSH2 0x29B3 PUSH1 0x0 DUP4 ADD DUP5 PUSH2 0x298F JUMP JUMPDEST SWAP3 SWAP2 POP POP JUMP JUMPDEST PUSH1 0x0 PUSH2 0x29C4 DUP3 PUSH2 0x22F4 JUMP JUMPDEST SWAP1 POP SWAP2 SWAP1 POP JUMP JUMPDEST PUSH2 0x29D4 DUP2 PUSH2 0x29B9 JUMP JUMPDEST DUP3 MSTORE POP POP JUMP JUMPDEST PUSH1 0x0 PUSH1 0x20 DUP3 ADD SWAP1 POP PUSH2 0x29EF PUSH1 0x0 DUP4 ADD DUP5 PUSH2 0x29CB JUMP JUMPDEST SWAP3 SWAP2 POP POP JUMP JUMPDEST PUSH1 0x0 PUSH8 0xFFFFFFFFFFFFFFFF DUP3 GT ISZERO PUSH2 0x2A10 JUMPI PUSH2 0x2A0F PUSH2 0x281B JUMP JUMPDEST JUMPDEST PUSH1 0x20 DUP3 MUL SWAP1 POP PUSH1 0x20 DUP2 ADD SWAP1 POP SWAP2 SWAP1 POP JUMP JUMPDEST PUSH1 0x0 PUSH2 0x2A34 PUSH2 0x2A2F DUP5 PUSH2 0x29F5 JUMP JUMPDEST PUSH2 0x287B JUMP JUMPDEST SWAP1 POP DUP1 DUP4 DUP3 MSTORE PUSH1 0x20 DUP3 ADD SWAP1 POP PUSH1 0x20 DUP5 MUL DUP4 ADD DUP6 DUP2 GT ISZERO PUSH2 0x2A57 JUMPI PUSH2 0x2A56 PUSH2 0x2382 JUMP JUMPDEST JUMPDEST DUP4 JUMPDEST DUP2 DUP2 LT ISZERO PUSH2 0x2A80 JUMPI DUP1 PUSH2 0x2A6C DUP9 DUP3 PUSH2 0x2286 JUMP JUMPDEST DUP5 MSTORE PUSH1 0x20 DUP5 ADD SWAP4 POP POP PUSH1 0x20 DUP2 ADD SWAP1 POP PUSH2 0x2A59 JUMP JUMPDEST POP POP POP SWAP4 SWAP3 POP POP POP JUMP JUMPDEST PUSH1 0x0 DUP3 PUSH1 0x1F DUP4 ADD SLT PUSH2 0x2A9F JUMPI PUSH2 0x2A9E PUSH2 0x2378 JUMP JUMPDEST JUMPDEST DUP2 CALLDATALOAD PUSH2 0x2AAF DUP5 DUP3 PUSH1 0x20 DUP7 ADD PUSH2 0x2A21 JUMP JUMPDEST SWAP2 POP POP SWAP3 SWAP2 POP POP JUMP JUMPDEST PUSH1 0x0 DUP1 PUSH1 0x0 DUP1 PUSH1 0x0 PUSH1 0xA0 DUP7 DUP9 SUB SLT ISZERO PUSH2 0x2AD4 JUMPI PUSH2 0x2AD3 PUSH2 0x2233 JUMP JUMPDEST JUMPDEST PUSH1 0x0 DUP7 ADD CALLDATALOAD PUSH8 0xFFFFFFFFFFFFFFFF DUP2 GT ISZERO PUSH2 0x2AF2 JUMPI PUSH2 0x2AF1 PUSH2 0x2238 JUMP JUMPDEST JUMPDEST PUSH2 0x2AFE DUP9 DUP3 DUP10 ADD PUSH2 0x2918 JUMP JUMPDEST SWAP6 POP POP PUSH1 0x20 DUP7 ADD CALLDATALOAD PUSH8 0xFFFFFFFFFFFFFFFF DUP2 GT ISZERO PUSH2 0x2B1F JUMPI PUSH2 0x2B1E PUSH2 0x2238 JUMP JUMPDEST JUMPDEST PUSH2 0x2B2B DUP9 DUP3 DUP10 ADD PUSH2 0x2918 JUMP JUMPDEST SWAP5 POP POP PUSH1 0x40 DUP7 ADD CALLDATALOAD PUSH8 0xFFFFFFFFFFFFFFFF DUP2 GT ISZERO PUSH2 0x2B4C JUMPI PUSH2 0x2B4B PUSH2 0x2238 JUMP JUMPDEST JUMPDEST PUSH2 0x2B58 DUP9 DUP3 DUP10 ADD PUSH2 0x2A8A JUMP JUMPDEST SWAP4 POP POP PUSH1 0x60 PUSH2 0x2B69 DUP9 DUP3 DUP10 ADD PUSH2 0x2363 JUMP JUMPDEST SWAP3 POP POP PUSH1 0x80 PUSH2 0x2B7A DUP9 DUP3 DUP10 ADD PUSH2 0x2363 JUMP JUMPDEST SWAP2 POP POP SWAP3 SWAP6 POP SWAP3 SWAP6 SWAP1 SWAP4 POP JUMP JUMPDEST PUSH1 0x0 DUP1 PUSH1 0x0 PUSH1 0x40 DUP5 DUP7 SUB SLT ISZERO PUSH2 0x2BA0 JUMPI PUSH2 0x2B9F PUSH2 0x2233 JUMP JUMPDEST JUMPDEST PUSH1 0x0 DUP5 ADD CALLDATALOAD PUSH8 0xFFFFFFFFFFFFFFFF DUP2 GT ISZERO PUSH2 0x2BBE JUMPI PUSH2 0x2BBD PUSH2 0x2238 JUMP JUMPDEST JUMPDEST PUSH2 0x2BCA DUP7 DUP3 DUP8 ADD PUSH2 0x24AD JUMP JUMPDEST SWAP4 POP SWAP4 POP POP PUSH1 0x20 PUSH2 0x2BDD DUP7 DUP3 DUP8 ADD PUSH2 0x2286 JUMP JUMPDEST SWAP2 POP POP SWAP3 POP SWAP3 POP SWAP3 JUMP JUMPDEST PUSH1 0x0 DUP2 MLOAD SWAP1 POP PUSH2 0x2BF6 DUP2 PUSH2 0x234C JUMP JUMPDEST SWAP3 SWAP2 POP POP JUMP JUMPDEST PUSH1 0x0 PUSH1 0x20 DUP3 DUP5 SUB SLT ISZERO PUSH2 0x2C12 JUMPI PUSH2 0x2C11 PUSH2 0x2233 JUMP JUMPDEST JUMPDEST PUSH1 0x0 PUSH2 0x2C20 DUP5 DUP3 DUP6 ADD PUSH2 0x2BE7 JUMP JUMPDEST SWAP2 POP POP SWAP3 SWAP2 POP POP JUMP JUMPDEST PUSH1 0x0 PUSH1 0x40 DUP3 ADD SWAP1 POP PUSH2 0x2C3E PUSH1 0x0 DUP4 ADD DUP6 PUSH2 0x298F JUMP JUMPDEST PUSH2 0x2C4B PUSH1 0x20 DUP4 ADD DUP5 PUSH2 0x2635 JUMP JUMPDEST SWAP4 SWAP3 POP POP POP JUMP JUMPDEST PUSH2 0x2C5B DUP2 PUSH2 0x2477 JUMP JUMPDEST DUP2 EQ PUSH2 0x2C66 JUMPI PUSH1 0x0 DUP1 REVERT JUMPDEST POP JUMP JUMPDEST PUSH1 0x0 DUP2 MLOAD SWAP1 POP PUSH2 0x2C78 DUP2 PUSH2 0x2C52 JUMP JUMPDEST SWAP3 SWAP2 POP POP JUMP JUMPDEST PUSH1 0x0 PUSH1 0x20 DUP3 DUP5 SUB SLT ISZERO PUSH2 0x2C94 JUMPI PUSH2 0x2C93 PUSH2 0x2233 JUMP JUMPDEST JUMPDEST PUSH1 0x0 PUSH2 0x2CA2 DUP5 DUP3 DUP6 ADD PUSH2 0x2C69 JUMP JUMPDEST SWAP2 POP POP SWAP3 SWAP2 POP POP JUMP JUMPDEST PUSH1 0x0 DUP3 DUP3 MSTORE PUSH1 0x20 DUP3 ADD SWAP1 POP SWAP3 SWAP2 POP POP JUMP JUMPDEST PUSH32 0x556E617574686F72697A65642063616C6C657200000000000000000000000000 PUSH1 0x0 DUP3 ADD MSTORE POP JUMP JUMPDEST PUSH1 0x0 PUSH2 0x2CF2 PUSH1 0x13 DUP4 PUSH2 0x2CAB JUMP JUMPDEST SWAP2 POP PUSH2 0x2CFD DUP3 PUSH2 0x2CBC JUMP JUMPDEST PUSH1 0x20 DUP3 ADD SWAP1 POP SWAP2 SWAP1 POP JUMP JUMPDEST PUSH1 0x0 PUSH1 0x20 DUP3 ADD SWAP1 POP DUP2 DUP2 SUB PUSH1 0x0 DUP4 ADD MSTORE PUSH2 0x2D21 DUP2 PUSH2 0x2CE5 JUMP JUMPDEST SWAP1 POP SWAP2 SWAP1 POP JUMP JUMPDEST PUSH1 0x0 DUP1 PUSH1 0x0 DUP1 PUSH1 0x80 DUP6 DUP8 SUB SLT ISZERO PUSH2 0x2D42 JUMPI PUSH2 0x2D41 PUSH2 0x2233 JUMP JUMPDEST JUMPDEST PUSH1 0x0 DUP6 ADD CALLDATALOAD PUSH8 0xFFFFFFFFFFFFFFFF DUP2 GT ISZERO PUSH2 0x2D60 JUMPI PUSH2 0x2D5F PUSH2 0x2238 JUMP JUMPDEST JUMPDEST PUSH2 0x2D6C DUP8 DUP3 DUP9 ADD PUSH2 0x2918 JUMP JUMPDEST SWAP5 POP POP PUSH1 0x20 DUP6 ADD CALLDATALOAD PUSH8 0xFFFFFFFFFFFFFFFF DUP2 GT ISZERO PUSH2 0x2D8D JUMPI PUSH2 0x2D8C PUSH2 0x2238 JUMP JUMPDEST JUMPDEST PUSH2 0x2D99 DUP8 DUP3 DUP9 ADD PUSH2 0x2918 JUMP JUMPDEST SWAP4 POP POP PUSH1 0x40 DUP6 ADD CALLDATALOAD PUSH8 0xFFFFFFFFFFFFFFFF DUP2 GT ISZERO PUSH2 0x2DBA JUMPI PUSH2 0x2DB9 PUSH2 0x2238 JUMP JUMPDEST JUMPDEST PUSH2 0x2DC6 DUP8 DUP3 DUP9 ADD PUSH2 0x2A8A JUMP JUMPDEST SWAP3 POP POP PUSH1 0x60 PUSH2 0x2DD7 DUP8 DUP3 DUP9 ADD PUSH2 0x2363 JUMP JUMPDEST SWAP2 POP POP SWAP3 SWAP6 SWAP2 SWAP5 POP SWAP3 POP JUMP JUMPDEST PUSH1 0x0 DUP2 MLOAD SWAP1 POP SWAP2 SWAP1 POP JUMP JUMPDEST PUSH1 0x0 JUMPDEST DUP4 DUP2 LT ISZERO PUSH2 0x2E0C JUMPI DUP1 DUP3 ADD MLOAD DUP2 DUP5 ADD MSTORE PUSH1 0x20 DUP2 ADD SWAP1 POP PUSH2 0x2DF1 JUMP JUMPDEST PUSH1 0x0 DUP5 DUP5 ADD MSTORE POP POP POP POP JUMP JUMPDEST PUSH1 0x0 PUSH2 0x2E23 DUP3 PUSH2 0x2DE3 JUMP JUMPDEST PUSH2 0x2E2D DUP2 DUP6 PUSH2 0x2CAB JUMP JUMPDEST SWAP4 POP PUSH2 0x2E3D DUP2 DUP6 PUSH1 0x20 DUP7 ADD PUSH2 0x2DEE JUMP JUMPDEST PUSH2 0x2E46 DUP2 PUSH2 0x280A JUMP JUMPDEST DUP5 ADD SWAP2 POP POP SWAP3 SWAP2 POP POP JUMP JUMPDEST PUSH1 0x0 DUP2 MLOAD SWAP1 POP SWAP2 SWAP1 POP JUMP JUMPDEST PUSH1 0x0 DUP3 DUP3 MSTORE PUSH1 0x20 DUP3 ADD SWAP1 POP SWAP3 SWAP2 POP POP JUMP JUMPDEST PUSH1 0x0 DUP2 SWAP1 POP PUSH1 0x20 DUP3 ADD SWAP1 POP SWAP2 SWAP1 POP JUMP JUMPDEST PUSH2 0x2E86 DUP2 PUSH2 0x225D JUMP JUMPDEST DUP3 MSTORE POP POP JUMP JUMPDEST PUSH1 0x0 PUSH2 0x2E98 DUP4 DUP4 PUSH2 0x2E7D JUMP JUMPDEST PUSH1 0x20 DUP4 ADD SWAP1 POP SWAP3 SWAP2 POP POP JUMP JUMPDEST PUSH1 0x0 PUSH1 0x20 DUP3 ADD SWAP1 POP SWAP2 SWAP1 POP JUMP JUMPDEST PUSH1 0x0 PUSH2 0x2EBC DUP3 PUSH2 0x2E51 JUMP JUMPDEST PUSH2 0x2EC6 DUP2 DUP6 PUSH2 0x2E5C JUMP JUMPDEST SWAP4 POP PUSH2 0x2ED1 DUP4 PUSH2 0x2E6D JUMP JUMPDEST DUP1 PUSH1 0x0 JUMPDEST DUP4 DUP2 LT ISZERO PUSH2 0x2F02 JUMPI DUP2 MLOAD PUSH2 0x2EE9 DUP9 DUP3 PUSH2 0x2E8C JUMP JUMPDEST SWAP8 POP PUSH2 0x2EF4 DUP4 PUSH2 0x2EA4 JUMP JUMPDEST SWAP3 POP POP PUSH1 0x1 DUP2 ADD SWAP1 POP PUSH2 0x2ED5 JUMP JUMPDEST POP DUP6 SWAP4 POP POP POP POP SWAP3 SWAP2 POP POP JUMP JUMPDEST PUSH1 0x0 PUSH1 0xA0 DUP3 ADD SWAP1 POP DUP2 DUP2 SUB PUSH1 0x0 DUP4 ADD MSTORE PUSH2 0x2F29 DUP2 DUP9 PUSH2 0x2E18 JUMP JUMPDEST SWAP1 POP DUP2 DUP2 SUB PUSH1 0x20 DUP4 ADD MSTORE PUSH2 0x2F3D DUP2 DUP8 PUSH2 0x2E18 JUMP JUMPDEST SWAP1 POP DUP2 DUP2 SUB PUSH1 0x40 DUP4 ADD MSTORE PUSH2 0x2F51 DUP2 DUP7 PUSH2 0x2EB1 JUMP JUMPDEST SWAP1 POP PUSH2 0x2F60 PUSH1 0x60 DUP4 ADD DUP6 PUSH2 0x2635 JUMP JUMPDEST PUSH2 0x2F6D PUSH1 0x80 DUP4 ADD DUP5 PUSH2 0x2635 JUMP JUMPDEST SWAP7 SWAP6 POP POP POP POP POP POP JUMP JUMPDEST PUSH1 0x0 DUP2 PUSH1 0xE0 SHR SWAP1 POP SWAP2 SWAP1 POP JUMP JUMPDEST PUSH1 0x0 PUSH1 0x3 RETURNDATASIZE GT ISZERO PUSH2 0x2FA3 JUMPI PUSH1 0x4 PUSH1 0x0 DUP1 RETURNDATACOPY PUSH2 0x2FA0 PUSH1 0x0 MLOAD PUSH2 0x2F77 JUMP JUMPDEST SWAP1 POP JUMPDEST SWAP1 JUMP JUMPDEST PUSH1 0x0 PUSH1 0x44 RETURNDATASIZE LT PUSH2 0x3033 JUMPI PUSH2 0x2FB8 PUSH2 0x2229 JUMP JUMPDEST PUSH1 0x4 RETURNDATASIZE SUB PUSH1 0x4 DUP3 RETURNDATACOPY DUP1 MLOAD RETURNDATASIZE PUSH1 0x24 DUP3 ADD GT PUSH8 0xFFFFFFFFFFFFFFFF DUP3 GT OR ISZERO PUSH2 0x2FE0 JUMPI POP POP PUSH2 0x3033 JUMP JUMPDEST DUP1 DUP3 ADD DUP1 MLOAD PUSH8 0xFFFFFFFFFFFFFFFF DUP2 GT ISZERO PUSH2 0x2FFE JUMPI POP POP POP POP PUSH2 0x3033 JUMP JUMPDEST DUP1 PUSH1 0x20 DUP4 ADD ADD PUSH1 0x4 RETURNDATASIZE SUB DUP6 ADD DUP2 GT ISZERO PUSH2 0x301B JUMPI POP POP POP POP POP PUSH2 0x3033 JUMP JUMPDEST PUSH2 0x302A DUP3 PUSH1 0x20 ADD DUP6 ADD DUP7 PUSH2 0x284A JUMP JUMPDEST DUP3 SWAP6 POP POP POP POP POP POP JUMPDEST SWAP1 JUMP JUMPDEST PUSH1 0x0 PUSH1 0x20 DUP3 ADD SWAP1 POP DUP2 DUP2 SUB PUSH1 0x0 DUP4 ADD MSTORE PUSH2 0x3050 DUP2 DUP5 PUSH2 0x2E18 JUMP JUMPDEST SWAP1 POP SWAP3 SWAP2 POP POP JUMP JUMPDEST PUSH32 0x556E6B6E6F776E206572726F7200000000000000000000000000000000000000 PUSH1 0x0 DUP3 ADD MSTORE POP JUMP JUMPDEST PUSH1 0x0 PUSH2 0x308E PUSH1 0xD DUP4 PUSH2 0x2CAB JUMP JUMPDEST SWAP2 POP PUSH2 0x3099 DUP3 PUSH2 0x3058 JUMP JUMPDEST PUSH1 0x20 DUP3 ADD SWAP1 POP SWAP2 SWAP1 POP JUMP JUMPDEST PUSH1 0x0 PUSH1 0x20 DUP3 ADD SWAP1 POP DUP2 DUP2 SUB PUSH1 0x0 DUP4 ADD MSTORE PUSH2 0x30BD DUP2 PUSH2 0x3081 JUMP JUMPDEST SWAP1 POP SWAP2 SWAP1 POP JUMP JUMPDEST PUSH32 0x4E487B7100000000000000000000000000000000000000000000000000000000 PUSH1 0x0 MSTORE PUSH1 0x11 PUSH1 0x4 MSTORE PUSH1 0x24 PUSH1 0x0 REVERT JUMPDEST PUSH1 0x0 PUSH2 0x30FE DUP3 PUSH2 0x2342 JUMP JUMPDEST SWAP2 POP PUSH2 0x3109 DUP4 PUSH2 0x2342 JUMP JUMPDEST SWAP3 POP DUP3 DUP3 ADD SWAP1 POP DUP1 DUP3 GT ISZERO PUSH2 0x3121 JUMPI PUSH2 0x3120 PUSH2 0x30C4 JUMP JUMPDEST JUMPDEST SWAP3 SWAP2 POP POP JUMP JUMPDEST PUSH1 0x0 PUSH1 0x40 DUP3 ADD SWAP1 POP PUSH2 0x313C PUSH1 0x0 DUP4 ADD DUP6 PUSH2 0x298F JUMP JUMPDEST PUSH2 0x3149 PUSH1 0x20 DUP4 ADD DUP5 PUSH2 0x298F JUMP JUMPDEST SWAP4 SWAP3 POP POP POP JUMP JUMPDEST PUSH32 0x4E487B7100000000000000000000000000000000000000000000000000000000 PUSH1 0x0 MSTORE PUSH1 0x32 PUSH1 0x4 MSTORE PUSH1 0x24 PUSH1 0x0 REVERT JUMPDEST PUSH32 0x466972737420746F6B656E206D75737420626520626F72726F77656420746F6B PUSH1 0x0 DUP3 ADD MSTORE PUSH32 0x656E000000000000000000000000000000000000000000000000000000000000 PUSH1 0x20 DUP3 ADD MSTORE POP JUMP JUMPDEST PUSH1 0x0 PUSH2 0x31DB PUSH1 0x22 DUP4 PUSH2 0x2CAB JUMP JUMPDEST SWAP2 POP PUSH2 0x31E6 DUP3 PUSH2 0x317F JUMP JUMPDEST PUSH1 0x40 DUP3 ADD SWAP1 POP SWAP2 SWAP1 POP JUMP JUMPDEST PUSH1 0x0 PUSH1 0x20 DUP3 ADD SWAP1 POP DUP2 DUP2 SUB PUSH1 0x0 DUP4 ADD MSTORE PUSH2 0x320A DUP2 PUSH2 0x31CE JUMP JUMPDEST SWAP1 POP SWAP2 SWAP1 POP JUMP JUMPDEST PUSH32 0x4665652065786365656473203235252063617000000000000000000000000000 PUSH1 0x0 DUP3 ADD MSTORE POP JUMP JUMPDEST PUSH1 0x0 PUSH2 0x3247 PUSH1 0x13 DUP4 PUSH2 0x2CAB JUMP JUMPDEST SWAP2 POP PUSH2 0x3252 DUP3 PUSH2 0x3211 JUMP JUMPDEST PUSH1 0x20 DUP3 ADD SWAP1 POP SWAP2 SWAP1 POP JUMP JUMPDEST PUSH1 0x0 PUSH1 0x20 DUP3 ADD SWAP1 POP DUP2 DUP2 SUB PUSH1 0x0 DUP4 ADD MSTORE PUSH2 0x3276 DUP2 PUSH2 0x323A JUMP JUMPDEST SWAP1 POP SWAP2 SWAP1 POP JUMP JUMPDEST PUSH32 0x436F6E7472616374207061757365640000000000000000000000000000000000 PUSH1 0x0 DUP3 ADD MSTORE POP JUMP JUMPDEST PUSH1 0x0 PUSH2 0x32B3 PUSH1 0xF DUP4 PUSH2 0x2CAB JUMP JUMPDEST SWAP2 POP PUSH2 0x32BE DUP3 PUSH2 0x327D JUMP JUMPDEST PUSH1 0x20 DUP3 ADD SWAP1 POP SWAP2 SWAP1 POP JUMP JUMPDEST PUSH1 0x0 PUSH1 0x20 DUP3 ADD SWAP1 POP DUP2 DUP2 SUB PUSH1 0x0 DUP4 ADD MSTORE PUSH2 0x32E2 DUP2 PUSH2 0x32A6 JUMP JUMPDEST SWAP1 POP SWAP2 SWAP1 POP JUMP JUMPDEST PUSH1 0x0 PUSH2 0x32F5 DUP4 DUP6 PUSH2 0x2CAB JUMP JUMPDEST SWAP4 POP PUSH2 0x3302 DUP4 DUP6 DUP5 PUSH2 0x28C7 JUMP JUMPDEST PUSH2 0x330B DUP4 PUSH2 0x280A JUMP JUMPDEST DUP5 ADD SWAP1 POP SWAP4 SWAP3 POP POP POP JUMP JUMPDEST PUSH1 0x0 DUP2 SWAP1 POP SWAP2 SWAP1 POP JUMP JUMPDEST PUSH1 0x0 PUSH2 0x332F PUSH1 0x20 DUP5 ADD DUP5 PUSH2 0x2286 JUMP JUMPDEST SWAP1 POP SWAP3 SWAP2 POP POP JUMP JUMPDEST PUSH1 0x0 PUSH1 0x20 DUP3 ADD SWAP1 POP SWAP2 SWAP1 POP JUMP JUMPDEST PUSH1 0x0 PUSH2 0x3350 DUP4 DUP6 PUSH2 0x2E5C JUMP JUMPDEST SWAP4 POP PUSH2 0x335B DUP3 PUSH2 0x3316 JUMP JUMPDEST DUP1 PUSH1 0x0 JUMPDEST DUP6 DUP2 LT ISZERO PUSH2 0x3394 JUMPI PUSH2 0x3371 DUP3 DUP5 PUSH2 0x3320 JUMP JUMPDEST PUSH2 0x337B DUP9 DUP3 PUSH2 0x2E8C JUMP JUMPDEST SWAP8 POP PUSH2 0x3386 DUP4 PUSH2 0x3337 JUMP JUMPDEST SWAP3 POP POP PUSH1 0x1 DUP2 ADD SWAP1 POP PUSH2 0x335F JUMP JUMPDEST POP DUP6 SWAP3 POP POP POP SWAP4 SWAP3 POP POP POP JUMP JUMPDEST PUSH1 0x0 PUSH1 0x80 DUP3 ADD SWAP1 POP DUP2 DUP2 SUB PUSH1 0x0 DUP4 ADD MSTORE PUSH2 0x33BC DUP2 DUP10 DUP12 PUSH2 0x32E9 JUMP JUMPDEST SWAP1 POP DUP2 DUP2 SUB PUSH1 0x20 DUP4 ADD MSTORE PUSH2 0x33D1 DUP2 DUP8 DUP10 PUSH2 0x32E9 JUMP JUMPDEST SWAP1 POP DUP2 DUP2 SUB PUSH1 0x40 DUP4 ADD MSTORE PUSH2 0x33E6 DUP2 DUP6 DUP8 PUSH2 0x3344 JUMP JUMPDEST SWAP1 POP PUSH2 0x33F5 PUSH1 0x60 DUP4 ADD DUP5 PUSH2 0x2635 JUMP JUMPDEST SWAP9 SWAP8 POP POP POP POP POP POP POP POP JUMP JUMPDEST PUSH1 0x0 DUP2 MLOAD SWAP1 POP SWAP2 SWAP1 POP JUMP JUMPDEST PUSH1 0x0 DUP3 DUP3 MSTORE PUSH1 0x20 DUP3 ADD SWAP1 POP SWAP3 SWAP2 POP POP JUMP JUMPDEST PUSH1 0x0 PUSH2 0x3428 DUP3 PUSH2 0x3401 JUMP JUMPDEST PUSH2 0x3432 DUP2 DUP6 PUSH2 0x340C JUMP JUMPDEST SWAP4 POP PUSH2 0x3442 DUP2 DUP6 PUSH1 0x20 DUP7 ADD PUSH2 0x2DEE JUMP JUMPDEST PUSH2 0x344B DUP2 PUSH2 0x280A JUMP JUMPDEST DUP5 ADD SWAP2 POP POP SWAP3 SWAP2 POP POP JUMP JUMPDEST PUSH1 0x0 DUP2 SWAP1 POP SWAP2 SWAP1 POP JUMP JUMPDEST PUSH1 0x0 PUSH2 0xFFFF DUP3 AND SWAP1 POP SWAP2 SWAP1 POP JUMP JUMPDEST PUSH1 0x0 PUSH2 0x3489 PUSH2 0x3484 PUSH2 0x347F DUP5 PUSH2 0x3456 JUMP JUMPDEST PUSH2 0x22C8 JUMP JUMPDEST PUSH2 0x3460 JUMP JUMPDEST SWAP1 POP SWAP2 SWAP1 POP JUMP JUMPDEST PUSH2 0x3499 DUP2 PUSH2 0x346E JUMP JUMPDEST DUP3 MSTORE POP POP JUMP JUMPDEST PUSH1 0x0 PUSH1 0xA0 DUP3 ADD SWAP1 POP PUSH2 0x34B4 PUSH1 0x0 DUP4 ADD DUP9 PUSH2 0x298F JUMP JUMPDEST PUSH2 0x34C1 PUSH1 0x20 DUP4 ADD DUP8 PUSH2 0x298F JUMP JUMPDEST PUSH2 0x34CE PUSH1 0x40 DUP4 ADD DUP7 PUSH2 0x2635 JUMP JUMPDEST DUP2 DUP2 SUB PUSH1 0x60 DUP4 ADD MSTORE PUSH2 0x34E0 DUP2 DUP6 PUSH2 0x341D JUMP JUMPDEST SWAP1 POP PUSH2 0x34EF PUSH1 0x80 DUP4 ADD DUP5 PUSH2 0x3490 JUMP JUMPDEST SWAP7 SWAP6 POP POP POP POP POP POP JUMP JUMPDEST PUSH32 0x496E7465726E616C2063616C6C206F6E6C790000000000000000000000000000 PUSH1 0x0 DUP3 ADD MSTORE POP JUMP JUMPDEST PUSH1 0x0 PUSH2 0x352F PUSH1 0x12 DUP4 PUSH2 0x2CAB JUMP JUMPDEST SWAP2 POP PUSH2 0x353A DUP3 PUSH2 0x34F9 JUMP JUMPDEST PUSH1 0x20 DUP3 ADD SWAP1 POP SWAP2 SWAP1 POP JUMP JUMPDEST PUSH1 0x0 PUSH1 0x20 DUP3 ADD SWAP1 POP DUP2 DUP2 SUB PUSH1 0x0 DUP4 ADD MSTORE PUSH2 0x355E DUP2 PUSH2 0x3522 JUMP JUMPDEST SWAP1 POP SWAP2 SWAP1 POP JUMP JUMPDEST PUSH32 0x496E76616C696420726F75746572206164647265737300000000000000000000 PUSH1 0x0 DUP3 ADD MSTORE POP JUMP JUMPDEST PUSH1 0x0 PUSH2 0x359B PUSH1 0x16 DUP4 PUSH2 0x2CAB JUMP JUMPDEST SWAP2 POP PUSH2 0x35A6 DUP3 PUSH2 0x3565 JUMP JUMPDEST PUSH1 0x20 DUP3 ADD SWAP1 POP SWAP2 SWAP1 POP JUMP JUMPDEST PUSH1 0x0 PUSH1 0x20 DUP3 ADD SWAP1 POP DUP2 DUP2 SUB PUSH1 0x0 DUP4 ADD MSTORE PUSH2 0x35CA DUP2 PUSH2 0x358E JUMP JUMPDEST SWAP1 POP SWAP2 SWAP1 POP JUMP JUMPDEST PUSH1 0x0 DUP2 SWAP1 POP SWAP3 SWAP2 POP POP JUMP JUMPDEST PUSH1 0x0 PUSH2 0x35E8 DUP4 DUP6 PUSH2 0x35D1 JUMP JUMPDEST SWAP4 POP PUSH2 0x35F5 DUP4 DUP6 DUP5 PUSH2 0x28C7 JUMP JUMPDEST DUP3 DUP5 ADD SWAP1 POP SWAP4 SWAP3 POP POP POP JUMP JUMPDEST PUSH1 0x0 PUSH2 0x360E DUP3 DUP5 DUP7 PUSH2 0x35DC JUMP JUMPDEST SWAP2 POP DUP2 SWAP1 POP SWAP4 SWAP3 POP POP POP JUMP JUMPDEST PUSH1 0x0 PUSH1 0x40 DUP3 ADD SWAP1 POP DUP2 DUP2 SUB PUSH1 0x0 DUP4 ADD MSTORE PUSH2 0x3634 DUP2 DUP6 PUSH2 0x2E18 JUMP JUMPDEST SWAP1 POP PUSH2 0x3643 PUSH1 0x20 DUP4 ADD DUP5 PUSH2 0x2635 JUMP JUMPDEST SWAP4 SWAP3 POP POP POP JUMP JUMPDEST PUSH32 0x496E73756666696369656E742072657061796D656E7400000000000000000000 PUSH1 0x0 DUP3 ADD MSTORE POP JUMP JUMPDEST PUSH1 0x0 PUSH2 0x3680 PUSH1 0x16 DUP4 PUSH2 0x2CAB JUMP JUMPDEST SWAP2 POP PUSH2 0x368B DUP3 PUSH2 0x364A JUMP JUMPDEST PUSH1 0x20 DUP3 ADD SWAP1 POP SWAP2 SWAP1 POP JUMP JUMPDEST PUSH1 0x0 PUSH1 0x20 DUP3 ADD SWAP1 POP DUP2 DUP2 SUB PUSH1 0x0 DUP4 ADD MSTORE PUSH2 0x36AF DUP2 PUSH2 0x3673 JUMP JUMPDEST SWAP1 POP SWAP2 SWAP1 POP JUMP JUMPDEST PUSH1 0x0 PUSH2 0x36C1 DUP3 PUSH2 0x2342 JUMP JUMPDEST SWAP2 POP PUSH2 0x36CC DUP4 PUSH2 0x2342 JUMP JUMPDEST SWAP3 POP DUP3 DUP3 SUB SWAP1 POP DUP2 DUP2 GT ISZERO PUSH2 0x36E4 JUMPI PUSH2 0x36E3 PUSH2 0x30C4 JUMP JUMPDEST JUMPDEST SWAP3 SWAP2 POP POP JUMP JUMPDEST PUSH32 0x50726F6669742062656C6F77206D696E696D756D000000000000000000000000 PUSH1 0x0 DUP3 ADD MSTORE POP JUMP JUMPDEST PUSH1 0x0 PUSH2 0x3720 PUSH1 0x14 DUP4 PUSH2 0x2CAB JUMP JUMPDEST SWAP2 POP PUSH2 0x372B DUP3 PUSH2 0x36EA JUMP JUMPDEST PUSH1 0x20 DUP3 ADD SWAP1 POP SWAP2 SWAP1 POP JUMP JUMPDEST PUSH1 0x0 PUSH1 0x20 DUP3 ADD SWAP1 POP DUP2 DUP2 SUB PUSH1 0x0 DUP4 ADD MSTORE PUSH2 0x374F DUP2 PUSH2 0x3713 JUMP JUMPDEST SWAP1 POP SWAP2 SWAP1 POP JUMP JUMPDEST PUSH1 0x0 PUSH2 0x3761 DUP3 PUSH2 0x2342 JUMP JUMPDEST SWAP2 POP PUSH2 0x376C DUP4 PUSH2 0x2342 JUMP JUMPDEST SWAP3 POP DUP3 DUP3 MUL PUSH2 0x377A DUP2 PUSH2 0x2342 JUMP JUMPDEST SWAP2 POP DUP3 DUP3 DIV DUP5 EQ DUP4 ISZERO OR PUSH2 0x3791 JUMPI PUSH2 0x3790 PUSH2 0x30C4 JUMP JUMPDEST JUMPDEST POP SWAP3 SWAP2 POP POP JUMP JUMPDEST PUSH32 0x4E487B7100000000000000000000000000000000000000000000000000000000 PUSH1 0x0 MSTORE PUSH1 0x12 PUSH1 0x4 MSTORE PUSH1 0x24 PUSH1 0x0 REVERT JUMPDEST PUSH1 0x0 PUSH2 0x37D2 DUP3 PUSH2 0x2342 JUMP JUMPDEST SWAP2 POP PUSH2 0x37DD DUP4 PUSH2 0x2342 JUMP JUMPDEST SWAP3 POP DUP3 PUSH2 0x37ED JUMPI PUSH2 0x37EC PUSH2 0x3798 JUMP JUMPDEST JUMPDEST DUP3 DUP3 DIV SWAP1 POP SWAP3 SWAP2 POP POP JUMP JUMPDEST PUSH1 0x0 PUSH1 0x60 DUP3 ADD SWAP1 POP PUSH2 0x380D PUSH1 0x0 DUP4 ADD DUP7 PUSH2 0x2635 JUMP JUMPDEST PUSH2 0x381A PUSH1 0x20 DUP4 ADD DUP6 PUSH2 0x2635 JUMP JUMPDEST PUSH2 0x3827 PUSH1 0x40 DUP4 ADD DUP5 PUSH2 0x2635 JUMP JUMPDEST SWAP5 SWAP4 POP POP POP POP JUMP JUMPDEST PUSH32 0x53696D706C65206172626974726167652070617468206F6E6C79000000000000 PUSH1 0x0 DUP3 ADD MSTORE POP JUMP JUMPDEST PUSH1 0x0 PUSH2 0x3865 PUSH1 0x1A DUP4 PUSH2 0x2CAB JUMP JUMPDEST SWAP2 POP PUSH2 0x3870 DUP3 PUSH2 0x382F JUMP JUMPDEST PUSH1 0x20 DUP3 ADD SWAP1 POP SWAP2 SWAP1 POP JUMP JUMPDEST PUSH1 0x0 PUSH1 0x20 DUP3 ADD SWAP1 POP DUP2 DUP2 SUB PUSH1 0x0 DUP4 ADD MSTORE PUSH2 0x3894 DUP2 PUSH2 0x3858 JUMP JUMPDEST SWAP1 POP SWAP2 SWAP1 POP JUMP JUMPDEST PUSH32 0x536F7572636520444558206E6F7420636F6E6669677572656400000000000000 PUSH1 0x0 DUP3 ADD MSTORE POP JUMP JUMPDEST PUSH1 0x0 PUSH2 0x38D1 PUSH1 0x19 DUP4 PUSH2 0x2CAB JUMP JUMPDEST SWAP2 POP PUSH2 0x38DC DUP3 PUSH2 0x389B JUMP JUMPDEST PUSH1 0x20 DUP3 ADD SWAP1 POP SWAP2 SWAP1 POP JUMP JUMPDEST PUSH1 0x0 PUSH1 0x20 DUP3 ADD SWAP1 POP DUP2 DUP2 SUB PUSH1 0x0 DUP4 ADD MSTORE PUSH2 0x3900 DUP2 PUSH2 0x38C4 JUMP JUMPDEST SWAP1 POP SWAP2 SWAP1 POP JUMP JUMPDEST PUSH32 0x54617267657420444558206E6F7420636F6E6669677572656400000000000000 PUSH1 0x0 DUP3 ADD MSTORE POP JUMP JUMPDEST PUSH1 0x0 PUSH2 0x393D PUSH1 0x19 DUP4 PUSH2 0x2CAB JUMP JUMPDEST SWAP2 POP PUSH2 0x3948 DUP3 PUSH2 0x3907 JUMP JUMPDEST PUSH1 0x20 DUP3 ADD SWAP1 POP SWAP2 SWAP1 POP JUMP JUMPDEST PUSH1 0x0 PUSH1 0x20 DUP3 ADD SWAP1 POP DUP2 DUP2 SUB PUSH1 0x0 DUP4 ADD MSTORE PUSH2 0x396C DUP2 PUSH2 0x3930 JUMP JUMPDEST SWAP1 POP SWAP2 SWAP1 POP JUMP JUMPDEST PUSH32 0x444558206E6F7420636F6E666967757265640000000000000000000000000000 PUSH1 0x0 DUP3 ADD MSTORE POP JUMP JUMPDEST PUSH1 0x0 PUSH2 0x39A9 PUSH1 0x12 DUP4 PUSH2 0x2CAB JUMP JUMPDEST SWAP2 POP PUSH2 0x39B4 DUP3 PUSH2 0x3973 JUMP JUMPDEST PUSH1 0x20 DUP3 ADD SWAP1 POP SWAP2 SWAP1 POP JUMP JUMPDEST PUSH1 0x0 PUSH1 0x20 DUP3 ADD SWAP1 POP DUP2 DUP2 SUB PUSH1 0x0 DUP4 ADD MSTORE PUSH2 0x39D8 DUP2 PUSH2 0x399C JUMP JUMPDEST SWAP1 POP SWAP2 SWAP1 POP JUMP JUMPDEST PUSH1 0x0 PUSH1 0x40 DUP3 ADD SWAP1 POP PUSH2 0x39F4 PUSH1 0x0 DUP4 ADD DUP6 PUSH2 0x2635 JUMP JUMPDEST DUP2 DUP2 SUB PUSH1 0x20 DUP4 ADD MSTORE PUSH2 0x3A06 DUP2 DUP5 PUSH2 0x2EB1 JUMP JUMPDEST SWAP1 POP SWAP4 SWAP3 POP POP POP JUMP JUMPDEST PUSH1 0x0 PUSH8 0xFFFFFFFFFFFFFFFF DUP3 GT ISZERO PUSH2 0x3A2A JUMPI PUSH2 0x3A29 PUSH2 0x281B JUMP JUMPDEST JUMPDEST PUSH1 0x20 DUP3 MUL SWAP1 POP PUSH1 0x20 DUP2 ADD SWAP1 POP SWAP2 SWAP1 POP JUMP JUMPDEST PUSH1 0x0 PUSH2 0x3A4E PUSH2 0x3A49 DUP5 PUSH2 0x3A0F JUMP JUMPDEST PUSH2 0x287B JUMP JUMPDEST SWAP1 POP DUP1 DUP4 DUP3 MSTORE PUSH1 0x20 DUP3 ADD SWAP1 POP PUSH1 0x20 DUP5 MUL DUP4 ADD DUP6 DUP2 GT ISZERO PUSH2 0x3A71 JUMPI PUSH2 0x3A70 PUSH2 0x2382 JUMP JUMPDEST JUMPDEST DUP4 JUMPDEST DUP2 DUP2 LT ISZERO PUSH2 0x3A9A JUMPI DUP1 PUSH2 0x3A86 DUP9 DUP3 PUSH2 0x2BE7 JUMP JUMPDEST DUP5 MSTORE PUSH1 0x20 DUP5 ADD SWAP4 POP POP PUSH1 0x20 DUP2 ADD SWAP1 POP PUSH2 0x3A73 JUMP JUMPDEST POP POP POP SWAP4 SWAP3 POP POP POP JUMP JUMPDEST PUSH1 0x0 DUP3 PUSH1 0x1F DUP4 ADD SLT PUSH2 0x3AB9 JUMPI PUSH2 0x3AB8 PUSH2 0x2378 JUMP JUMPDEST JUMPDEST DUP2 MLOAD PUSH2 0x3AC9 DUP5 DUP3 PUSH1 0x20 DUP7 ADD PUSH2 0x3A3B JUMP JUMPDEST SWAP2 POP POP SWAP3 SWAP2 POP POP JUMP JUMPDEST PUSH1 0x0 PUSH1 0x20 DUP3 DUP5 SUB SLT ISZERO PUSH2 0x3AE8 JUMPI PUSH2 0x3AE7 PUSH2 0x2233 JUMP JUMPDEST JUMPDEST PUSH1 0x0 DUP3 ADD MLOAD PUSH8 0xFFFFFFFFFFFFFFFF DUP2 GT ISZERO PUSH2 0x3B06 JUMPI PUSH2 0x3B05 PUSH2 0x2238 JUMP JUMPDEST JUMPDEST PUSH2 0x3B12 DUP5 DUP3 DUP6 ADD PUSH2 0x3AA4 JUMP JUMPDEST SWAP2 POP POP SWAP3 SWAP2 POP POP JUMP JUMPDEST PUSH1 0x0 PUSH2 0x3B26 DUP3 PUSH2 0x2DE3 JUMP JUMPDEST PUSH2 0x3B30 DUP2 DUP6 PUSH2 0x35D1 JUMP JUMPDEST SWAP4 POP PUSH2 0x3B40 DUP2 DUP6 PUSH1 0x20 DUP7 ADD PUSH2 0x2DEE JUMP JUMPDEST DUP1 DUP5 ADD SWAP2 POP POP SWAP3 SWAP2 POP POP JUMP JUMPDEST PUSH1 0x0 PUSH2 0x3B58 DUP3 DUP5 PUSH2 0x3B1B JUMP JUMPDEST SWAP2 POP DUP2 SWAP1 POP SWAP3 SWAP2 POP POP JUMP JUMPDEST PUSH1 0x0 PUSH1 0xA0 DUP3 ADD SWAP1 POP PUSH2 0x3B78 PUSH1 0x0 DUP4 ADD DUP9 PUSH2 0x2635 JUMP JUMPDEST PUSH2 0x3B85 PUSH1 0x20 DUP4 ADD DUP8 PUSH2 0x2635 JUMP JUMPDEST DUP2 DUP2 SUB PUSH1 0x40 DUP4 ADD MSTORE PUSH2 0x3B97 DUP2 DUP7 PUSH2 0x2EB1 JUMP JUMPDEST SWAP1 POP PUSH2 0x3BA6 PUSH1 0x60 DUP4 ADD DUP6 PUSH2 0x298F JUMP JUMPDEST PUSH2 0x3BB3 PUSH1 0x80 DUP4 ADD DUP5 PUSH2 0x2635 JUMP JUMPDEST SWAP7 SWAP6 POP POP POP POP POP POP JUMP JUMPDEST PUSH32 0x4E487B7100000000000000000000000000000000000000000000000000000000 PUSH1 0x0 MSTORE PUSH1 0x51 PUSH1 0x4 MSTORE PUSH1 0x24 PUSH1 0x0 REVERT INVALID NUMBER PUSH16 0x6E74726163742062616C616E63652062 PUSH6 0x666F72652066 PUSH6 0x65207472616E PUSH20 0x6665723A436F6E74726163742062616C616E6365 KECCAK256 PUSH2 0x6674 PUSH6 0x722066656520 PUSH21 0x72616E736665723AA2646970667358221220E547F9 0x29 0xC 0x22 0xDE SELFBALANCE 0xAA SGT 0xAD 0xF POP SWAP15 SELFDESTRUCT 0x28 0xB2 PUSH2 0x702D PUSH24 0xFBD6C91817E102639BA10F64736F6C634300081C00330000 "},"methodIdentifiers":{"ADDRESSES_PROVIDER()":"0542975c","POOL()":"7535d246","_executeWithTryCatch(string,string,address[],uint256,uint256)":"9e537bea","configureDex(string,address)":"d26f0cd0","dexRouters(string)":"5e7ffa67","executeArbitrage(address,uint256,string,string,address[],uint256)":"3bc26c21","executeOperation(address,uint256,uint256,address,bytes)":"1b11d0ff","feeCollector()":"c415b95c","feePercentage()":"a001ecdd","getBalance(address)":"f8b2cb4f","isPaused()":"b187bd26","minProfitThreshold()":"7341ab8c","minSpreadThreshold()":"329af636","owner()":"8da5cb5b","renounceOwnership()":"715018a6","rescueTokens(address)":"00ae3bf8","setProfitThresholds(uint256,uint256)":"58c9ea7f","simulateArbitrage(address,uint256,string,string,address[])":"1ce57d72","togglePause()":"c4ae3168","transferOwnership(address)":"f2fde38b","updateFeeStructure(address,uint256)":"2d715cad"}}}}}