{
  "_format": "hh-sol-artifact-1",
  "contractName": "MockAavePool",
  "sourceName": "contracts/test/mocks/MockAavePool.sol",
  "abi": [
    {
      "anonymous": false,
      "inputs": [
        {
          "indexed": true,
          "internalType": "address",
          "name": "receiver",
          "type": "address"
        },
        {
          "indexed": true,
          "internalType": "address",
          "name": "asset",
          "type": "address"
        },
        {
          "indexed": false,
          "internalType": "uint256",
          "name": "amount",
          "type": "uint256"
        },
        {
          "indexed": false,
          "internalType": "uint256",
          "name": "premium",
          "type": "uint256"
        }
      ],
      "name": "FlashLoanExecuted",
      "type": "event"
    },
    {
      "inputs": [],
      "name": "callbackContract",
      "outputs": [
        {
          "internalType": "address",
          "name": "",
          "type": "address"
        }
      ],
      "stateMutability": "view",
      "type": "function"
    },
    {
      "inputs": [
        {
          "internalType": "address",
          "name": "token",
          "type": "address"
        },
        {
          "internalType": "uint256",
          "name": "amount",
          "type": "uint256"
        }
      ],
      "name": "depositToken",
      "outputs": [],
      "stateMutability": "nonpayable",
      "type": "function"
    },
    {
      "inputs": [
        {
          "internalType": "address",
          "name": "receiverAddress",
          "type": "address"
        },
        {
          "internalType": "address",
          "name": "asset",
          "type": "address"
        },
        {
          "internalType": "uint256",
          "name": "amount",
          "type": "uint256"
        },
        {
          "internalType": "bytes",
          "name": "params",
          "type": "bytes"
        },
        {
          "internalType": "uint16",
          "name": "",
          "type": "uint16"
        }
      ],
      "name": "flashLoanSimple",
      "outputs": [],
      "stateMutability": "nonpayable",
      "type": "function"
    },
    {
      "inputs": [
        {
          "internalType": "address",
          "name": "_callback",
          "type": "address"
        }
      ],
      "name": "setCallbackContract",
      "outputs": [],
      "stateMutability": "nonpayable",
      "type": "function"
    },
    {
      "inputs": [
        {
          "internalType": "address",
          "name": "",
          "type": "address"
        }
      ],
      "name": "tokenBalances",
      "outputs": [
        {
          "internalType": "uint256",
          "name": "",
          "type": "uint256"
        }
      ],
      "stateMutability": "view",
      "type": "function"
    }
  ],
  "bytecode": "0x6080604052348015600f57600080fd5b506116d78061001f6000396000f3fe608060405234801561001057600080fd5b50600436106100575760003560e01c8063338b5dea1461005c57806342b0b77c14610078578063523fba7f146100945780637a35aaa9146100c4578063bd7e2aa4146100e0575b600080fd5b61007660048036038101906100719190610cee565b6100fe565b005b610092600480360381019061008d9190610dcd565b610216565b005b6100ae60048036038101906100a99190610e67565b6109aa565b6040516100bb9190610ea3565b60405180910390f35b6100de60048036038101906100d99190610e67565b6109c2565b005b6100e8610a06565b6040516100f59190610ecd565b60405180910390f35b8173ffffffffffffffffffffffffffffffffffffffff166323b872dd3330846040518463ffffffff1660e01b815260040161013b93929190610ee8565b6020604051808303816000875af115801561015a573d6000803e3d6000fd5b505050506040513d601f19601f8201168201806040525081019061017e9190610f57565b6101bd576040517f08c379a00000000000000000000000000000000000000000000000000000000081526004016101b490610fe1565b60405180910390fd5b806000808473ffffffffffffffffffffffffffffffffffffffff1673ffffffffffffffffffffffffffffffffffffffff168152602001908152602001600020600082825461020b9190611030565b925050819055505050565b6102546040518060400160405280601b81526020017f312e20436865636b696e6720706f6f6c2062616c616e63652e2e2e0000000000815250610a2c565b836000808773ffffffffffffffffffffffffffffffffffffffff1673ffffffffffffffffffffffffffffffffffffffff1681526020019081526020016000205410156102d5576040517f08c379a00000000000000000000000000000000000000000000000000000000081526004016102cc906110b0565b60405180910390fd5b6103136040518060400160405280601981526020017f322e205472616e7366657272696e6720746f6b656e732e2e2e00000000000000815250610a2c565b8473ffffffffffffffffffffffffffffffffffffffff1663a9059cbb87866040518363ffffffff1660e01b815260040161034e9291906110d0565b6020604051808303816000875af115801561036d573d6000803e3d6000fd5b505050506040513d601f19601f820116820180604052508101906103919190610f57565b6103d0576040517f08c379a00000000000000000000000000000000000000000000000000000000081526004016103c790611145565b60405180910390fd5b61040e6040518060400160405280601881526020017f332e20457865637574696e672063616c6c6261636b2e2e2e0000000000000000815250610a2c565b60006127106009866104209190611165565b61042a91906111d6565b90506000808873ffffffffffffffffffffffffffffffffffffffff16888885338a8a60405160240161046196959493929190611265565b6040516020818303038152906040527f1b11d0ff000000000000000000000000000000000000000000000000000000007bffffffffffffffffffffffffffffffffffffffffffffffffffffffff19166020820180517bffffffffffffffffffffffffffffffffffffffffffffffffffffffff83818316178352505050506040516104eb9190611332565b6000604051808303816000865af19150503d8060008114610528576040519150601f19603f3d011682016040523d82523d6000602084013e61052d565b606091505b50915091506105726040518060400160405280601381526020017f342e2043616c6c6261636b20726573756c743a000000000000000000000000008152508383610ac5565b818160405160200161058491906113a0565b604051602081830303815290604052906105d4576040517f08c379a00000000000000000000000000000000000000000000000000000000081526004016105cb9190611406565b60405180910390fd5b506106136040518060400160405280601981526020017f352e20566572696679696e672072657061796d656e742e2e2e00000000000000815250610a2c565b600083886106219190611030565b905060008973ffffffffffffffffffffffffffffffffffffffff1663dd62ed3e8c306040518363ffffffff1660e01b8152600401610660929190611428565b602060405180830381865afa15801561067d573d6000803e3d6000fd5b505050506040513d601f19601f820116820180604052508101906106a19190611466565b90506106e26040518060400160405280601381526020017f52657175697265642072657061796d656e743a0000000000000000000000000081525083610b64565b6107216040518060400160405280601281526020017f43757272656e7420616c6c6f77616e63653a000000000000000000000000000081525082610b64565b81811015610764576040517f08c379a000000000000000000000000000000000000000000000000000000000815260040161075b90611505565b60405180910390fd5b6107a26040518060400160405280601a81526020017f362e2050726f63657373696e672072657061796d656e742e2e2e000000000000815250610a2c565b8973ffffffffffffffffffffffffffffffffffffffff166323b872dd8c30856040518463ffffffff1660e01b81526004016107df93929190610ee8565b6020604051808303816000875af11580156107fe573d6000803e3d6000fd5b505050506040513d601f19601f820116820180604052508101906108229190610f57565b610861576040517f08c379a000000000000000000000000000000000000000000000000000000000815260040161085890611571565b60405180910390fd5b81896000808d73ffffffffffffffffffffffffffffffffffffffff1673ffffffffffffffffffffffffffffffffffffffff168152602001908152602001600020546108ac9190611591565b6108b69190611030565b6000808c73ffffffffffffffffffffffffffffffffffffffff1673ffffffffffffffffffffffffffffffffffffffff168152602001908152602001600020819055508973ffffffffffffffffffffffffffffffffffffffff168b73ffffffffffffffffffffffffffffffffffffffff167f9d0d497e678f62d6b162c97b9724a39f45fe674650dcd4a5e88ff6317e63764f8b886040516109579291906115c5565b60405180910390a361099d6040518060400160405280601781526020017f372e20466c617368206c6f616e20636f6d706c65746564000000000000000000815250610a2c565b5050505050505050505050565b60006020528060005260406000206000915090505481565b80600160006101000a81548173ffffffffffffffffffffffffffffffffffffffff021916908373ffffffffffffffffffffffffffffffffffffffff16021790555050565b600160009054906101000a900473ffffffffffffffffffffffffffffffffffffffff1681565b610ac281604051602401610a409190611406565b6040516020818303038152906040527f41304fac000000000000000000000000000000000000000000000000000000007bffffffffffffffffffffffffffffffffffffffffffffffffffffffff19166020820180517bffffffffffffffffffffffffffffffffffffffffffffffffffffffff8381831617835250505050610c00565b50565b610b5f838383604051602401610add939291906115fd565b6040516020818303038152906040527fe298f47d000000000000000000000000000000000000000000000000000000007bffffffffffffffffffffffffffffffffffffffffffffffffffffffff19166020820180517bffffffffffffffffffffffffffffffffffffffffffffffffffffffff8381831617835250505050610c00565b505050565b610bfc8282604051602401610b7a929190611642565b6040516020818303038152906040527fb60e72cc000000000000000000000000000000000000000000000000000000007bffffffffffffffffffffffffffffffffffffffffffffffffffffffff19166020820180517bffffffffffffffffffffffffffffffffffffffffffffffffffffffff8381831617835250505050610c00565b5050565b610c1781610c0f610c1a610c3b565b63ffffffff16565b50565b60006a636f6e736f6c652e6c6f679050600080835160208501845afa505050565b610c46819050919050565b610c4e611672565b565b600080fd5b600080fd5b600073ffffffffffffffffffffffffffffffffffffffff82169050919050565b6000610c8582610c5a565b9050919050565b610c9581610c7a565b8114610ca057600080fd5b50565b600081359050610cb281610c8c565b92915050565b6000819050919050565b610ccb81610cb8565b8114610cd657600080fd5b50565b600081359050610ce881610cc2565b92915050565b60008060408385031215610d0557610d04610c50565b5b6000610d1385828601610ca3565b9250506020610d2485828601610cd9565b9150509250929050565b600080fd5b600080fd5b600080fd5b60008083601f840112610d5357610d52610d2e565b5b8235905067ffffffffffffffff811115610d7057610d6f610d33565b5b602083019150836001820283011115610d8c57610d8b610d38565b5b9250929050565b600061ffff82169050919050565b610daa81610d93565b8114610db557600080fd5b50565b600081359050610dc781610da1565b92915050565b60008060008060008060a08789031215610dea57610de9610c50565b5b6000610df889828a01610ca3565b9650506020610e0989828a01610ca3565b9550506040610e1a89828a01610cd9565b945050606087013567ffffffffffffffff811115610e3b57610e3a610c55565b5b610e4789828a01610d3d565b93509350506080610e5a89828a01610db8565b9150509295509295509295565b600060208284031215610e7d57610e7c610c50565b5b6000610e8b84828501610ca3565b91505092915050565b610e9d81610cb8565b82525050565b6000602082019050610eb86000830184610e94565b92915050565b610ec781610c7a565b82525050565b6000602082019050610ee26000830184610ebe565b92915050565b6000606082019050610efd6000830186610ebe565b610f0a6020830185610ebe565b610f176040830184610e94565b949350505050565b60008115159050919050565b610f3481610f1f565b8114610f3f57600080fd5b50565b600081519050610f5181610f2b565b92915050565b600060208284031215610f6d57610f6c610c50565b5b6000610f7b84828501610f42565b91505092915050565b600082825260208201905092915050565b7f4465706f736974207472616e73666572206661696c6564000000000000000000600082015250565b6000610fcb601783610f84565b9150610fd682610f95565b602082019050919050565b60006020820190508181036000830152610ffa81610fbe565b9050919050565b7f4e487b7100000000000000000000000000000000000000000000000000000000600052601160045260246000fd5b600061103b82610cb8565b915061104683610cb8565b925082820190508082111561105e5761105d611001565b5b92915050565b7f496e73756666696369656e7420706f6f6c2062616c616e636500000000000000600082015250565b600061109a601983610f84565b91506110a582611064565b602082019050919050565b600060208201905081810360008301526110c98161108d565b9050919050565b60006040820190506110e56000830185610ebe565b6110f26020830184610e94565b9392505050565b7f496e697469616c207472616e73666572206661696c6564000000000000000000600082015250565b600061112f601783610f84565b915061113a826110f9565b602082019050919050565b6000602082019050818103600083015261115e81611122565b9050919050565b600061117082610cb8565b915061117b83610cb8565b925082820261118981610cb8565b915082820484148315176111a05761119f611001565b5b5092915050565b7f4e487b7100000000000000000000000000000000000000000000000000000000600052601260045260246000fd5b60006111e182610cb8565b91506111ec83610cb8565b9250826111fc576111fb6111a7565b5b828204905092915050565b600082825260208201905092915050565b82818337600083830152505050565b6000601f19601f8301169050919050565b60006112448385611207565b9350611251838584611218565b61125a83611227565b840190509392505050565b600060a08201905061127a6000830189610ebe565b6112876020830188610e94565b6112946040830187610e94565b6112a16060830186610ebe565b81810360808301526112b4818486611238565b9050979650505050505050565b600081519050919050565b600081905092915050565b60005b838110156112f55780820151818401526020810190506112da565b60008484015250505050565b600061130c826112c1565b61131681856112cc565b93506113268185602086016112d7565b80840191505092915050565b600061133e8284611301565b915081905092915050565b600081905092915050565b7f43616c6c6261636b206661696c65643a20000000000000000000000000000000600082015250565b600061138a601183611349565b915061139582611354565b601182019050919050565b60006113ab8261137d565b91506113b78284611301565b915081905092915050565b600081519050919050565b60006113d8826113c2565b6113e28185610f84565b93506113f28185602086016112d7565b6113fb81611227565b840191505092915050565b6000602082019050818103600083015261142081846113cd565b905092915050565b600060408201905061143d6000830185610ebe565b61144a6020830184610ebe565b9392505050565b60008151905061146081610cc2565b92915050565b60006020828403121561147c5761147b610c50565b5b600061148a84828501611451565b91505092915050565b7f496e73756666696369656e7420616c6c6f77616e636520666f7220726570617960008201527f6d656e7400000000000000000000000000000000000000000000000000000000602082015250565b60006114ef602483610f84565b91506114fa82611493565b604082019050919050565b6000602082019050818103600083015261151e816114e2565b9050919050565b7f52657061796d656e74207472616e73666572206661696c656400000000000000600082015250565b600061155b601983610f84565b915061156682611525565b602082019050919050565b6000602082019050818103600083015261158a8161154e565b9050919050565b600061159c82610cb8565b91506115a783610cb8565b92508282039050818111156115bf576115be611001565b5b92915050565b60006040820190506115da6000830185610e94565b6115e76020830184610e94565b9392505050565b6115f781610f1f565b82525050565b6000606082019050818103600083015261161781866113cd565b905061162660208301856115ee565b818103604083015261163881846113cd565b9050949350505050565b6000604082019050818103600083015261165c81856113cd565b905061166b6020830184610e94565b9392505050565b7f4e487b7100000000000000000000000000000000000000000000000000000000600052605160045260246000fdfea26469706673582212208a5a992ae62d93de0f5ebd67a2a2700c94e6f9c55dfb27693ddff08c1539137864736f6c634300081c0033",
  "linkReferences": {},
  "deployedLinkReferences": {}
}